:100000000C9496000C94B5000C94B5000C94B500BB
:100010000C94B5000C94B5000C94B5000C94B5008C
:100020000C94B5000C94B5000C94B5000C94B5007C
:100030000C94B5000C94B5000C94B5000C94B5006C
:100040000C94B5000C94B5000C94B5000C94B5005C
:100050000C94B5000C94B5000C94B5000C94B5004C
:100060000C94B5000C9450040C94B5000C94B5009D
:100070000C94B5000C94B5000C94B5000C94B5002C
:100080000C94B5000C94B5000C94B5000C94B5001C
:100090000C94B5000C94B5000C94B5000C941701A9
:1000A0000C94B5000C94B5000C94B5000C94B500FC
:1000B0000C94B5000C94B5000C94B5000C94B500EC
:1000C0000C94B5000C94B5000C94B5000C94B500DC
:1000D0000C94B5000C94B5000C94B5000C94B500CC
:1000E0000C94B5000C94B5000C94B5000C94B500BC
:1000F0000C94B5000C94B5000C94B5000C94B500AC
:100100000C94B5000C94B5000C94B5000C94B5009B
:100110000C94B5000C94B5000C94B5000C94B5008B
:100120006364696E6F70737578585B0011241FBE2D
:10013000CFEFD1E4DEBFCDBF14E0A0E0B2E0E4ED4C
:10014000F3E200E00BBF02C007900D92A231B107AD
:10015000D9F715E0A2E1B4E001C01D92A735B107BF
:10016000E1F70E94BC040C94E8110C94000080E2BA
:100170008093B8008FEF8093BB0084E08093BC0035
:1001800008958091BC00817008958091BC0080FD2D
:10019000FCCF809100020895FC018091BC0080FD9D
:1001A000FCCF60931E0480818093140480FD0DC0F9
:1001B0004E2FA5E1B4E0CF01FC0102C080818D93F8
:1001C00031968E2F841B8617C8F31092120488EF85
:1001D0008093000285EA8093BC0008958091BC0062
:1001E00080FDFCCF1092120488EF8093000285EA14
:1001F0008093BC000895AC018091BC0080FDFCCFD1
:100200008091120480FF0FC020E030E00AC0FA01A4
:10021000E20FF31FD901AC5EBB4F8C9180832F5F3F
:100220003F4F2617A0F380911204817008951F920A
:100230000F920FB60F920BB60F9211242F933F938C
:100240008F939F93EF93FF938091B9008832D1F001
:10025000893240F48031A1F08831A1F0883009F072
:100260004DC00EC0803459F1813420F4883309F038
:1002700045C042C08035B9F0883509F03FC02DC077
:10028000109213049091130480911E04981768F53E
:10029000E92FF0E0EC5EFB4F80818093BB009F5F15
:1002A0009093130418C0809113049091BB00E82F21
:1002B000F0E0EC5EFB4F90838F5F809313042091FE
:1002C000130430E080911E0490E00197281739074D
:1002D00014F485EC18C085E816C08091BB00E0914D
:1002E0001304F0E0EC5EFB4F808380911204816088
:1002F0008093120484E907C085EA05C08091B900A3
:100300008093000284E08093BC00FF91EF919F9165
:100310008F913F912F910F900BBE0F900FBE0F90BA
:100320001F90189510922304109220041092250417
:10033000109224041092270410922604109229048B
:100340001092280410922D0410922C0410922F0465
:1003500010922E0410923104109230041092330443
:10036000109232041092370410923404109239041F
:100370001092380410923B0410923A0410923D04FB
:1003800010923C04109241041092400410924304D5
:1003900010924204109245041092440410924704B3
:1003A0001092460481E080931F0408951092230464
:1003B0001092370410921F040895CF92DF92EF92AB
:1003C000FF920F931F93CF93DF93E82FEA01690108
:1003D00080912304882321F420E030E040E008C02D
:1003E00080913704882309F04EC021E030E041E0DD
:1003F0006115710509F447C0209709F444C0C11480
:10040000D10409F440C0E114F104E9F1EE23D9F17B
:1004100084E190E0289FD001299FB00D389FB00D56
:100420001124A05EBB4F1396EC9313971C921F965A
:100430001C921E921E9751961C921E925097539694
:100440001C921E925297F901EE0FFF1FEE0FFF1F35
:10045000E20FF31FEE0FFF1FEE0FFF1FEC5DFB4FD0
:10046000718360831796DC93CE9316971996DC926E
:10047000CE9218971B961C930E931A971D96FC927A
:10048000EE921C9701C04FEF842FDF91CF911F9107
:100490000F91FF90EF90DF90CF900895282F8091DB
:1004A0001F04882389F0223078F430E084E190E062
:1004B000289FF001299FF00D389FF00D1124E05E78
:1004C000FB4F138281E0089580E00895A82F80916A
:1004D0001F048823E1F1A230D0F561157105A9F060
:1004E0004115510591F02A2F30E084E190E0289FDA
:1004F000F001299FF00D389FF00D1124E05EFB4FB5
:1005000077876687518B408B11C02A2F30E084E1BA
:1005100090E0289FF001299FF00D389FF00D1124E5
:10052000E05EFB4F17861686118A108A2A2F30E06C
:1005300084E190E0289FF001299FF00D389FF00D95
:100540001124E05EFB4F138A128A81E0089580E057
:1005500008958F929F92AF92BF92CF92DF92FF92B7
:100560000F931F93CF93DF93A82F4B015A018091D4
:100570001F04882309F485C0A23008F082C06115E9
:10058000710509F47EC04115510509F47AC02A2F7E
:1005900030E084E190E0289FF001299FF00D389F22
:1005A000F00D1124E05EFB4F838182FF6AC084E17D
:1005B000A89FE0011124C05EDB4FE885F98580EC3F
:1005C000099500E010E0CC24DD2420C0F401E00F08
:1005D000F11FF08080ECF81659F0E885F9858BED75
:1005E000F81671F48BED0995E885F9858DED09C054
:1005F000E885F9858BED0995E885F9858CED01C0D5
:100600008F2D09950F5F1F4FCF0CD11C0A151B05AD
:10061000E8F28C2D81958B3D39F4E885F9850995B3
:10062000E885F9858DED09C0E885F985803C29F4D8
:100630008BED0995E885F9858CED09958827992733
:100640008C199D099B3D41F4E885F9858BED099551
:10065000E885F9858DED0BC0E885F985903C31F48E
:100660008BED0995E885F9858CED01C0892F0995F9
:10067000E885F98580EC0995EA85FB85309709F0D6
:100680000995DF91CF911F910F91FF90DF90CF904F
:10069000BF90AF909F908F900895CF93DF93982F46
:1006A00080911F04882309F475C0923008F072C04D
:1006B00084E1989FE0011124C05EDB4F8B8181FFB4
:1006C00069C0EE81FF810995882309F463C08B819D
:1006D00083FF02C084608B83EC81FD810995482FE4
:1006E000803C21F088814B3D61F528C088818823BA
:1006F000F1F46A897B8962307105C8F04E855F85A7
:10070000FA01E60FF71F229189819A81821B9109D4
:100710009A8389832291821B91099A838983EC852C
:10072000FD85309721F062507040CA0109951B8AFF
:100730001A8A1A82198288818E7F01C0816088831B
:1007400029C080FF09C08E7F88834C3D21F04D3D3C
:1007500019F44BED01C040ECEE85FF853097A1F018
:100760002A893B89888999892817390768F4E20F13
:10077000F31F40832F5F3F4F3B8B2A8B89819A81E8
:10078000840F911D9A838983EE81FF8109958823C7
:1007900009F0A2CFDF91CF910895813049F4759A85
:1007A0006D988CB18295869587708095817008953B
:1007B000823011F080E008958091004081700895AA
:1007C000813079F54230A9F04330E9F0413009F049
:1007D0004DC03EB181E090E002C0880F991F6A953C
:1007E000E2F7282F209523232EB92DB1822B8DB926
:1007F00008958EB121E030E002C0220F331F6A95C8
:10080000E2F7822B09C08EB121E030E002C0220F56
:10081000331F6A95E2F782278EB98DB1282B2DB947
:100820000895823019F5413019F04230C9F40BC0F7
:1008300081E090E002C0880F991F6A95E2F720914D
:100840004804282B0BC081E090E002C0880F991F5C
:100850006A95E2F780952091480428232093480464
:10086000809148048095886F80930040089581307E
:1008700021F480914804846005C0823029F480917D
:1008800048048B7F80934804809148048095886F4A
:1008900080930040089580914A0480934B0408950A
:1008A0001F920F920FB60F920BB60F9211242F9337
:1008B0003F934F935F936F937F938F939F93AF93E8
:1008C000BF93EF93FF939091C600809149048823D2
:1008D00009F03FC09A3091F09D3081F080914C0436
:1008E0008F3F61F0E0914C04F0E0E05BFB4F9083C0
:1008F00080914C048F5F80934C042BC0E0914C049A
:10090000F0E0E05BFB4F108210924C0481E080939A
:1009100049042091490400D000D000D0EDB7FEB7C3
:10092000319681E092E0ADB7BEB712969C938E935C
:10093000119780E594E093838283248315820E943B
:10094000940B8DB79EB706960FB6F8949EBF0FBE58
:100950008DBFFF91EF91BF91AF919F918F917F914B
:100960006F915F914F913F912F910F900BBE0F9020
:100970000FBE0F901F9018952F923F924F925F924B
:100980006F927F928F929F92AF92BF92CF92DF929F
:10099000EF92FF920F931F93DF93CF93CDB7DEB704
:1009A000C456D0400FB6F894DEBF0FBECDBF8CEF5B
:1009B00092E0909354058093530560E875E280E0DF
:1009C00090E00E9486078CE092E00E94A60B0E94B5
:1009D000FF0680E70E946C0688E292E00E94A60B68
:1009E00080E49CE90197F1F7789487E492E00E9413
:1009F000A60B50E7252E52E0352E48EC442E512C04
:100A000030E5632E34E0732E2BE8822E22E0922E06
:100A10007E010894E11CF11C95E1A92EB12CAC0ECD
:100A2000BD1E8AEDC82E82E0D82E81E063E043E04F
:100A30000E94E00381E064E043E00E94E0030E9442
:100A4000C10600D000D000D00DB71EB70F5F1F4FFA
:100A5000ADB7BEB712963C922E921197A0E0B0E0CF
:100A6000BC01CD010E94D80820E030E040E85DE301
:100A70000E94DE07F80162837383848395830E945A
:100A8000940B88E893E12DB73EB72A5F3F4F0FB62E
:100A9000F8943EBF0FBE2DBFF2013197F1F70197D9
:100AA000D9F780914904882309F4BFCF8091490484
:100AB000813009F0BACF19821D8A1092490480E56D
:100AC00094E063E270E00E94800BDC010D90002056
:100AD000E9F71197A81BB90BF30101900020E9F782
:100AE0003197E055F4408A2F8E1B8F3F09F480E048
:100AF0001C8A18A6ADB7BEB718970FB6F894BEBF3C
:100B00000FBEADBFEDB7FEB7319690E0805B9B4F57
:100B100012969C938E93119793828282F582E4823F
:100B2000B782A6820E94DB0BEDB7FEB738960FB6F0
:100B3000F894FEBF0FBEEDBFC70162E972E00E94EC
:100B40008B0B009769F48BE992E00E94A60B83EA75
:100B500092E00E94A60B8FEB92E00E94A60B65CF5D
:100B6000C70167EC72E00E948B0B009709F45DCF20
:100B7000C70160ED72E00E948B0B009709F455CF1E
:100B800000D0ADB7BEB71296DC92CE9211970E94FC
:100B9000940B0F900F9049CFFF920F931F93F82E55
:100BA0000DE414E080934D0481E080934E0480E7CF
:100BB00080934F04C80163E00E94CC0000D089EE0E
:100BC00092E0EDB7FEB7928381830E94940BF0927E
:100BD0004D0410924E040F900F90C80162E00E94E5
:100BE000CC0000D082EF92E0EDB7FEB79283818314
:100BF0000E94940B0F900F901F910F91FF900895FA
:100C00000F931F930DE414E08F5F80934D04C80190
:100C100063E00E94CC00C80163E00E94FB00609189
:100C20004E04772767FD7095762F6627882777FD16
:100C30008095982F20914F0430E040E050E0622BE7
:100C4000732B842B952B28EE33E040E050E00E947C
:100C5000ED0A20E031E040E050E00E942E0BCA0196
:100C6000B9011F910F9108950F931F938C0194E088
:100C7000000F111F9A95E1F782E90E942D0783E08A
:100C80000E946007812F992787FD9A950E9460072F
:100C9000802F0E9460070E9458071F910F910895AE
:100CA0000F931F938C0134E0000F111F3A95E1F769
:100CB00082E90E942D0782E00E946007812F992718
:100CC00087FD9A950E946007802F0E9460070E940E
:100CD00058071F910F9108951F93182F82E90E94C2
:100CE0002D0781E00E946007812F0E9460070E940B
:100CF00058071F910895EF92FF921F9382E90E9477
:100D00002D0783E00E94600783E90E9455070E9437
:100D10007207182F0E947C07E82E0E945807912F17
:100D200080E0FF24E82AF92A44E0F594E7944A9504
:100D3000E1F7C7011F91FF90EF900895EF92FF92A6
:100D40001F9382E90E942D0782E00E94600783E9D9
:100D50000E9455070E947207182F0E947C07E82EF8
:100D60000E945807912F80E0FF24E82AF92A54E0D6
:100D7000F594E7945A95E1F7C7011F91FF90EF9022
:100D80000895EF92FF921F9388E893E128EC30E0FA
:100D9000F9013197F1F70197D9F782E90E942D0700
:100DA00080E00E94600783E90E9455070E94720755
:100DB000182F0E947C07E82E0E945807912F80E090
:100DC000FF24E82AF92A64E0F594E7946A95E1F7AC
:100DD000C7011F91FF90EF9008951F9382E90E9431
:100DE0002D0781E00E94600783E90E9455070E9459
:100DF0007C07182F0E945807812F1F910895109289
:100E0000B90080E28093B8005E98569A0895982FB2
:100E100084EA8093BC008091BC0087FFFCCF809166
:100E2000B900887F883021F0803111F081E0089589
:100E30009093BB0084E88093BC008091BC0087FF46
:100E4000FCCF9091B900987F983111F480E008951B
:100E500080E0903409F081E00895982F44EA34E866
:100E600024E94093BC008091BC0087FFFCCF8091B7
:100E7000B900887F883011F0803199F79093BB00DA
:100E80003093BC008091BC0087FFFCCF8091B900FB
:100E9000887F803211F0883539F42093BC0080912E
:100EA000BC0084FDFCCFDDCF08950E9407070895A4
:100EB00084E98093BC008091BC0084FDFCCF089540
:100EC0008093BB0084E88093BC008091BC0087FFC6
:100ED000FCCF8091B90090E0887F883209F091E0E2
:100EE000892F089584EC8093BC008091BC0087FF1B
:100EF000FCCF8091BB00089584E88093BC00809172
:100F0000BC0087FFFCCF8091BB0008959B01AC0122
:100F100082E08093C000CA01B90160587B47814ECE
:100F20009F4FF2E0660F771F881F991FFA95D1F740
:100F3000E3E0220F331F441F551FEA95D1F70E94AB
:100F40000C0B21502093C4001092C50088E98093B7
:100F5000C10086E08093C20008958091C000881F80
:100F60008827881F08958091C00087FFFCCF80915B
:100F7000C60090E008958091C00087FFFCCF80916B
:100F8000C60090E008958091C00087FFFCCF80915B
:100F9000C60090E00895982F8091C00085FFFCCF97
:100FA0009093C600892F90E00895982F8091C000FB
:100FB00085FFFCCF9093C600892F0895A0E2B0E092
:100FC000E4EEF7E00C94490B69837A838B839C836E
:100FD0002D833E834F835887CE010196BE01675F04
:100FE0007F4F0E94750ACE010596BE016F5E7F4F4E
:100FF0000E94750A9985923088F089898230C8F0FC
:10100000943019F4823051F404C0843029F49230C1
:1010100081F48AE093E0C6C0923049F420E09A85DA
:101020008A89981321E02A87CE010996BBC08230B5
:1010300049F420E09A858A89981321E02A8BCE0111
:101040004196B0C02D843E844F8458886D887E8838
:101050008F88988CEE24FF248701AA24BB24650185
:1010600040E050E060E070E0E0E0F0E0C10181705D
:101070009070892BE9F0E60CF71C081D191D9A01E8
:10108000AB012A0D3B1D4C1D5D1D80E090E0A0E0F2
:10109000B0E0E614F7040805190520F481E090E0BB
:1010A000A0E0B0E0BA01A901480F591F6A1F7B1FD9
:1010B000AA0CBB1CCC1CDD1C97FE08C081E090E094
:1010C000A0E0B0E0A82AB92ACA2ADB2A3196E03289
:1010D000F10549F0660C771C881C991C56944794BE
:1010E00037942794C3CFFA85EA892B893C898B856D
:1010F0009C85280F391F2E5F3F4F17C0CA01817092
:101100009070892B61F016950795F794E79480E02D
:1011100090E0A0E0B0E8E82AF92A0A2B1B2B76958C
:101120006795579547952F5F3F4F77FDE7CF0CC0E9
:10113000440F551F661F771F17FD4160EE0CFF1C03
:10114000001F111F21503040403090E0590790E0BF
:10115000690790E4790760F32B8F3C8FDB01CA01AC
:101160008F779070A070B07080349105A105B105A3
:1011700061F447FD0AC0E114F1040105110529F0ED
:10118000405C5F4F6F4F7F4F40781A8EFE1711F013
:1011900081E08A8F4D8F5E8F6F8F78A383E0898F78
:1011A000CE0149960E94A009A096E2E10C94650B3D
:1011B000A8E0B0E0EEEDF8E00C94510B7B018C015F
:1011C000611571058105910519F482E0898360C07C
:1011D00083E089838EE1C82ED12CDC82CB82ED8224
:1011E000FE820F831887C801B7010E945109FC01D4
:1011F0003197F7FF3BC0222733272E1B3F0B5701A8
:101200006801022E04C0D694C794B794A7940A9498
:10121000D2F740E050E060E070E081E090E0A0E0D4
:10122000B0E004C0880F991FAA1FBB1F2A95D2F7F0
:101230000197A109B1098E219F21A023B123009715
:10124000A105B10521F041E050E060E070E04A29DD
:101250005B296C297D294D835E836F8378878EE1BE
:1012600090E08E1B9F0B9C838B8312C0309781F084
:101270000E2E04C0EE0CFF1C001F111F0A94D2F7A3
:10128000ED82FE820F831887CE1ADF0ADC82CB82C2
:101290001A82CE0101960E94A0092896EAE00C94D9
:1012A0006D0BEF92FF920F931F937B018C0180E0F7
:1012B000E81680E0F80681E0080780E0180788F467
:1012C0008FEFE816F1040105110531F028F088E0F0
:1012D00090E0A0E0B0E017C080E090E0A0E0B0E0D7
:1012E00012C080E0E81680E0F80680E0080781E0A0
:1012F000180728F088E190E0A0E0B0E004C080E1A9
:1013000090E0A0E0B0E020E230E040E050E0281BB8
:10131000390B4A0B5B0B04C016950795F794E794BD
:101320008A95D2F7F701EE5EFC4F8081281B3109C8
:1013300041095109C9011F910F91FF90EF90089544
:10134000DF92EF92FF920F931F93FC01E480F580F0
:1013500006811781D1808081823048F480E090E05E
:10136000A0E1B0E0E82AF92A0A2B1B2BA5C08430A3
:1013700009F49FC0823021F4EE24FF24870105C0C8
:10138000E114F1040105110519F4E0E0F0E096C064
:10139000628173819FEF623879070CF05BC022E8AD
:1013A0003FEF261B370B2A3131052CF020E030E0CF
:1013B00040E050E02AC0B801A701022E04C0769593
:1013C0006795579547950A94D2F781E090E0A0E0A1
:1013D000B0E004C0880F991FAA1FBB1F2A95D2F73F
:1013E0000197A109B1098E219F21A023B123009764
:1013F000A105B10521F081E090E0A0E0B0E09A0104
:10140000AB01282B392B4A2B5B2BDA01C9018F77D3
:101410009070A070B07080349105A105B10539F4C9
:1014200027FF09C0205C3F4F4F4F5F4F04C0215C36
:101430003F4F4F4F5F4FE0E0F0E02030A0E03A0731
:10144000A0E04A07A0E45A0710F0E1E0F0E07901DB
:101450008A0127C06038710564F5FB01E158FF4F30
:10146000D801C7018F779070A070B070803491055B
:10147000A105B10539F4E7FE0DC080E490E0A0E0DD
:10148000B0E004C08FE390E0A0E0B0E0E80EF91E09
:101490000A1F1B1F17FF05C016950795F794E794C1
:1014A000319687E016950795F794E7948A95D1F7DA
:1014B00005C0EE24FF248701EFEFF0E06E2F679563
:1014C00066276795902F9F77D794DD24D7948E2F2A
:1014D0008695492F462B582F5D29B701CA011F91C8
:1014E0000F91FF90EF90DF900895FC01DB014081A8
:1014F00051812281622F6F7770E0221F2227221FE5
:101500009381892F880F822B282F30E0991F9927EC
:10151000991F11969C93119721153105A9F5411535
:1015200051056105710511F482E037C082E89FEF33
:1015300013969C938E9312979A01AB0167E0220F4A
:10154000331F441F551F6A95D1F783E08C930DC05C
:10155000220F331F441F551F12968D919C91139794
:10156000019713969C938E931297203080E0380752
:1015700080E0480780E4580758F314962D933D9374
:101580004D935C93179708952F3F310579F44115DA
:1015900051056105710519F484E08C93089564FF89
:1015A00003C081E08C9312C01C9210C02F573040B2
:1015B00013963C932E93129783E08C9387E0440F0D
:1015C000551F661F771F8A95D1F7706414964D9347
:1015D0005D936D937C9317970895629FD001739FDD
:1015E000F001829FE00DF11D649FE00DF11D929FBF
:1015F000F00D839FF00D749FF00D659FF00D9927FE
:10160000729FB00DE11DF91F639FB00DE11DF91F21
:10161000BD01CF0111240895A1E21A2EAA1BBB1B04
:10162000FD010DC0AA1FBB1FEE1FFF1FA217B307AE
:10163000E407F50720F0A21BB30BE40BF50B661FC4
:10164000771F881F991F1A9469F760957095809588
:1016500090959B01AC01BD01CF01089597FB092E28
:1016600005260ED057FD04D0D7DF0AD0001C38F471
:1016700050954095309521953F4F4F4F5F4F0895BE
:10168000F6F790958095709561957F4F8F4F9F4F9E
:1016900008952F923F924F925F926F927F928F9216
:1016A0009F92AF92BF92CF92DF92EF92FF920F93F1
:1016B0001F93CF93DF93CDB7DEB7CA1BDB0B0FB6FB
:1016C000F894DEBF0FBECDBF09942A8839884888B8
:1016D0005F846E847D848C849B84AA84B984C8844E
:1016E000DF80EE80FD800C811B81AA81B981CE0F45
:1016F000D11D0FB6F894DEBF0FBECDBFED0108952A
:10170000FC018191861721F08823D9F79927089544
:101710003197CF010895FB01DC018D910190801973
:101720000110D9F3990B0895DF93CF93CDB7DEB7AE
:10173000FE01359661917191809153059091540508
:10174000AF010E94FE0BCF91DF9108950F931F937D
:10175000CF93DF938C01E0915305F0915405838181
:1017600081FF21C0C0E0D0E00DC0E0915305F091B1
:10177000540520853185BF01F9010995892B11F0A8
:10178000CFEFDFEFF80181918F01882371F7E091AE
:101790005305F0915405208531858AE0BF01F90198
:1017A0000995892B11F0CFEFDFEFCE01DF91CF91BB
:1017B0001F910F910895DF93CF93CDB7DEB72E978A
:1017C0000FB6F894DEBF0FBECDBF85E08C838B894A
:1017D0009C899A8389839E01295E3F4FCE010196A1
:1017E0006D897E89A9010E94B30F2E960FB6F894D9
:1017F000DEBF0FBECDBFCF91DF9108952F923F92F4
:101800004F925F926F927F928F929F92AF92BF9210
:10181000CF92DF92EF92FF920F931F93DF93CF93BC
:10182000CDB7DEB72B970FB6F894DEBF0FBECDBF96
:101830003C012B015A01FC0117821682838181FD34
:1018400003C06FEF7FEFC6C19AE0892E1E01089496
:10185000211C311CF3012381F20123FD859123FF1B
:1018600081912F01882309F4B2C1853239F423FD17
:10187000859123FF81912F01853229F490E0B301F6
:101880000E944111E7CF982FFF24EE249924FFE115
:10189000FF15D0F09B3269F09C3228F4903259F059
:1018A000933291F40EC09D3249F0903369F441E0D7
:1018B00024C052E0F52A84E0F82A28C098E0F92AEA
:1018C00025C0E0E1FE2A22C0F7FC29C0892F805301
:1018D0008A3070F4F6FE05C0989C902C1124980E66
:1018E00015C0E89CE02C1124E80EF0E2FF2A0EC09F
:1018F0009E3229F4F6FC6BC140E4F42A07C09C3602
:1019000019F450E8F52A02C0983649F4F20123FD93
:10191000959123FF91912F01992309F0B8CF892F39
:101920008554833018F08052833038F444E050E01E
:10193000A40EB51E5FE359830FC0933631F0933781
:1019400079F0933509F056C020C0F5018081898374
:1019500042E050E0A40EB51E610101E010E012C0AB
:10196000F501C080D180F6FC03C06FEF7FEF02C0AD
:10197000692D70E042E050E0A40EB51EC6010E9441
:10198000F4108C015FE7F52214C0F501C080D1800E
:10199000F6FC03C06FEF7FEF02C0692D70E042E0FC
:1019A00050E0A40EB51EC6010E94E9108C0150E85B
:1019B000F52AF3FE07C01AC080E290E0B3010E944E
:1019C0004111EA948E2D90E008171907A8F30EC074
:1019D000F601F7FC8591F7FE81916F0190E0B3016C
:1019E0000E944111E110EA940150104001151105C7
:1019F00079F7EAC0943611F0993669F5F7FE08C018
:101A0000F501208131814281538184E090E00AC058
:101A1000F501808191819C01442737FD4095542F29
:101A200082E090E0A80EB91E9FE6F92257FF09C098
:101A300050954095309521953F4F4F4F5F4FE0E8CF
:101A4000FE2ACA01B901A1012AE030E00E948711F3
:101A5000D82ED21840C0953729F41F2D1F7E2AE0BA
:101A600030E01DC01F2D197F9F3661F0903720F4A4
:101A7000983509F0ACC00FC0903739F0983709F0AD
:101A8000A6C004C028E030E00AC0106114FD146054
:101A900020E130E004C014FD166020E132E017FFC1
:101AA00008C0F501608171818281938144E050E03A
:101AB00008C0F50180819181BC0180E090E042E0A6
:101AC00050E0A40EB51EA1010E948711D82ED21895
:101AD0008FE7F82EF122F6FE0BC05EEFF522D91447
:101AE00038F4F4FE07C0F2FC05C08FEEF82202C005
:101AF0001D2D01C0192DF4FE0DC0FE01ED0DF11DCF
:101B00008081803319F499EEF92208C01F5FF2FE3C
:101B100005C003C08F2D867809F01F5F0F2DF3FCE1
:101B200014C0F0FE0FC01E1510F09D2C0BC09D2C94
:101B30009E0C911A1E2D06C080E290E0B3010E9417
:101B400041111F5F1E15C0F304C01E1510F4E11AE9
:101B500001C0EE2404FF0FC080E390E0B3010E94B7
:101B6000411102FF1DC001FD03C088E790E00EC0D7
:101B700088E590E00BC0802F867891F001FF02C0CD
:101B80008BE201C080E2F7FC8DE290E0B3010E949D
:101B9000411106C080E390E0B3010E9441119A9484
:101BA000D914C0F3DA94F101ED0DF11D808190E0BC
:101BB000B3010E944111DD20A9F706C080E290E048
:101BC000B3010E944111EA94EE20C1F743CEF30124
:101BD00066817781CB012B960FB6F894DEBF0FBEDE
:101BE000CDBFCF91DF911F910F91FF90EF90DF90CC
:101BF000CF90BF90AF909F908F907F906F905F90AD
:101C00004F903F902F900895FC0120FD08C023FDC8
:101C100005C022FF02C0738362835183408308950D
:101C2000EF92FF920F931F9344FF02C033E011C065
:101C300046FF02C034E00DC0DB01FC01AA0FBB1F50
:101C4000EE1FFF1F1094D1F76A0F7B1F8E1F9F1F7F
:101C500031E0660F771F881F991F3150D1F77B0144
:101C60008C01E20EF11C011D111DA8019701B701A5
:101C7000CA011F910F91FF90EF9008950F931F934A
:101C8000CF93DF938C01C8010E94FF10EC0197FDF8
:101C900008C00E94D610892BB1F7CE01B8010E946E
:101CA0006D11CE01DF91CF911F910F910895AF92E9
:101CB000BF92CF92DF92EF92FF920F931F93CF9339
:101CC000DF93EC01C62E5A01122F0E94FF10AC01C7
:101CD0008B3219F08D3251F41068CA9409F46DC03A
:101CE000CE010E94FF10AC0197FD67C06DEFD62EAC
:101CF000D1228D2D807301F54033F1F4CA9409F49B
:101D000047C0CE010E94FF10AC0197FD41C082E0A8
:101D1000D82A483711F0483559F480E4D82ACA94B3
:101D2000B9F1CE010E94FF10AC0199232CF430C010
:101D3000D6FC02C080E1D82AEE24FF248701242F9C
:101D40002053283088F0D4FC09C02A3068F0D6FE31
:101D500005C02F7D822F8151863028F0CA01BE0137
:101D60000E946D1112C02750C801B7014D2D0E946D
:101D7000100E7B018C0182E0D82ACA9461F0CE015A
:101D80000E94FF10AC0197FFDACFD1FC04C015C050
:101D9000EE24FF248701D7FE08C010950095F0942B
:101DA000E094E11CF11C011D111DC501B801A70142
:101DB0002D2D0E94040E81E001C080E0DF91CF91C3
:101DC0001F910F91FF90EF90DF90CF90BF90AF9059
:101DD00008956F927F928F929F92AF92BF92CF920F
:101DE000DF92EF92FF920F931F93DF93CF93CDB7C4
:101DF000DEB7A0970FB6F894DEBF0FBECDBF6C0163
:101E0000A62E8A017901FE01319680E2DF011D9242
:101E10008A95E9F770E030E060E040E050E04F0183
:101E2000A1E0B0E0F6018381F70183FD259183FFF6
:101E300021917F01222309F47EC02E3519F441152A
:101E4000510569F1872F90E08417950744F42D35EB
:101E500051F12D3221F4332329F431E021C0332311
:101E600009F4622F322F832F869586958695F4018B
:101E7000E80FF11D832F87703D0102C0660C771CAF
:101E80008A95E2F7208126292083361711F430E065
:101E900007C0361710F43F5FE6CF3150E4CF71E052
:101EA0004F5F5F4FBFCF332319F08E8180628E83E7
:101EB000772359F0FE0131969E012F5D3F4F8081BF
:101EC00080958193E217F307D1F7BB24B3944E01B9
:101ED0000894811C911CC6010E94FF10AC0197FD63
:101EE00022C0869586958695F401E80FF11D8081C4
:101EF00090E09A012770307002C0959587952A95D9
:101F0000E2F780FD05C0CA01B6010E946D110BC049
:101F10000115110519F0D8014D938D01AA94BB2428
:101F2000AA20C9F602C0BB2031F40115110529F021
:101F3000F801108202C0EE24FF24C701A0960FB65C
:101F4000F894DEBF0FBECDBFCF91DF911F910F91EF
:101F5000FF90EF90DF90CF90BF90AF909F908F90C9
:101F60007F906F9008956F927F928F929F92AF9221
:101F7000BF92CF92DF92EF92FF920F931F93CF9376
:101F8000DF935C016B013A01FC0117821682882401
:101F9000EAC0812F90E00E94D610892B21F0C50164
:101FA0000E943E0EE0C0153249F4F601F3FC659143
:101FB000F3FE61916F01653269F415E2C5010E947B
:101FC000FF1097FDDCC0181709F4CDC0B5010E94C1
:101FD0006D11DAC06A3219F0162F00E006C0F3FC6A
:101FE0001591F3FE11916F0101E099240FC0026079
:101FF000692D70E080E090E040E20E94100E962E85
:10200000F601F3FC1591F3FE11916F01212F20537E
:102010002A3068F301FD03C099249A9403C09920E3
:1020200009F4B2C0183621F01C3699F4F6010BC041
:10203000F601F3FC6591F3FE6191683619F06F01CA
:10204000162F07C008600460F3FC1591F3FE119190
:102050006F01112309F498C080E291E0612F70E0D4
:102060000E94DE10892B09F48FC0802F00FF03C06F
:10207000EE24FF2407C0F301E080F18022E030E08D
:10208000620E731E1E3651F4F5014681578160E0E1
:1020900070E0C701202F0E94040E65C0133691F432
:1020A00081FD02C099249394C5010E94FF1097FD01
:1020B00066C0E114F10419F0F70181937F019A944D
:1020C00099F74FC01B3559F4C501692DA701960139
:1020D0000E94E90E6C01009709F043C03DC0C501A4
:1020E0000E943E0E97FD4BC01F3659F1103728F461
:1020F000143629F1193639F527C0133719F0153779
:1021000011F51DC0C5010E94FF10EC0197FD11C023
:102110000E94D610892B29F0CE01B5010E946D11C5
:1021200008C0E114F10419F0F701C1937F019A94FA
:1021300049F7E114F104A9F0F701108212C000621E
:1021400003C0006101C00064C501692DA701202FF3
:102150000E94570E882329F4F5018381807379F456
:1021600013C000FF8394F501F380F601F3FC159191
:10217000F3FE11916F01112309F00BCF05C08820E8
:1021800019F42FEF3FEF02C0282D30E0C901DF9195
:10219000CF911F910F91FF90EF90DF90CF90BF9064
:1021A000AF909F908F907F906F90089591110DC187
:1021B000803219F089508550D0F70895FC010590C0
:1021C000061621F00020D9F7C00108953197CF01FC
:1021D0000895FC010590615070400110D8F780957A
:1021E00090958E0F9F1F0895FC01615070400190E3
:1021F0000110D8F7809590958E0F9F1F0895CF936B
:10220000DF93EC014B8140FF1AC046FF0AC04F7BB1
:102210004B838E819F8101969F838E838A81282F95
:102220002BC042FF13C0E881F9818081282F33271A
:1022300027FD30952115310529F440624B832FEF9E
:102240003FEF1BC03196F983E88311C0EA85FB8517
:10225000CE0109959C0197FF0AC09B812F5F3F4FDC
:1022600011F080E201C080E1892B8B83E8CF8E8161
:102270009F8101969F838E8330E0C901DF91CF91CA
:1022800008950F931F93CF93DF938C01EB018B8104
:1022900081FF1BC082FF0DC02E813F818C819D81FB
:1022A0002817390764F4E881F9810193F983E883F9
:1022B00006C0E885F985802F0995892B31F48E8138
:1022C0009F8101969F838E8302C00FEF1FEFC8018D
:1022D000DF91CF911F910F9108959C01FB018381A4
:1022E00080FF11C086FD0FC09FEF2F3F390759F0C7
:1022F000228380648F7D8383868197810197978372
:10230000868330E002C02FEF3FEFC9010895FA0144
:10231000AA27283051F1203181F1E8946F936E7F24
:102320006E5F7F4F8F4F9F4FAF4FB1E03ED0B4E015
:102330003CD0670F781F891F9A1FA11D680F791F56
:102340008A1F911DA11D6A0F711D811D911DA11D67
:1023500020D009F468943F912AE0269F1124301977
:10236000305D3193DEF6CF010895462F4770405D12
:102370004193B3E00FD0C9F7F6CF462F4F70405DC1
:102380004A3318F0495D31FD4052419302D0A9F71C
:10239000EACFB4E0A6959795879577956795BA9516
:1023A000C9F700976105710508959B01AC010A2EDC
:1023B00006945795479537952795BA95C9F7620FB3
:1023C000731F841F951FA01D0895992788270895BE
:0423D000F894FFCFAF
:1023D400F82573202D2D2D20202564000D0A2D2D88
:1023E4002D54574920496E697469616C6973696534
:1023F40072656E2D2D2D0D000D0A2D2D2D544D5071
:1024040032373520496E697469616C697369657224
:10241400656E2D2D2D0D000D0A2D2D2D496E69741F
:1024240069616C6973696572756E67656E20616256
:1024340067657363686C6F7373656E2D2D2D0D0066
:1024440054656D7065726174757220626574726131
:1024540065677420252E33660D0A002573202573C5
:102464000A0023676574646174610023424F446108
:102474007461007568686868682077697220736998
:102484006E642064696520446174656E21210023B3
:10249400454F4461746100236765746563686F0028
:1024A400236765746E6F64657300756E6B6F776E0A
:1024B40020636F6D6D616E640020626C61626C619B
:1024C400620020626C626C75626C75000000000230
:1024D40000000000CB070000000000000000000026
:1024E40000000001020203030303040404040404BF
:1024F400040405050505050505050505050505058A
:102504000505060606060606060606060606060669
:102514000606060606060606060606060606060657
:102524000606070707070707070707070707070739
:102534000707070707070707070707070707070727
:102544000707070707070707070707070707070717
:102554000707070707070707070707070707070707
:1025640007070808080808080808080808080808E9
:1025740008080808080808080808080808080808D7
:1025840008080808080808080808080808080808C7
:1025940008080808080808080808080808080808B7
:1025A40008080808080808080808080808080808A7
:1025B4000808080808080808080808080808080897
:1025C4000808080808080808080808080808080887
:1025D4000808080808080808080808080808080877
:0225E4000808E5
:00000001FF
