:100000000C9496000C94BE000C94BE000C94BE00A0
:100010000C94BE000C94BE000C94BE000C94BE0068
:100020000C94BE000C94BE000C94BE000C94BE0058
:100030000C94BE000C94BE000C94BE000C94BE0048
:100040000C94BE000C94BE000C94BE000C94BE0038
:100050000C94BE000C94BE000C94BE000C94BE0028
:100060000C94BE000C94CA1D0C94BE000C94BE00EF
:100070000C94BE000C94BE000C94BE000C94BE0008
:100080000C94500A0C94BE000C94BE000C94BE005C
:100090000C944D1D0C94901D0C94BE000C94BE004D
:1000A0000C94BE000C94BE000C94BE000C94BE00D8
:1000B0000C94BE000C94BE000C94BE000C94BE00C8
:1000C0000C94BE000C94BE000C94BE000C94BE00B8
:1000D0000C94BE000C94BE000C94BE000C94BE00A8
:1000E0000C94BE000C948F0B0C94850B0C94BF0CDD
:1000F0000C94970C0C94470C0C94BE000C946F0C51
:100100000C94990B0C94BE000C94BE000C94BE0091
:100110000C94BE000C94BE000C94BE000C947B0B9F
:100120006364696E6F70737578585B0011241FBE2D
:10013000CFEFD1E4DEBFCDBF14BE88E10FB6F89497
:1001400080936000109260000FBE1BE0A0E0B2E060
:10015000EEE0FCE600E00BBF02C007900D92AE326D
:10016000B107D9F71FE1AEE2BBE001C01D92A63393
:10017000B107E1F70E9470120C9405360C94000050
:1001800080E89EEF9093C5168093C41681E080931B
:10019000C616089528ED36E130934A172093491783
:1001A00093E09093D8169AE39093DB1690ED90939A
:1001B000D9169093DA1694E190934B17F90174963F
:1001C00090E89093EC161382128211821092F0162E
:1001D0001092F1161092F2168093F316245E3F4FA0
:1001E0003093310B2093300B8CE180934C17C90175
:1001F0004897089588ED96E190934A1780934917A0
:100200001092350B1092340B23E02093D81620EF78
:100210002093D91620ED2093DA1643969093310B54
:100220008093300B23E120934B1720934C1740977A
:10023000089528ED36E130934A172093491790939B
:10024000350B8093340B2D5F3F4F3093310B209350
:10025000300B93E09093D81680EF8093D9168DEDF4
:100260008093DA1690934B1790934C1708959C0146
:10027000805B904F0F97F0F480EF603B7807D0F0F1
:1002800080EF6F3B7807B0F4E091300BF091310BC9
:100290008BEF8083862F805B922F9295907F890FC2
:1002A00081833296F093310BE093300B80914B17A2
:1002B0008E5F12C0E091300BF091310B88EF80839C
:1002C00031832283738364833596F093310BE093FB
:1002D000300B80914B178B5F80934B17E091300B65
:1002E000F091310BF093330BE093320BCB01820F83
:1002F000931F918380838217930718F086179707BF
:1003000018F40196918380833296F093310BE09339
:10031000300B80914B178E5F80934B1780934C1757
:1003200008958091300B9091310B08952091300BFE
:100330003091310B280F311D3093310B2093300B4E
:1003400090914C17980F90934C1708957F928F922D
:100350009F92AF92BF92CF92DF92EF92FF920F9354
:100360001F93CF93DF9370904B178090300B90903A
:10037000310BA0914917B0914A171396B093310BE6
:10038000A093300B139710924B1711968C911197E5
:10039000682F70E086FD10C087FD07C01796B093E8
:1003A000310BA093300B17970FC01696B093310BFB
:1003B000A093300B169708C087FD06C01496B09323
:1003C000310BA093300B149765FF05C029E130E095
:1003D00040E050E00DC0E091300BF091310B819185
:1003E000282F30E040E050E0F093310BE093300BE9
:1003F00012968C91C82FD0E080915C1890915D1876
:1004000092605C01CC24DD24CE0180739070B4E056
:1004100095958795BA95E1F7FC01EE0FFF1FE80F60
:10042000F91FEC53F94E808191817C0100E010E0CE
:1004300080915E1890915F18A0E0B0E0E80EF91E80
:100440000A1F1B1F8FEF9EEFA0E0B0E0E80EF91E21
:100450000A1F1B1FEA0CFB1C0C1D1D1DE20EF31EC8
:10046000041F151F68717070672B49F48091300B61
:100470009091310B01969093310B8093300BCE010C
:100480008C7090708430910509F45FC085309105BF
:1004900024F4892B09F482C097C088309105D1F0EB
:1004A0000C9709F091C0CE0183709070FC01EE0FA3
:1004B000FF1FE80FF91FEC53F94E80819181A0E0F6
:1004C000B0E081509140AF4FBF4F8A0D9B1DAC1DD6
:1004D000BD1D36C0E091300BF091310B4081218180
:1004E00047FD20C030E0942F80E0282B392B442793
:1004F00037FD4095542FCE0183709070FC01EE0FB4
:10050000FF1FE80FF91FEC53F94E80819181A0E0A5
:10051000B0E0280F391F4A1F5B1FE20EF31E041FB5
:10052000151F52C0822F90E0A0E0B0E080509140B3
:10053000AF4FBF4F46954F70840F911DA11DB11D48
:10054000E80EF91E0A1F1B1F3FC0CE01837090707A
:10055000FC01EE0FFF1FE80FF91FEC53F94E8081ED
:100560009181A0E0B0E0E80EF91E0A1F1B1FE09188
:10057000300BF091310B40E0308120E08181D901D6
:10058000A80FB11DCD01A0E0B0E0E80EF91E0A1FD2
:100590001B1F4E5F3296483079F716C0E091300B42
:1005A000F091310B40E0308120E08181B901680F8A
:1005B000711DCB01A0E0B0E0E80EF91E0A1F1B1F61
:1005C0004E5F3296403179F79092310B8092300B2A
:1005D00070924B1780914C1790E0871991099C01FC
:1005E000442737FD4095542F2E0D3F1D401F511FAE
:1005F00008C0CA01AA27BB27820F931F9C0140E0B5
:1006000050E0DA01C901807090700097A105B10532
:1006100081F7C901DF91CF911F910F91FF90EF906A
:10062000DF90CF90BF90AF909F908F907F90089574
:100630009C0141505040460F571FFB010EC0708176
:1006400060E08181DB01A80FB11D2A0F3B1F2A1733
:100650003B0710F42F5F3F4F3296E417F50778F30E
:10066000E417F50749F4908180E0280F391F281717
:10067000390710F42F5F3F4FC9010895DF92EF92C1
:10068000FF920F931F93CF93DF930E94A601C09117
:10069000320BD091330B2881398140E050E0D0906B
:1006A0004B1760914C17E62FF0E0ED19F1093896E1
:1006B0007F010027F7FC0095102F3897E20EF31EFC
:1006C000041F151FA0E0B0E0E80EF91E0A1F1B1F53
:1006D00008C0C801AA27BB278E0D9F1D7C0100E022
:1006E00010E0D801C701807090700097A105B10596
:1006F00081F76091491770914A176D0D711DC701FF
:10070000AF010E941803382F292F20953095398387
:100710002883232B21F48FEF9FEF998388834091C7
:10072000491750914A178091340B9091350B609185
:100730004C170E94F30FDF91CF911F910F91FF9003
:10074000EF90DF9008950E94A60120914B1730E0B2
:100750006091491770914A17620F731F40914C17AF
:1007600050E0421B530B0E941803409149175091CF
:100770004A1720914B17FA01E20FF11D382F292F4C
:100780002095309533832283232B21F48FEF9FEF25
:100790009383828380E090E060914C170E94F30F76
:1007A0000895E8EDF6E1F0934A17E093491783E0E6
:1007B0008093D8168AE38093DB1688ED8093D91650
:1007C00088EC8093DA1684EA8093DC1682E08093CA
:1007D000DD16DF011696B093310BA093300B86E047
:1007E00080934B1785E88093DE1611961C92119723
:1007F0001092E2161092E3161092E4161092E5168B
:1008000086E180934C173E96F0932F0BE0932E0BCE
:1008100081E08093E616818380915F1882838091C6
:100820005E188383148215821682178213961C9297
:100830001E9212970E94A60120914B1730E0609102
:10084000491770914A17620F731F40914C1750E07F
:10085000421B530B0E9418034091491750914A17AD
:1008600020914B17FA01E20FF11D382F292F209507
:1008700030953383228380E090E060914C170E9492
:10088000F30F0895CF93DF93FC0188ED96E19093E9
:100890004A178093491723E02093D8161092DA164E
:1008A0002AE32093DB1604969093310B8093300B50
:1008B00088ED8093D91686818295807F806C8093A5
:1008C000DA169481982B9093DA168581982B909361
:1008D000DA16928590934B17E92FF0E0EF01C8529A
:1008E000D94E88E888831982DF01A452B94E119647
:1008F0001C92119712961C92129713961C921397A2
:10090000662319F080E48C9301C01C92905E909352
:100910004C17E051F94EF0932F0BE0932E0B82E031
:10092000808381E0818380915F18828380915E184B
:10093000838314821582168217821B821A820E9478
:10094000A60120914B1730E06091491770914A172A
:10095000620F731F40914C1750E0421B530B0E94D3
:1009600018034091491750914A1720914B17FA01EB
:10097000E20FF11D382F292F2095309533832283E4
:1009800080E090E060914C170E94F30FDF91CF91CF
:1009900008950F931F93CF93DF938C0180E092E033
:1009A0000E945A2FF80180818F3FD1F580914B171B
:1009B000282F30E02C5F3F4F80914C17C82FD0E09C
:1009C000A0914917B0914A174CE024C0FD01E60FF1
:1009D000F71F9181992321F180818330B9F47096BA
:1009E00080E090E0BF0140E150E00E9418039C01CC
:1009F0008091C9168823A1F43093C8162093C71696
:100A000081E08093C91680932C020AC0990F990F38
:100A1000990F490FB901640F711D6C177D07B4F26E
:100A2000DF91CF911F910F910895CF92DF92EF92B6
:100A3000FF920F93DF93CF93CDB7DEB72B970FB60F
:100A4000F894DEBF0FBECDBF6C01062F7EE0E72E0F
:100A5000F12CE80EF91EF0924A17E09249176093C4
:100A60004C1710924B1721E130E0C20ED31ED092EA
:100A7000310BC092300B4FEE5FEFC40ED51EF60166
:100A80008685833009F0E9C1F70182818C708C3052
:100A900009F0E3C1818186FD1AC087FD0BC025E105
:100AA00030E0C20ED31ED092310BC092300B4BEE11
:100AB0005FEF19C084E190E0C80ED91ED092310BCF
:100AC000C092300BECEEFFEFCE0EDF1E0EC087FDA6
:100AD0000CC022E130E0C20ED31ED092310BC09286
:100AE000300B4EEE5FEFC40ED51EF701818185FFFE
:100AF00003C081E18C830AC0E091300BF091310B8F
:100B000081918C83F093310BE093300B2091300B6B
:100B10003091310B2A833B83F701818190E088710A
:100B200090708830910561F0893091051CF4892B13
:100B300071F014C08031910529F0489779F405C00F
:100B400081E001C080E4898309C08FEFFCCFF90107
:100B500081918983F093310BE093300BF70182810F
:100B6000282F23702D8390E09C01207C307064E05E
:100B7000359527956A95E1F728878073907054E042
:100B8000959587955A95E1F78F83E091300BF09119
:100B9000310BFA87E987243051F0283019F02223ED
:100BA00041F00CC0808187FD58C1329603C0389651
:100BB00001C07096F093310BE093300B2EE030E0E3
:100BC000C20ED31E8091300B8C1942EF5FEFC40E22
:100BD000D51E80934B178B878C818A3309F07FC099
:100BE0008BE192E00E945A2F80914B17E0914917B8
:100BF000F0914A17E80FF11D80818038D9F571987E
:100C0000699A8AE090E063E975E10E94AF09109269
:100C10004B17E0914917F0914A178181887111F4BF
:100C200080E48483E0914917F0914A1780914B1733
:100C3000DF01A80FB11D9D819295907F906C129657
:100C40009C9312978F812885822B892B12968C93E7
:100C50008B8580934B17E80FF11D81E8808382819B
:100C6000938101979383828380E090E0602FA701B6
:100C70000E94F30F80914B17E0914917F0914A17AA
:100C8000E80FF11D8081813839F4E091300BF0914B
:100C9000310B87810E94DA0880914B17E091491748
:100CA000F0914A17E80FF11D8081863821F4CE01BA
:100CB00001960E94C90480914B17E0914917F09169
:100CC0004A17E80FF11D8081873849F48F818D83A1
:100CD00088858E83CE01019661E00E9442048C815A
:100CE000813109F0BAC0A091300BB091310B8C91D9
:100CF0008B3F69F51196B093310BA093300B119790
:100D000011968C911197282F22952F70E22EFF2497
:100D1000E0EBF0EFEE0EFF1E90E0BC016F70707024
:100D200060557F4034E0880F991F3A95E1F7282BF2
:100D300011962C938091300B9091310B01969093EA
:100D4000310B8093300B80914B178E5F21C0883F11
:100D500009F083C0FD0131961196FC901197E18056
:100D600013967C91139714966C91149711967C931B
:100D7000119761831396FC9213971496EC92149733
:100D80001596B093310BA093300B80914B178B5F6E
:100D900080934B17E091300BF091310BF093330BB4
:100DA000E093320BCB018E0D9F1D918380838E15B6
:100DB0009F0518F08617970718F401969183808392
:100DC0004091300B5091310B4E5F5F4F5093310B80
:100DD0004093300B80914B178E5F80934B1720917F
:100DE0004C17281B01E7081BC7017E010894E11C72
:100DF000F11C0E94AC07382F882379F180914B17A2
:100E00008B8710924B17E0914917F0914A17918107
:100E1000892F887129F4EA81FB8180E4808303C0F3
:100E2000977E9061918380914B17E0914917F091E3
:100E30004A17E80FF11D9D819295907F906C9283E7
:100E40008F812885822B892B82838B8580934B17FA
:100E5000830F80934C170E943E032B960FB6F89495
:100E6000DEBF0FBECDBFCF91DF910F91FF90EF900E
:100E7000DF90CF9008950E9415050895EF92FF929C
:100E80000F931F93FC01009729F480E090E0A1E00C
:100E9000B0E035C0E0903E0CF0903F0C0091400C6B
:100EA0001091410C40913C0C50913D0CDA01A45C36
:100EB000B44F262F03C081918D9321502223D9F75F
:100EC0009A01260F311D30933D0C20933C0C2F3F8F
:100ED000310509F010F46034F1F0D801C7018050F9
:100EE0009F4FAF4FBF4F80509F4FA140B04098F4ED
:100EF000C901A0E0B0E08E0D9F1DA01FB11F80931F
:100F00003E0C90933F0CA093400CB093410C109278
:100F10003D0C10923C0C1F910F91FF90EF900895A3
:100F2000089508951092370B0E94FA00DC01EEE656
:100F3000F2E080E101900D928150E1F781EB90EFBA
:100F400060EB70EF0E9437010E94910180E00E94E7
:100F500096010E943E030895CF92DF921F93CF9394
:100F6000DF93DA01E22FE60140EF603B740739F4CA
:100F7000CD016DE272E00E94DC2EE3E114C150EF7E
:100F8000633B750739F4CD0161E472E00E94DC2E09
:100F9000EBE009C180EF643B780709F404C16534D4
:100FA000710509F0CFC08C91882309F0FBC0119620
:100FB0008C911197823009F089C09D012E5F3F4FBF
:100FC000E90101C0EF01FE0181918823D9F78081F9
:100FD0008F3609F0E7C08181833609F0E3C0828152
:100FE000843709F0DFC08381853609F0DBC0848156
:100FF000843709F0D7C08581882309F0D3C0FE016A
:1010000037968F81823609F0CDC081818C3609F008
:10101000C9C082818B3609F0C5C01381133709F02E
:10102000C1C07481793609F0BDC065816A3709F0A5
:10103000B9C05681553609F0B5C08781882309F0BB
:10104000B1C04085463309F0ADC09185943309F0B5
:10105000A9C08285882309F0A5C01C9286E011965C
:101060008C93119782E612968C93F90131968CE657
:10107000D90111968C93DF0111968BE68183FD01D6
:10108000319611961C93DF0111967183FD01319603
:1010900011966C93DF0111965183FD0131961196E3
:1010A0001C92DF011196418311969C931197129621
:1010B0001C9280E090E060E00E943E0781E090E0BA
:1010C0009093430C8093420CEDE06DC0833009F0A7
:1010D00069C013962C91139712969C91129780E0F9
:1010E000AC01420F511D9A018091420C9091430C2A
:1010F0004817590789F484E011968C9311972F5F54
:101100003F4F3093430C2093420CE450CD010496A2
:101110006E2F0E943E0706C04817590728F484E046
:1011200011968C93E4E03FC085E011968C93119763
:1011300012961C92129713961C92139714961C9257
:10114000E5E031C050EF6B3B750731F46B857C8572
:10115000CD010E94722626C080EF6C3B780731F4E7
:101160006B857C85CD010E94FE251CC040EF6D3B48
:10117000740739F44B855C85CD01622F0E94231FD3
:1011800011C06E5B704F39F44B855C85CD01622FC9
:101190000E94CD1E07C0CD016DE472E00E94DC2EDE
:1011A000EEE001C0E0E08E2FDF91CF911F91DF9044
:1011B000CF900895CF93DF930E942009A0E0B0E084
:1011C0008093440C9093450CA093460CB093470C2D
:1011D0002DB73EB7285030400FB6F8943EBF0FBE33
:1011E0002DBFEDB7FEB7319628E43CE0CDB7DEB7B2
:1011F0003A8329832CE532E0338322832091380B14
:101200003091390B40913A0B50913B0B821B930B61
:10121000A40BB50B84839583A683B7830E948F2F7D
:101220008093370B2DB73EB7285F3F4F0FB6F8942A
:101230003EBF0FBE2DBF0E949C15DF91CF91089538
:10124000DF93CF930F92CDB7DEB78FB78983F89432
:101250002091A40C3091A50C89818FBFC9010F90FA
:10126000CF91DF9108959091610C9F5F09F491E017
:10127000E5E6FCE021E08081891709F420E035965D
:101280008CE0E739F807B9F78091970C891709F4D2
:1012900020E080919C0C891709F420E08091A10C3A
:1012A000891719F3222309F39093610C892F08956C
:1012B0000F931F93DF93CF930F92CDB7DEB79C01AF
:1012C000FB01009711F4099516C08091950C90913F
:1012D000960C892B11F480E011C080919A0C9091AA
:1012E0009B0C892B11F481E009C080919F0C909197
:1012F000A00C892B11F090E02BC082E090E08C01D3
:10130000000F111F000F111F080F191F0B56134F4D
:10131000D80111963C932E931496FC93EE93139759
:101320000E943309982FF80182838FB78983F8943C
:101330008091620C882351F41092950010929400D1
:1013400082E08093710081E08093620C89818FBF7D
:10135000892F0F90CF91DF911F910F9108950F93D7
:101360001F93DF93CF930F92CDB7DEB7AC010097F9
:1013700019F4FB01099537C08FB78983F894E3E628
:10138000FCE000E080819181892B49F5202F30E03D
:10139000F901EE0FFF1FEE0FFF1FE20FF31FED59D4
:1013A000F34FCA014115510511F481E090E091839A
:1013B00080838901000F111F000F111F020F131FDF
:1013C0000D59134FF801748363830E943309982FDA
:1013D000F80182838091620C882339F010C00F5F7E
:1013E00035960A3079F690E00CC010929500109274
:1013F000940082E08093710081E08093620C898187
:101400008FBF892F0F90CF91DF911F910F9108957A
:10141000982FE5E6FCE020E030E08081891769F450
:10142000F901EE0FFF1FEE0FFF1FE20FF31FED5943
:10143000F34F11821082128208952F5F3F4F35962D
:101440002A30310551F78091970C891719F480E003
:1014500090E00DC080919C0C891719F481E090E018
:1014600006C08091A10C891771F482E090E0FC0124
:10147000EE0FFF1FEE0FFF1FE80FF91FEB56F34FA4
:101480001182108212820895E1E9F0E080818A6081
:10149000808388EE93E0909399008093980008955C
:1014A0001F920F920FB60F920BB60F921124DF927C
:1014B000EF92FF920F931F932F933F934F935F935E
:1014C0006F937F938F939F93AF93BF93EF93FF930C
:1014D000DF93CF9300D000D00F92CDB7DEB78091CD
:1014E000A40C9091A50C01969093A50C8093A40C4C
:1014F00080919E0290919F02019790939F0280930A
:101500009E02892B49F003E61CE026E1D22E7E01E3
:101510000894E11CF11C27C088EE93E090939F0291
:1015200080939E0205E91CE096E1D92E7E01089485
:10153000E11CF11CF80180819181009769F001970D
:1015400091838083892B41F4D982838194819B8309
:101550008A83C7010E9435100B5F1F4FFCE0043ADD
:101560001F0741F7D0CFF80180819181009769F082
:10157000019791838083892B41F4D982838194815F
:101580009B838A83C7010E9435100B5F1F4FFCE0CD
:1015900005391F0741F70F900F900F900F900F9094
:1015A000CF91DF91FF91EF91BF91AF919F918F917B
:1015B0007F916F915F914F913F912F911F910F916B
:1015C000FF90EF90DF900F900BBE0F900FBE0F902B
:1015D0001F901895089580E1809335018093340120
:1015E0008093330180933201EEE4F1E080818460E6
:1015F0008083808188608083808180648083808113
:1016000080618083A1E5B1E08C9180648C938081BE
:101610008260808380818160808380818068808314
:101620000895FC0180810895FC0160830895FC0108
:101630008081862390E002C0959587954A95E2F7D0
:101640000895FC019081862F8095892330E002C0A7
:10165000220F331F4A95E2F76223862B8083089579
:10166000DF93CF930F92CDB7DEB7982FFA018FB7E4
:101670008983F89428981EBC0DB407FEFDCF8EB563
:101680009EBD0DB407FEFDCF8EB51EBC0DB407FE8A
:10169000FDCF8EB58083615011F03196F6CF289A38
:1016A00089818FBF0F90CF91DF910895DF93CF9302
:1016B0000F92CDB7DEB7982FFA018FB78983F894D0
:1016C000289880E48EBD0DB407FEFDCF8EB59EBD7B
:1016D0000DB407FEFDCF8EB581918EBD0DB407FE12
:1016E000FDCF8EB56150C1F7289A89818FBF0F90C9
:1016F000CF91DF9108951F920F920FB60F92112490
:101700000F900FBE0F901F9018951F920F920FB65B
:101710000F9211240F900FBE0F901F9018951F92DB
:101720000F920FB60F9211240F900FBE0F901F90C3
:1017300018951F920F920FB60F9211240F900FBEA3
:101740000F901F9018950895DF93CF930F92CDB708
:10175000DEB7FC01362FCA012FB72983F894BF01E9
:10176000432F50E00E94CB3489818FBF0F90CF91DF
:10177000DF910895DF93CF930F92CDB7DEB7FC01D1
:10178000362FCA012FB72983F894BF01432F50E0A9
:101790000E94BB3489818FBF0F90CF91DF91089554
:1017A000DF92EF92FF920F931F93DF93CF9300D0BE
:1017B000CDB7DEB78091A60C882311F011E05CC094
:1017C00081E08093A60CD0906600F89461E00E94BE
:1017D000B512E090B100F09081000091800010926D
:1017E000B100109281001092800020E030E063E0B0
:1017F00056E04FEF6093B100509381001092B20019
:10180000109285001092840046BB47BBB89BFECF68
:1018100080918400909185009A8389831092810041
:101820001092B10089819A818A5F934020F480915F
:10183000660081500AC089819A818650944010F4D4
:1018400011E00CC0809166008F5F809366002F5F6F
:101850003F4F83E0283E380769F610E081E060E002
:101860000E94B512E092B100F092810000938000D6
:10187000112311F4D0926600812F0F900F90CF9119
:10188000DF911F910F91FF90EF90DF9008951F92CD
:101890000F920FB60F920BB60F9211242F933F9316
:1018A0004F935F936F937F938F939F93AF93BF9368
:1018B000EF93FF930E942211FF91EF91BF91AF919F
:1018C0009F918F917F916F915F914F913F912F9158
:1018D0000F900BBE0F900FBE0F901F9018951F9288
:1018E0000F920FB60F920BB60F9211242F933F93C6
:1018F0004F935F936F937F938F939F93AF93BF9318
:10190000EF93FF930E943115FF91EF91BF91AF913B
:101910009F918F917F916F915F914F913F912F9107
:101920000F900BBE0F900FBE0F901F9018951F9237
:101930000F920FB60F920BB60F9211242F933F9375
:101940004F935F936F937F938F939F93AF93BF93C7
:10195000EF93FF930E949714FF91EF91BF91AF9186
:101960009F918F917F916F915F914F913F912F91B7
:101970000F900BBE0F900FBE0F901F9018951F92E7
:101980000F920FB60F920BB60F9211242F933F9325
:101990004F935F936F937F938F939F93AF93BF9377
:1019A000EF93FF9380917B010E94E413FF91EF91ED
:1019B000BF91AF919F918F917F916F915F914F9167
:1019C0003F912F910F900BBE0F900FBE0F901F9065
:1019D0001895DF93CF930F92CDB7DEB7282F792FCD
:1019E000462F8FB78983F894E9E3F1E08081826024
:1019F000808380818D7F80836093800181E891E086
:101A0000622F50E00E94BF2E89818FBF0F90CF912F
:101A1000DF910895CF92DF92EF92FF920F931F9381
:101A2000DF93CF930F92CDB7DEB70E942B227C01BC
:101A30000097B1F18FB78983F89400917B01802FD3
:101A4000835090E8C92ED12CCE0CDF1C8D3798F432
:101A5000F701019310E0980121503040CF0160E878
:101A600071E0A9010E94BF2E00581E4FF80180812D
:101A7000F601808313C0F7011082F601108281E81D
:101A800090E0E80EF91EF70110828FE79FEFE80E55
:101A9000F91EC7010E945522EE24FF2489818FBFC1
:101AA000C7010F90CF91DF911F910F91FF90EF90A1
:101AB000DF90CF900895809365180E94AD1308952C
:101AC0001F93182F8FEF9FEF90935D1880935C18F2
:101AD00090935F1880935E18109259189093611834
:101AE0008093601890936318809362181092641822
:101AF0001092681881E0809369180E94671510930E
:101B000065181F3F19F0812F0E94AD1381E00E94DC
:101B1000071388E00E94FC130E94CB1287E591E036
:101B200064E042E021E00E94210B86E10E94FC1368
:101B300080E090E068E041E558E10E94BA0B80E067
:101B40000E94FF128FEF9FEF0E94E3128FEF9FEF33
:101B50000E94F1128CE691E060EF44E022E00E94E6
:101B6000210B81E598E10E94CC120E94E40D80EAED
:101B700092E00E945A2F1F910895089580E090E00E
:101B8000089580E008958FEF9FEF089580E0089515
:101B900080E008950895089580E090E0089580E041
:101BA00090E0089580E090E0089580E090E008954E
:101BB00080E090E008950895089580E090E0089511
:101BC000089580E090E00895089508950895FC0137
:101BD00085858F778587089580E090E0089580E07F
:101BE00090E0089521E0FC0184E0EE0FFF1F8A954C
:101BF000E1F7E855F34F8081882331F081859285A4
:101C0000009719F02F5FEFCF20E0822F0895719891
:101C1000699A83EB92E00E945A2F8091A70C0E9450
:101C2000080A8091591891E089270E94D71A0895CF
:101C300088EE93E067E07EE00E94AF098093A70CF6
:101C40000895AF92BF92DF92EF92FF920F931F938E
:101C5000DF93CF9300D000D00F92CDB7DEB75C01F9
:101C6000D62E0E942B227C010097C9F18C010F5FB8
:101C70001F4F8D2D0E945B0D83E698ECF701928338
:101C8000818380915B18F80182838F5F80935B185A
:101C900080915C1890915D1894838383B682A582AD
:101CA000D7011896E1E5F8E188E001900D928150A6
:101CB000E1F781E0F8018787B18AA08A83E0828B0F
:101CC00083E1F70180838AE18983FB82EA8288E1EC
:101CD0009EE09D838C83CE0101960E9435100F906B
:101CE0000F900F900F900F90CF91DF911F910F9158
:101CF000FF90EF90DF90BF90AF9008950895DF932D
:101D0000CF9300D0CDB7DEB70F900F90CF91DF917A
:101D100008950895CB010E9455220895EF92FF92F5
:101D20000F931F93DF93CF9300D000D00F92CDB7C6
:101D3000DEB70E942B227C01009709F442C08C017F
:101D40000F5F1F4F81E698E8F701928381838091AE
:101D50005B18F80182838F5F80935B1880915C1819
:101D600090915D189483838380915E1890915F18A1
:101D700090878783948783878091A80C9091A90C82
:101D8000928781878091AA0C85870E94AB12F80107
:101D900086870E94AE12F801878780E1F701808371
:101DA0008091601890916118F801968385838AE18B
:101DB0008983FB82EA821D821C82CE0101960E94E9
:101DC00035100F900F900F900F900F90CF91DF91E3
:101DD0001F910F91FF90EF900895282F80915E182A
:101DE00090915F186817790789F0809159188823B6
:101DF00069F07093A90C6093A80C2093AA0C109220
:101E0000AB0C0E948E0E81E08093681808958F922B
:101E10009F92AF92BF92CF92DF92EF92FF920F9379
:101E20001F93DF93CF9300D000D00F92CDB7DEB7D2
:101E30007C01B62E4A01A22E80915E1890915F1807
:101E4000E816F90609F476C08FEFE8168FEFF8066A
:101E500009F470C080915918882309F46BC00E945E
:101E60002B226C01009709F465C08C010F5F1F4F96
:101E700081E698E8D60112969C938E9311978091F3
:101E80005B18F80182838F5F80935B1880915C18E8
:101E900090915D189483838380915E1890915F1870
:101EA00090878783F286E18694878387C7010E94A3
:101EB0000B11F6E0AF1631F4D8011696FC92EE92B3
:101EC000159707C08091601890916118F80196836A
:101ED0008583D8011D96AC9290E008C0F801E90F07
:101EE000F11DD4018D914D0186879F5F9B15B0F345
:101EF000F8012581368180915E1890915F1828172E
:101F0000390719F02F5F3F4F21F4C6010E94552277
:101F100011C08EE0B80ED601BC928AE18983DB82C3
:101F2000CA821D821C82CE0101960E94351081E07A
:101F3000809368180F900F900F900F900F90CF9193
:101F4000DF911F910F91FF90EF90DF90CF90BF90A6
:101F5000AF909F908F900895FC01DC0111961D9623
:101F60008C911D9790E08F7790708330910571F17F
:101F70008430910534F48130910549F0029791F550
:101F80001EC08530910549F1069761F503C00E9496
:101F9000AD1508951092691880916018909161189C
:101FA00062E04EE558E126E00E94070F6091341F81
:101FB0007091351F85ED92E00E941D2F08951B96AC
:101FC0008D919C911C970E94571908951B968D9195
:101FD0009C911C970E948E1B089560816051CD01D9
:101FE0000E943B07089525E00E94070F089521E015
:101FF0000E94070F0895AC01DC010D900020E9F765
:10200000A81B80E090E06A2F27E00E94070F089548
:10201000909192188091931820E0981321E0822FDC
:102020000895DF93CF9300D0CDB7DEB78FB7898304
:10203000F894809193188A839A818A818F5F8A832A
:102040008A81843108F01A828A8180939318898169
:102050008FBF25E0929F900111242C56374EC90165
:102060000F900F90CF91DF9108950F931F93DF93FF
:10207000CF930F92CDB7DEB78C018FB78983F894D9
:10208000809192182091931890E0019664E170E09D
:102090000E946C2E30E08217930741F4F801818191
:1020A00092810097F9F00E9455221CC0209192184D
:1020B000822F90E0FC01EE0FFF1FEE0FFF1FE80FD5
:1020C000F91FEC56F74ED80185E00D900192815032
:1020D000E1F7822F8F5F843108F080E080939218BF
:1020E00089818FBF0F90CF91DF911F910F9108953C
:1020F0001F93CF93DF9311E083C00E941110EC0176
:102100008881853109F478C0863180F4813109F401
:1021100065C0823120F4803109F072C026C083315D
:1021200009F459C0843109F06BC011C0883199F1AC
:10213000893130F48631A9F0873109F061C05CC083
:10214000893109F459C08A3109F05AC04AC08091D6
:102150005918882309F054C089819A810E947C1102
:102160004BC0E981FA8109954BC0809159188823A9
:1021700009F446C0E981FA812285338580915E1891
:1021800090915F182817390721F4CF010E94AC0FF6
:1021900033C0CF0133C0E981FA81DF01119681811B
:1021A000928183569C4861F5109359181D968D9124
:1021B0009C911E97909361188093601850968D9112
:1021C0009C91519790935F1880935E180E94E31240
:1021D0000E94070E11C00E94AB1512C00E949D15EF
:1021E0000FC0E981FA818191BF010E946F14EB81D8
:1021F000FC81309709F0099589819A810E945522C6
:102200009091921880919318981709F076CFDF91EA
:10221000CF911F91089580E008950E94552208955E
:102220000E94552208950E94552208950E94552229
:1022300008958091AC0C08958093010308958091D6
:1022400001030895089508951F9310E08091FD18EB
:102250008F3FE1F011E08091F9189091FA18909376
:102260005D1880935C182091FB183091FC18309316
:102270006118209360180E94F1128091FD180E944D
:102280005B0D809101198F5F80936418812F0E94EC
:10229000F2181F910895FC01DC011196E058FF4FE0
:1022A000208111968C9111978295869586958370E1
:1022B0008093F81813968D919C9114979093FA1827
:1022C0008093F91815968D919C9116979093FC1810
:1022D0008093FB181A968C91809301198091651850
:1022E00081508093FD181092FE18209302190E94CD
:1022F000AB12809303190895FF920F931F93082F39
:10230000F92EE82FF92FE058FF4F4081E058F040B8
:102310008091AC0C882359F131962091FF183091AF
:10232000001987819085909300198093FF18809100
:10233000001987FF05C0309300192093FF1817C0BC
:1023400080910219841778F0841789F4909101190B
:102350008285891740F0981751F4109103190E9453
:10236000AB12181720F4802F9F2D0E944B111F9144
:102370000F91FF90089584E190E062EC71E10E947A
:10238000AF0908950F931F93DF93CF9300D000D030
:102390000F92CDB7DEB724E1209301039091651829
:1023A0009F3F09F048C081E08093AC0C86E1E8EFE4
:1023B000F8E1DF011D928A95E9F79093FD182093CB
:1023C00065186091341F7091351F8DED92E00E9469
:1023D0001D2F00D000D000D0EDB7FEB731960AE631
:1023E00018E1ADB7BEB712961C930E93119783EE0A
:1023F00092E09383828384E190E0958384830E94BA
:102400008F2F0F900F908091341F9091351FEDB753
:10241000FEB792838183148303830E940C2F0F9055
:102420000F900F900F906091341F7091351F86EEC2
:1024300092E00E941D2F409165184B3148F4242FE3
:1024400030E08091010390E001962817390761F48C
:102450001092AC0C8FEF809365180E94241189EEC6
:1024600092E00E945A2F31C0842F0E945B0D0E947F
:102470002B22DC01009721F1FC01319683E098E0EA
:1024800012969C938E93119780915A1882838F5F36
:1024900080935A188FEF9FEF94838383968385836D
:1024A00087E0878388E08C938AE18983BB83AA8352
:1024B0008BEB91E19D838C83CE0101960E943510B8
:1024C000809165188F5F809365180F900F900F9023
:1024D0000F900F90CF91DF911F910F910895089564
:1024E0000E94182B0E941B2282E060E042E00E94C2
:1024F000292982E061E042E00E94292981E062E02E
:1025000042E00E94292981E063E042E00E942929FB
:1025100081E064E042E00E9429290E94A30B60E070
:1025200072EC81E090E00E94BE2A0E946F2680E05B
:1025300090E00E943A1C0E94440A0E94821F0E945E
:102540000B2482E093E00E945A2F78940E94591F36
:102550000E947810FACF8091AE0C08958091B00C53
:1025600008958091AF0C8B55089580E40895E9E3B8
:10257000F1E080818E7F808380818D7F80838DE0FC
:1025800090E00197F1F7808181608083089580E079
:1025900008950895089508950F931F93CF93DF939F
:1025A0008C01C4E6D1E0F80161918F01CE010E9457
:1025B000140B2196F1E0CC36DF07A9F7DF91CF911C
:1025C0001F910F9108951F93682F192F80E691E0B6
:1025D0000E94140B81E691E0612F0E94140B1F9161
:1025E00008951F93682F192F82E691E00E94140B23
:1025F00083E691E0612F0E94140B1F910895282F0C
:102600008EE691E068E043E00E94210B0895282FB8
:1026100084E491E060E245E00E94210B0895E9E343
:10262000F1E080818D7F80838DE090E00197F1F76C
:1026300082E491E06FE140E023E00E94210B83E01F
:1026400090E00197F1F70895282F803110F082E48F
:1026500008958091390181FF02C084E4089585E4E2
:1026600091E06FE040E00E94210B80E4089581E456
:1026700091E06FE140E00E94170B089581E491E042
:102680006FE140E00E94170B282F8151823058F0F3
:10269000223049F0213039F080E090E0213129F4F6
:1026A00081E090E0089581E090E008958091390103
:1026B00081FD02C080E40895809139018D7F80936F
:1026C000390181EE96E00197F1F781E491E06FE145
:1026D00040E00E94170B883069F383E408958091ED
:1026E000390181FF02C080E408950E940F138BE43A
:1026F00090E00197F1F781E491E06FE140E00E9402
:10270000170B883011F083E40895809139018260BD
:102710008093390180E40895CF93DF93EC0181E445
:1027200091E06FE140E00E94170B863021F081308C
:1027300011F084E408C086E491E06FE140E00E947B
:10274000170B888380E4DF91CF91089588E491E0AE
:102750006FE140E00E94170B08951F93182F8B50D4
:10276000803110F082E42EC08091390181FF02C0D7
:1027700084E428C088E491E06FE140E00E94170BF8
:102780008117F9F088E491E06FE140E0212F0E9489
:10279000210B81E491E06FE140E00E94170B86304D
:1027A00011F0893021F48DE291E00197F1F788E48E
:1027B00091E06FE140E00E94170B811711F083E474
:1027C00001C080E41F91089586E491E06FE140E04C
:1027D0000E94170B8093AE0C109268180895809198
:1027E000AD0C882331F48CE591E00E94110B8093AD
:1027F000AD0C8091AD0C08950F931F93182F883066
:1028000051F0863041F0893031F0863121F0893144
:1028100011F082E461C08091390181FF02C084E43B
:102820005BC00E943E138823E1F70E94EF138230C1
:1028300039F40E941911882319F0163109F416E0B1
:1028400081E491E06FE140E00E94170B082F181718
:1028500009F441C0183019F40E940F1332C0193125
:1028600061F48930F1F082E491E06FE140E029E029
:102870000E94210B063189F40DC0163191F4893084
:1028800081F082E491E06FE140E029E00E94210BB9
:10289000093119F483E090E002C089E691E00197E4
:1028A000F1F782E491E06FE140E0212F0E94210BDB
:1028B000083019F489E691E002C083E090E00197C6
:1028C000F1F781E491E06FE140E00E94170B81177E
:1028D00011F083E401C080E41F910F9108951F93CC
:1028E000CF93DF93182FEB0187FF02C082E41BC058
:1028F0000E943E138823E1F789E10E94FC1381E4E2
:1029000091E06FE140E00E94170B8931A9F78D81BA
:102910009E8190936718809366181E5FCE01612F89
:102920000E94E90C80E4DF91CF911F9108950F93ED
:102930001F93DF93CF9300D000D00F92CDB7DEB7B7
:1029400087E491E00E94110B8093AF0C0E940A0D66
:102950008C01009709F47BC000581F4FF80190814B
:10296000005810402091AF0C253510F024E503C02D
:10297000222309F421E092959695969593708FEF16
:10298000989FC001112430E0AC01429FC001439FD9
:10299000900D529F900D11246CEF70E00E94582E04
:1029A0006F3F710511F008F06FEF6093B00C0058A5
:1029B0001F4FF80160830058104019821B821A8251
:1029C0001D821C82F801928180E02181AC01420FBE
:1029D000511D9A0186818F3F31F487818F3F19F411
:1029E000842F807F61F558E821363507B1F088E8FB
:1029F0002236380720F420503048F1F408C0F8E8B7
:102A000023363F0761F023563C48B1F40FC00E94C3
:102A10001911882389F084E10CC080E10AC0F80113
:102A20008285823019F08B3B39F402C088E101C005
:102A300089E189831B830A838981882321F4C80162
:102A40000E94552204C0CE0101960E9435100F90BD
:102A50000F900F900F900F90CF91DF911F910F91DA
:102A60000895DF93CF9300D000D000D0CDB7DEB76C
:102A7000109268181A821C821B8282E491E060EE38
:102A800045E00E94170B89838981813039F08130BC
:102A900028F0833029F0853039F404C081E103C087
:102AA00083E101C082E18A838A81882321F0CE01FB
:102AB00002960E94351086E10E94FC1326960FB6FE
:102AC000F894DEBF0FBECDBFCF91DF910895FF9286
:102AD0000F931F93F82E0DEF13E0C8010197F1F744
:102AE0000E94EB0A0E94B71282E491E06FE140E09D
:102AF00023E00E94210BC8010197F1F78EE491E0D9
:102B00006CE50E94140B89E491E06FE040E027E05F
:102B10000E94210BFF2011F00E94D00B80E41F9136
:102B20000F91FF900895719A699A0895729A6A9A1E
:102B30000895739A6B9A08950895209166183091BC
:102B4000671880916018909161182817390711F45F
:102B50001092B60C08950895089508950895089563
:102B6000089508956091341F7091351F82E193E0BC
:102B70000E941D2F08959F92AF92BF92CF92DF9235
:102B8000EF92FF920F931F93DF93CF93CDB7DEB7F2
:102B9000C656D0400FB6F894DEBF0FBECDBF6D98BD
:102BA000759A659B04C08091360B8823C9F080918B
:102BB000B40C8823B9F48091B50C882329F00E94C5
:102BC000080A1092B50C08C084E493E00E945A2FC2
:102BD0001092360B0E94920781E08093B40C02C0E1
:102BE0001092B40C0E94A71C882309F4E8C28091BB
:102BF0006818882309F0E3C20E94E61C182F84316C
:102C000011F41092B10C8091B10C882301F15E0196
:102C10000894A11CB11C00E0D5011C930F5F043681
:102C200059F00E94A71C0894A11CB11C882321F014
:102C30000E94E61C182FF0CF8091B20C9091B30C3B
:102C4000602FAE014F5F5F4F0E94F70FB8C283E560
:102C500093E00E949A1C1936A9F01A3638F4103500
:102C600009F49DC2133509F0A4C27BC2133709F4DD
:102C70005DC2143721F0103709F09BC23AC20E949E
:102C8000DB0D97C2EDB7FEB73A970FB6F894FEBFCB
:102C90000FBEEDBF31966E010894C11CD11CADB7BB
:102CA000BEB71296DC92CE92119786E593E093839D
:102CB000828380915E1890915F18958384838091C0
:102CC0006018909161189783868380916218909123
:102CD0006318918780870E948F2FEDB7FEB73696D5
:102CE0000FB6F894FEBF0FBEEDBF8091341F9091D8
:102CF000351F92838183D482C3820E940C2F00D01F
:102D0000EDB7FEB73196ADB7BEB71296DC92CE9254
:102D1000119782E893E0938382838091651884837E
:102D200015820E948F2F0F900F908091341F9091E9
:102D3000351FEDB7FEB792838183D482C3820E9490
:102D40000C2F0F900F900F900F906091341F709187
:102D5000351F8EE893E00E941D2F00D000D000D0D8
:102D6000EDB7FEB731960AE618E1ADB7BEB71296D9
:102D70001C930E9311978AE993E093838283809149
:102D80005C1890915D18958384830E948F2F0F901B
:102D90000F908091341F9091351FEDB7FEB792834D
:102DA0008183148303830E940C2F0F900F900F9048
:102DB0000F9083E593E00E949A1C10915118B090F7
:102DC0005218A09053189090541860915518709113
:102DD000561880915718909158182DB73EB72C501F
:102DE00030400FB6F8943EBF0FBE2DBFEDB6FEB615
:102DF0000894E11CF11CADB7BEB71296DC92CE92DE
:102E000011972DE933E0F70133832283212F3B2DE6
:102E10004A2D592D00E20E94CB2BC901BA01D701DE
:102E200014962C93149715969C93159716964C937D
:102E3000169717967C93179718961C9318971996C0
:102E4000BC9219971A96AC921A971B969C920E9464
:102E50008F2FEDB7FEB738960FB6F894FEBF0FBEB2
:102E6000EDBF8091341F9091351F92838183D4826E
:102E7000C3820E940C2F0F900F900F900F908091A3
:102E80005918882319F423EB33E002C029EB33E00F
:102E90008DB79EB708970FB6F8949EBF0FBE8DBF33
:102EA000EDB7FEB731968E010F5F1F4FADB7BEB7BE
:102EB00012961C930E9311978EEB93E0938382836B
:102EC0003583248380916418868317820E948F2F14
:102ED0000F900F900F900F908091341F9091351F9D
:102EE000EDB7FEB792838183148303830E940C2F76
:102EF0000F900F900F900F9088E00E94C71200D0A3
:102F000000D000D0EDB7FEB73196ADB7BEB7129680
:102F10001C930E93119728ED33E03383228384832F
:102F200015820E948F2F0F900F908091341F9091E7
:102F3000351FEDB7FEB792838183148303830E940C
:102F40000C2F0F900F900F900F900E94EF13833073
:102F500059F0873069F0823021F456EEA52EB12C5D
:102F60000AC0A82EBB2407C047EEA42EB12C03C074
:102F700034EDA32EB12C6091341F7091351F86EE75
:102F800093E00E941D2F8DE591E00E94110B2DB75B
:102F90003EB7285030400FB6F8943EBF0FBE2DBF4D
:102FA000EDB7FEB731968E010F5F1F4FADB7BEB7BD
:102FB00012961C930E9311972EEE33E033832283E7
:102FC000B582A482868317820E948F2F0F900F9064
:102FD0000F900F908091341F9091351FEDB7FEB781
:102FE00092838183148303830E940C2F00D0EDB75A
:102FF000FEB73196ADB7BEB712961C930E931197DC
:103000008BEF93E09383828328E0E22E24E0F22E7C
:10301000F582E4820E948F2F0F900F908091341FD1
:103020009091351FEDB7FEB792838183148303839C
:103030000E940C2F00D0EDB7FEB73196ADB7BEB7EA
:1030400012961C930E9311978BE094E093838283E6
:1030500088E090E0958384830E948F2F0F900F90DB
:103060008091341F9091351FEDB7FEB79283818315
:10307000148303830E940C2F00D0EDB7FEB7319666
:10308000ADB7BEB712961C930E9311978AE194E0E8
:103090009383828389E294E0958384830E948F2FB7
:1030A0000F900F908091341F9091351FEDB7FEB7B0
:1030B00092838183148303830E940C2F00D0EDB789
:1030C000FEB73196ADB7BEB712961C930E9311970B
:1030D0008DE294E093838283F582E4820E948F2FB5
:1030E000EDB7FEB736960FB6F894FEBF0FBEEDBF34
:1030F00060C06091341F7091351F8EE394E00E9490
:103100001D2F8E010F5F1F4FC80162E341E00E9437
:10311000091DC8010E94A12E682F8093B20C9093C4
:10312000B30C82E0792F0E94ED0E43C06091341FF2
:103130007091351F82E594E00E941D2F8E010F5F74
:103140001F4FC80162E341E00E94091DC8010E94AF
:10315000A12E9093B30C8093B20C81E08093B10CBC
:1031600028C091EEE92E9EE2F92E81EDA82E87E08F
:10317000B82E84E190E00E94C91D82E060E070E01A
:103180000E94ED0EC7010197F1F710E00E94781040
:103190001F5F1436D9F7C5010197F1F7EACF6091A7
:1031A000341F7091351F89E694E00E941D2F0E9404
:1031B000401D8AEF90E062EB75E10E94AF09CA59A9
:1031C000DF4F0FB6F894DEBF0FBECDBFCF91DF91BA
:1031D0001F910F91FF90EF90DF90CF90BF90AF9035
:1031E0009F9008950F931F938823C9F18AE090E080
:1031F00062E37AE10E94AF096091341F7091351F3C
:1032000088E894E00E941D2F00D000D000D0EDB7D8
:10321000FEB731960AE618E1ADB7BEB712961C9319
:103220000E93119782EA94E0938382838091FD1834
:10323000848315820E948F2F0F900F908091341FEE
:103240009091351FEDB7FEB792838183148303837A
:103250000E940C2F0F900F900F900F900EC088EED1
:1032600093E06CE77FE10E94AF096091341F709199
:10327000351F85EA94E00E941D2F1F910F9108953C
:103280007198699A8AE090E063E975E10E94AF095C
:10329000089580E090E064E040EB54E00E94F70F76
:1032A00088EE93E069E479E10E94AF090895EF9216
:1032B000FF920F931F937C017198699A81E090E0CF
:1032C00063E975E10E94AF096091341F7091351F69
:1032D00085EB94E00E941D2F00D000D000D0EDB708
:1032E000FEB731960AE618E1ADB7BEB712961C9349
:1032F0000E93119782EA94E093838283F582E482AD
:103300000E948F2F0F900F908091341F9091351F46
:10331000EDB7FEB792838183148303830E940C2F41
:103320000F900F900F900F9083E0B7010E94ED0E69
:103330001F910F91FF90EF9008957198699A89E11C
:1033400090E063E975E10E94AF0908958FE691E08E
:1033500060E00E94140B82E060E070E00E94ED0EDD
:1033600084EF91E066EA79E10E94AF098093B50CA1
:103370000895EF92FF920F931F93DF93CF93CDB7F2
:10338000DEB728970FB6F894DEBF0FBECDBF80E042
:1033900090E068E08E010F5F1F4FA8010E94BA0BFA
:1033A00078019E01275F3F4FF80180818F3FB9F47C
:1033B0000F5F1F4F02171307B9F72AC088E00E945A
:1033C000C712F70181937F01E017F107B9F780E099
:1033D00090E068E0AE014F5F5F4F0E94A40B80E178
:1033E00090E062E08E010F5F1F4FA8010E94BA0BB0
:1033F00089819A818F5F9F4F91F484E190E09A8355
:10340000898380E190E062E0A8010E94A40B07C0DC
:1034100080E00E94671586E00E94FC13CFCF2896BB
:103420000FB6F894DEBF0FBECDBFCF91DF911F91D5
:103430000F91FF90EF9008950E949D190E94B91975
:103440008FEC94E00E945A2F0E947C1F0E94C000C3
:103450006D98759A6D98759A8CB18AEE94E00E9479
:103460005A2F0895EF92FF920F931F936091341F8C
:103470007091351F87EF94E00E941D2F00D000D07F
:1034800000D0EDB7FEB731960AE618E1ADB7BEB78A
:1034900012961C930E9311978AE993E0938382838B
:1034A0008091FB189091FC18958384830E948F2F44
:1034B0000F900F908091341F9091351FEDB7FEB79C
:1034C00092838183148303830E940C2F0F900F90AB
:1034D0000F900F906091341F7091351F89E095E037
:1034E0000E941D2F00D000D000D0EDB7FEB731965E
:1034F000ADB7BEB712961C930E93119762EAE62EF3
:1035000064E0F62EF382E2828091FD1884831582B6
:103510000E948F2F0F900F908091341F9091351F34
:10352000EDB7FEB792838183148303830E940C2F2F
:103530000F900F900F900F906091341F7091351F76
:1035400081E195E00E941D2F00D000D000D0EDB7A2
:10355000FEB73196ADB7BEB712961C930E93119776
:10356000F382E28280910119848315820E948F2F59
:103570000F900F908091341F9091351FEDB7FEB7DB
:1035800092838183148303830E940C2F0F900F90EA
:103590000F900F908091FB189091FC186091FD188E
:1035A0000E94210E1F910F91FF90EF9008950F93AD
:1035B0001F938823B1F500D08BE195E0EDB7FEB7FE
:1035C000928381830E94482F00D00AE913E0EDB76F
:1035D000FEB71283018380916018909161189483E3
:1035E00083830E94482F0F900F908CE295E0EDB7F7
:1035F000FEB7928381830E94482F00D0EDB7FEB7BB
:103600001283018380915E1890915F189483838365
:103610000E94482F0F900F900F900F900E94D1039F
:103620001AC000D000D081E395E0EDB7FEB79283D9
:10363000818380915E1890915F18948383830E94A8
:10364000482F0F900F900F900F9088EE93E06CE74B
:103650007FE10E94AF091F910F9108958FEF0E94A3
:10366000600D0E94C2110E94910708950F931F934D
:103670000E941911882309F04EC06091341F709187
:10368000351F8CE495E00E941D2F00D000D000D0A3
:10369000EDB7FEB731960AE618E1ADB7BEB71296A0
:1036A0001C930E93119782EA94E093838283809116
:1036B000B60C90E00196958384830E948F2F0F9023
:1036C0000F908091341F9091351FEDB7FEB7928314
:1036D0008183148303830E940C2F409166185091BC
:1036E000671820916018309161188091B60C8F5F37
:1036F0008093B60C0F900F900F900F90883058F079
:103700004217530741F410925918809165180E948E
:103710001C110E947C1F1F910F910895EF92FF9240
:103720000F931F937C016091341F7091351F84E5C6
:1037300095E00E941D2F00D000D000D0EDB7FEB75D
:1037400031960AE618E1ADB7BEB712961C930E93F8
:1037500011978AE993E093838283F582E4820E9441
:103760008F2F0F900F908091341F9091351FEDB7E0
:10377000FEB792838183148303830E940C2F0F90E2
:103780000F900F900F906091341F7091351F8AE653
:1037900095E00E941D2F0E94AE1200D000D000D0F4
:1037A000EDB7FEB73196ADB7BEB712961C930E9328
:1037B000119772EAE72E74E0F72EF382E282848397
:1037C00015820E948F2F0F900F908091341F90913F
:1037D000351FEDB7FEB792838183148303830E9464
:1037E0000C2F0F900F900F900F906091341F7091DD
:1037F000351F80E795E00E941D2F0E94AB1200D07C
:1038000000D000D0EDB7FEB73196ADB7BEB7129677
:103810001C930E931197F382E282848315820E9497
:103820008F2F0F900F908091341F9091351FEDB71F
:10383000FEB792838183148303830E940C2F0F9021
:103840000F900F900F9083E593E00E949A1C71985F
:10385000699A8AE090E063E975E10E94AF091F91DF
:103860000F91FF90EF9008950895089580E090E003
:103870000895089510923A0D20913A0D2093390D34
:103880001092B80C2091B80C2093B70C28E9209323
:10389000C90026E02093CA001092CD002CE02093AE
:1038A000CC009093BC0D8093BB0D08951092C9007D
:1038B0000895382F8091BE0D8823D9F57894909182
:1038C000B70C9F5F97FF05C090E003C0222319F05B
:1038D0000EC02091BD0D8091B80C9817B9F3E091FE
:1038E000B70CF0E0E954F34F32839093B70C80911A
:1038F000C90085FD1EC08091C80085FFFCCF909156
:10390000B80CE92FF0E0E954F34F22818091B70C15
:10391000981711F42FEF06C0E92FEF5FE7FDE0E005
:10392000E093B80C2093CE008091C9008062809310
:10393000C9000895CF93DF93EC0103C00E94591C86
:10394000219688818823D1F7DF91CF9108958091C6
:10395000390D90913A0D282F30E0291B310937FF9E
:1039600002C020583F4F822F08958091390D9091C9
:103970003A0D282F30E0291B310937FF02C02058AB
:103980003F4F822F08958091B70C9091B80C282F4B
:1039900030E0291B310937FF02C020583F4F822FEA
:1039A00008959091B80CE92FF0E0E954F34F22818B
:1039B0008091B70C981711F42FEF06C0E92FEF5F35
:1039C000E7FDE0E0E093B80C822F08958091390D77
:1039D00090913A0D282F30E0291B310937FF02C0A2
:1039E00020583F4F222391F390913A0DE92FF0E0B8
:1039F000E75CF24F22818091390D981711F42FEF77
:103A000006C0E92FEF5FE7FDE0E0E0933A0D822F7B
:103A10000895DF92EF92FF920F931F93CF93DF935E
:103A2000EC01D42E00E0E62EFF240894E108F10812
:103A30000E94E61C182F802F90E08E159F0524F021
:103A40001D3011F01830A1F7DD2019F0812F0E94F0
:103A5000591C183061F01D3081F41882802FDF91DD
:103A6000CF911F910F91FF90EF90DF900895002369
:103A7000F9F2015018822197DBCF19930F5FD8CF4D
:103A800090E08091BE0D882309F491E09093BE0DE3
:103A90000895089580E0089508951F920F920FB63B
:103AA0000F920BB60F9211242F933F934F935F9376
:103AB0006F937F938F939F93AF93BF93EF93FF93F6
:103AC0002091CE009091390D9F5F97FD90E08091FD
:103AD0003A0D981741F0E091390DF0E0E75CF24FB4
:103AE00022839093390D1092BD0DE091BB0DF091A2
:103AF000BC0D309711F0822F0995FF91EF91BF9186
:103B0000AF919F918F917F916F915F914F913F9175
:103B10002F910F900BBE0F900FBE0F901F90189516
:103B20001F920F920FB60F920BB60F9211242F9384
:103B30008F939F93EF93FF939091B70C8091B80C64
:103B40009817B1F09091B80CE92FF0E0E954F34FD9
:103B500022818091B70C981711F42FEF06C0E92F3E
:103B6000EF5FE7FDE0E0E093B80C2093CE0005C0E6
:103B70008091C9008F7D8093C900FF91EF919F9143
:103B80008F912F910F900BBE0F900FBE0F901F9033
:103B9000189508951F920F920FB60F920BB60F92C1
:103BA00011242F933F934F935F936F937F938F9342
:103BB0009F93AF93BF93EF93FF939091C600809133
:103BC000BF0D882309F03FC09A3091F09D3081F0FD
:103BD0008091C00D8F3F61F0E091C00DF0E0EF5398
:103BE000F24F90838091C00D8F5F8093C00D2BC0EA
:103BF000E091C00DF0E0EF53F24F10821092C00D33
:103C000081E08093BF0D2091BF0D00D000D000D087
:103C1000EDB7FEB7319687E198E0ADB7BEB7129623
:103C20009C938E93119781EC9DE0938382832483F0
:103C300015820E94482F8DB79EB706960FB6F8944E
:103C40009EBF0FBE8DBFFF91EF91BF91AF919F912E
:103C50008F917F916F915F914F913F912F910F9035
:103C60000BBE0F900FBE0F901F901895EF92FF9212
:103C70000F931F938091BF0D813009F086C0109281
:103C80001419109229191092BF0D01EC1DE0C80102
:103C900063E270E00E94C82EFC0101900020E9F769
:103CA0003197E81BF90BD8010D900020E9F78D0141
:103CB00001501040015C1D40E01BE0932819EF3FCC
:103CC00011F4109228191092271910923C19EDB78F
:103CD000FEB738970FB6F894FEBF0FBEEDBF319612
:103CE0008091281990E08F53924FADB7BEB71296CE
:103CF0009C938E93119782E298E09383828304E1F0
:103D000019E11583048389E2E82E89E1F82EF78210
:103D1000E6820E94C02F0F900F900F900F9089E2C3
:103D200098E0EDB7FEB792838183148303830E94EA
:103D3000482F86E398E0ADB7BEB712969C938E935A
:103D400011971496FC92EE9213970E94482F0F90B1
:103D50000F900F900F90C80165E478E00E94D32E79
:103D6000009799F48EE498E00E945A2F00D086E5DF
:103D700098E0EDB7FEB7928381830E94482F0F90A1
:103D80000F9084E698E00E945A2F1F910F91FF90A8
:103D9000EF9008951092C10E0895FF920F931F9314
:103DA000CF93DF93EC01F62E8A0188818150823017
:103DB00028F4CE01BA010E94911F3FC08CE698E022
:103DC0000E945A2F00D000D0EDB7FEB731968EE991
:103DD00098E0ADB7BEB712969C938E931197F2827E
:103DE00013820E94482F84EB98E0EDB7FEB79283D0
:103DF0008183148303830E94482F08ED19E10F90FB
:103E00000F900F900F90C801BE014F2D50E00E94FF
:103E1000BF2E00D000D08CEC98E0ADB7BEB71296A4
:103E20009C938E93119714961C930E9313970E9454
:103E3000482F0F900F900F900F90DF91CF911F910F
:103E40000F91FF9008951F93CF93DF93FC01162FDE
:103E5000EA0180818150823028F4CF01BA010E94AA
:103E6000062023C086ED98E00E945A2F00D000D093
:103E7000EDB7FEB731968EE998E0ADB7BEB71296B2
:103E80009C938E931197128313820E94482F84EB88
:103E900098E0EDB7FEB792838183D483C3830E94F9
:103EA000482F0F900F900F900F90DF91CF911F919F
:103EB00008950E94361E81E00E940229882379F02D
:103EC0008091C10E882359F40E94E42081E0809300
:103ED000C10E88EC90E06AEC7EE10E94AF09089583
:103EE0008EB190E189278EB96C9A88EE93E060E7F5
:103EF0007FE10E94AF0908958FEF0E94600D0E943C
:103F0000C21108950E94B9190E94701F6D98759A88
:103F10000E947C1F0E94C00088E199E00E945A2FF5
:103F20000895EF92FF920F931F93DF93CF93CDB736
:103F3000DEB7EB970FB6F894DEBF0FBECDBF7C01A6
:103F40008B01FC018081813079F58DE299E00E943E
:103F50005A2F8EB194E089278EB96A9A82E08983BC
:103F60001A82809151188B83809152188C83809192
:103F700053188D83809154188E83809155188F83A8
:103F80008091561888878091571889878091581892
:103F90008A87C801BE016F5F7F4F4BE32EEB30EF86
:103FA0000DEB10EF0E940F26F7018081823009F59A
:103FB0000E9420092091C50E3091C60E821B930BE2
:103FC0009093C60E8093C50E2EB134E023272EB9F0
:103FD0006A9A00D000D02BE439E0EDB7FEB7328307
:103FE0002183948383830E94482F0F900F900F901A
:103FF0000F90EB960FB6F894DEBF0FBECDBFCF91FA
:10400000DF911F910F91FF90EF900895EF92FF9233
:104010000F931F93DF93CF93CDB7DEB7EB970FB618
:10402000F894DEBF0FBECDBF7C018B01FC01808107
:10403000813079F58EE799E00E945A2F8EB194E095
:1040400089278EB96A9A82E089831A8280915118F1
:104050008B83809152188C83809153188D8380912B
:1040600054188E83809155188F83809156188887B5
:10407000809157188987809158188A87C801BE0196
:104080006F5F7F4F4BE32DEB30EF0EEB10EF0E9495
:104090000F26F7018081823009F50E9420092091C6
:1040A000C50E3091C60E821B930B9093C60E809363
:1040B000C50E2EB134E023272EB96A9A00D000D065
:1040C00026E939E0EDB7FEB73283218394838383F9
:1040D0000E94482F0F900F900F900F90EB960FB605
:1040E000F894DEBF0FBECDBFCF91DF911F910F912E
:1040F000FF90EF9008950F931F93DF93CF93CDB769
:10410000DEB7EB970FB6F894DEBF0FBECDBF81E0F0
:1041100089831A82809151188B83809152188C83E5
:10412000809153188D83809154188E8380915518F7
:104130008F8380915618888780915718898780913E
:1041400058188A870E9420099093C60E8093C50E46
:104150008091791990917A19BE016F5F7F4F4BE37F
:104160002EEB30EF0DEB10EF0E940F2600D000D0A9
:1041700083EC99E0EDB7FEB7928381838091791942
:1041800090917A19948383830E94482F0F900F9007
:104190000F900F908091C70E843048F484EF91E027
:1041A0006BE770E20E94AF0980937B1902C0109206
:1041B000C70EEB960FB6F894DEBF0FBECDBFCF9102
:1041C000DF911F910F9108958091C80E882339F0D7
:1041D0001092C80E80917B190E94080A089581E010
:1041E0008093C80E10927A19109279190E947B2040
:1041F00008951092CD0E0895EF92FF920F931F93A2
:10420000282F792F462F08ED19E1C801622F50E0C1
:104210000E94BF2EC80160EE79E00E94D32E009765
:1042200009F0B3C08091C90E9091CA0E019731F484
:104230000E9420099093D7198093D6198091C90EB6
:104240009091CA0E01969093CA0E8093C90EC297A0
:1042500008F4A8C00E9420092091D6193091D719DE
:10426000821B930B9093D3198093D2192EB134E013
:1042700023272EB96A9A00D000D000D0EDB7FEB740
:10428000319626E33AE0ADB7BEB712963C932E9333
:1042900011972091C90E3091CA0E338322839583E2
:1042A00084830E94482F6091C90E7091CA0E80E0ED
:1042B00090E00E94482D20E030E04CEA52E40E9459
:1042C000D62D7B018C016091D2197091D31980E0B9
:1042D00090E00E94482D9B01AC01C801B7010E94EB
:1042E000AF2C20E030E04AE754E40E94D62D0E9433
:1042F0001C2D7093D5196093D4190F900F90EDB7C2
:10430000FEB7319625E53AE0ADB7BEB712963C93BD
:104310002E931197738362830E94482F00D0EDB7CC
:10432000FEB7319686E79AE0ADB7BEB712969C937A
:104330008E9311978091C90E9091CA0E93838283B8
:104340008091CB0E9091CC0E958384830E94482F50
:104350000F900F9086EB9AE0EDB7FEB792838183C2
:104360008091D4199091D519948383830E94482F0A
:104370001092CA0E1092C90E1092CC0E1092CB0E53
:104380000F900F900F900F900DC08091CB0E9091D9
:10439000CC0E01969093CC0E8093CB0E8BEB9AE0D3
:1043A0000E945A2F1F910F91FF90EF9008950F9345
:1043B0001F938EB194E089278EB96A9A0CE719E1B0
:1043C000C80160EE79E00E94DC2EF8010190002027
:1043D000E9F73197E01BF10B80E090E0B8014E2F38
:1043E0002EEB30EF0DEB10EF0E940F261F910F9177
:1043F00008958091CD0E882311F00E94D721089551
:104400008091CD0E882369F01092CD0E89EC9AE050
:104410000E945A2F80917B190E94080A729A6A9A08
:1044200008958FED9AE00E945A2F81E08093CD0E7F
:104430000E94D7210895ECE6F6E18EEC9EE0819390
:1044400091938E579F4F26E1EA38F207C1F78FE02C
:1044500080932E1A0895DF93CF930F92CDB7DEB7D6
:104460008FB78983F894ACE6B6E1E0E0F0E02D91F7
:104470003C9111972115310561F0EE0FFF1FE459B2
:10448000F94E1182108280912E1A815080932E1A3B
:1044900005C031961296EF30F10549F789818FBF3B
:1044A000C9010F90CF91DF910895DF93CF930F92C1
:1044B000CDB7DEB79C018FB78983F894ACE6B6E13F
:1044C000E0E0F0E08D919C911197892B39F4EE0F8B
:1044D000FF1FE459F94E3183208305C031961296AF
:1044E000EF30F10579F780912E1A8F5F80932E1AA5
:1044F00089818FBF0F90CF91DF91089580912E1AFF
:104500000895522FE82FF0E0EF5CF54E808590E0A3
:10451000062E02C0959587950A94E2F780FDBEC0ED
:10452000818990E002C0959587956A95E2F780FFB2
:1045300060C0433071F1443030F4442351F04130D5
:1045400009F0ACC016C04430A1F1463009F0A6C055
:1045500040C032B181E090E002C0880F991F2A95D7
:10456000E2F7282F2095232322B921B1822B81B98C
:10457000089535B181E090E002C0880F991F2A9517
:10458000E2F7282F2095232325B924B1822B84B963
:1045900008953BB181E090E002C0880F991F2A95F1
:1045A000E2F7282F209523232BB92AB1822B8AB931
:1045B00008953EB181E090E002C0880F991F2A95CE
:1045C000E2F7282F209523232EB92DB1822B8DB908
:1045D000089534B381E090E002C0880F991F2A95B6
:1045E000E2F7282F2095232324BB23B3822B83BB00
:1045F0000895433051F1443030F4442351F04130B8
:1046000009F04CC014C0443071F1463009F046C086
:1046100038C082B121E030E002C0220F331F5A952A
:10462000E2F7822B82B981B1282B21B9089585B197
:1046300021E030E002C0220F331F5A95E2F7822BAF
:1046400085B984B1282B24B908958BB121E030E0DD
:1046500002C0220F331F5A95E2F7822B8BB98AB121
:10466000282B2AB908958EB121E030E002C0220F34
:10467000331F5A95E2F7822B8EB98DB1282B2DB9B5
:10468000089584B321E030E002C0220F331F5A9511
:10469000E2F7822B84BB83B3282B23BB089583309E
:1046A00081F1843028F4882351F0813031F418C02E
:1046B0008430C1F1863009F44DC080E0089522B104
:1046C00081E090E0062E02C0880F991F0A94E2F75D
:1046D000282B22B921B18095822381B980B132C0C3
:1046E00025B181E090E0062E02C0880F991F0A9440
:1046F000E2F7282B25B924B18095822384B983B1B0
:1047000021C02BB181E090E0062E02C0880F991FD6
:104710000A94E2F7282B2BB92AB1809582238AB913
:1047200089B110C02EB181E090E0062E02C0880F42
:10473000991F0A94E2F7282B2EB92DB18095822378
:104740008DB98CB190E002C0959587956A95E2F796
:104750008170089524B381E090E0062E02C0880F96
:10476000991F0A94E2F7282B24BB23B38095822358
:1047700083BB82B390E002C0959587956A95E2F776
:10478000817008951F93CF93DF93162FC82FD0E029
:10479000CF5CD54E888590E0062E02C09595879512
:1047A0000A94E2F780FF32C0842F622F0E944F23C9
:1047B0008823A9F02989822F90E0012E02C09595C7
:1047C00087950A94E2F780FD21C081E090E002C065
:1047D000880F991F1A95E2F7282B298B15C0298974
:1047E000822F90E0012E02C0959587950A94E2F7FA
:1047F00080FF0CC081E090E002C0880F991F1A95DD
:10480000E2F780958223898B81E001C080E0DF910F
:10481000CF911F910895AF92BF92CF92DF92EF9206
:10482000FF920F931F930E94512B0E94812B5B01DB
:104830006C010E945C2B7B018C0120918A163091C7
:104840008B1640918C1650918D16DA01C901815555
:104850009B4FAF4FBF4F8E159F05A007B1075CF070
:10486000205B344040405040E216F3060407150731
:1048700014F060E009C0E0928A16F0928B16009363
:104880008C1610938D1661E020918E1630918F1644
:104890004091901650919116DA01C90180569947BE
:1048A000AE4FBF4FA816B906CA06DB0648F4205A19
:1048B000364841405040A216B306C406D50648F417
:1048C000A0928E16B0928F16C0929016D09291162A
:1048D00003C0662309F450C084E080932F1A10921D
:1048E000301A809151188093311A80915218809318
:1048F000321A809153188093331A80915418809300
:10490000341A809155188093351A809156188093E7
:10491000361A809157188093371A809158188093CF
:10492000381A80918A1690918B16A0918C16B091AE
:104930008D1680934A1A90934B1AA0934C1AB093F9
:104940004D1A80918E1690918F16A0919016B0916D
:10495000911680934E1A90934F1AA093501AB093C9
:10496000511A80E090E06FE27AE14BE32BEB30EFFD
:104970000CEB10EF0E940F2688E893E16BE074E2E5
:104980000E94AF091F910F91FF90EF90DF90CF90A1
:10499000BF90AF900895CF92DF92EF92FF920F9366
:1049A0001F9381E00E9402299091421A882321F4EA
:1049B00090FF0AC09E7F03C090FD06C09160909357
:1049C000421ACC24C39401C0CC2482E00E94022964
:1049D0009091431A882321F497FF08C09F7703C062
:1049E00097FD04C090689093431AC39482E062E0FC
:1049F00043E025E00E94C223182F82E065E046E0F4
:104A000021E00E94C223D82E82E067E043E021E04B
:104A10000E94C223E82E82E066E043E020E00E948C
:104A2000C223F82E83E060E043E022E00E94C2232C
:104A3000082F83E061E043E023E00E94C2231C0DC5
:104A40001D0D1E0D1F0D100F180F09F450C084E02E
:104A500080932F1A1092301A809151188093311A36
:104A6000809152188093321A809153188093331A90
:104A7000809154188093341A809155188093351A78
:104A8000809156188093361A809157188093371A60
:104A9000809158188093381A80918A1690918B16BD
:104AA000A0918C16B0918D1680934A1A90934B1A50
:104AB000A0934C1AB0934D1A80918E1690918F1638
:104AC000A0919016B091911680934E1A90934F1A20
:104AD000A093501AB093511A80E090E06FE27AE10F
:104AE0004BE32BEB30EF0CEB10EF0E940F2684E131
:104AF00090E06BEC74E20E94AF091F910F91FF9060
:104B0000EF90DF90CF9008950F931F93AFE2BAE13B
:104B1000FC018BE301900D928150E1F70091421A64
:104B20008091431A182F80FF04C082E060E041E0CA
:104B300003C082E060E042E00E94292911FF04C026
:104B400082E061E041E003C082E061E042E00E9477
:104B5000292982E062E043E025E00E94812282E090
:104B600065E046E021E00E94812281E062E044E0CD
:104B700022E00E94812281E063E044E023E00E9481
:104B8000812282E066E043E020E00E94812282E010
:104B900067E043E021E00E94812283E060E043E09F
:104BA00022E00E94812283E061E043E023E00E9452
:104BB0008122102F01FF04C081E062E041E003C0C8
:104BC00081E062E042E00E94292912FF04C081E0F6
:104BD00063E041E003C081E063E042E00E942929F4
:104BE00013FF04C081E064E041E003C081E064E0C1
:104BF00042E00E9429291F910F9108950895089578
:104C00008FEF9FEF089580E090E0089508959C0154
:104C1000462F80E0B90150E00E94DE270895BF9240
:104C2000CF92DF92EF92FF920F931F93C62EB72E73
:104C3000D42E79010E941901C701B8010E943701E1
:104C40000E9491016C2D7B2D4D2D50E00E94BF2EB6
:104C50008D2D0E9496010E943E031F910F91FF909F
:104C6000EF90DF90CF90BF9008950F931F93CF9355
:104C7000DF93FC018081803789F48181863410F0D4
:104C800085E481834181465F80E090E0BF012CEBA9
:104C900030EF0BEB10EF0E940F2617C08730A9F4FE
:104CA00088E080838AE18183EF012296A1E5B8E163
:104CB00089E10D9009928150E1F783E0838F80E0D4
:104CC000BF014CE150E00E94DE2780E0DF91CF91F0
:104CD0001F910F91089581E00E94822808950E94FB
:104CE000C72608950F931F93CF93DF93EC0188811C
:104CF000833041F486EF9AE00E945A2FCE010E9441
:104D0000842540C0853051F582E09BE00E945A2FF7
:104D100086E088831982809151188A838091521885
:104D20008B83809153188C83809154188D8380914C
:104D300055188E83809156188F83809157188887D5
:104D400080915818898780E090E0BE014BE32BEBFF
:104D500030EF0CEB10EF0E940F2614C0803219F4D4
:104D60000E94C1290FC0803769F48EE09BE00E9449
:104D70005A2F81E788834981465F80E0BE0150E079
:104D80000E94DE27DF91CF911F910F91089510921D
:104D900096161092931610929816109297161092DB
:104DA0009A161092991610929C1610929B161092B9
:104DB000A01610929F161092A2161092A116109291
:104DC000A4161092A3161092A6161092A516109271
:104DD000AA161092A7161092AC161092AB1610924B
:104DE000AE161092AD161092B0161092AF16109229
:104DF000B4161092B3161092B6161092B516109201
:104E0000B8161092B7161092BA161092B91681E021
:104E1000809392160895109296161092AA161092E8
:104E200092160895CF92DF92EF92FF920F931F9305
:104E3000CF93DF93E82FEA016901809196168823CA
:104E400021F420E030E040E008C08091AA168823D9
:104E500009F04EC021E030E041E06115710509F430
:104E600047C0209709F444C0C114D10409F440C0DC
:104E7000E114F104E9F1EE23D9F184E190E0289FF7
:104E8000D001299FB00D389FB00D1124AD56B94EF9
:104E90001396EC9313971C921F961C921E921E97CA
:104EA00051961C921E92509753961C921E925297A6
:104EB000F901EE0FFF1FEE0FFF1FE20FF31FEE0FC2
:104EC000FF1FEE0FFF1FE956F94E7183608317969F
:104ED000DC93CE9316971996DC92CE9218971B9678
:104EE0001C930E931A971D96FC92EE921C9701C08C
:104EF0004FEF842FDF91CF911F910F91FF90EF9093
:104F0000DF90CF900895282F80919216882389F002
:104F1000223078F430E084E190E0289FF001299F6E
:104F2000F00D389FF00D1124ED56F94E138281E0FB
:104F3000089580E00895A82F809192168823E1F1CA
:104F4000A230D0F561157105A9F04115510591F018
:104F50002A2F30E084E190E0289FF001299FF00D96
:104F6000389FF00D1124ED56F94E77876687518BE7
:104F7000408B11C02A2F30E084E190E0289FF0019F
:104F8000299FF00D389FF00D1124ED56F94E17862C
:104F90001686118A108A2A2F30E084E190E0289F3B
:104FA000F001299FF00D389FF00D1124ED56F94EB8
:104FB000138A128A81E0089580E008958F929F926B
:104FC000AF92BF92CF92DF92FF920F931F93CF9336
:104FD000DF93A82F4B015A0180919216882309F480
:104FE00085C0A23008F082C06115710509F47EC049
:104FF0004115510509F47AC02A2F30E084E190E090
:10500000289FF001299FF00D389FF00D1124ED56D7
:10501000F94E838182FF6AC084E1A89FE0011124D8
:10502000CD56D94EE885F98580EC099500E010E071
:10503000CC24DD2420C0F401E00FF11FF08080ECCF
:10504000F81659F0E885F9858BEDF81671F48BEDBB
:105050000995E885F9858DED09C0E885F9858BED21
:105060000995E885F9858CED01C08F2D09950F5FB5
:105070001F4FCF0CD11C0A151B05E8F28C2D819512
:105080008B3D39F4E885F9850995E885F9858DED3D
:1050900009C0E885F985803C29F48BED0995E88500
:1050A000F9858CED0995882799278C199D099B3DD9
:1050B00041F4E885F9858BED0995E885F9858DED55
:1050C0000BC0E885F985903C31F48BED0995E885B6
:1050D000F9858CED01C0892F0995E885F98580EC6B
:1050E0000995EA85FB85309709F00995DF91CF9105
:1050F0001F910F91FF90DF90CF90BF90AF909F9046
:105100008F900895CF93DF93982F809192168823E4
:1051100009F475C0923008F072C084E1989FE001F4
:105120001124CD56D94E8B8181FF69C0EE81FF815C
:105130000995882309F463C08B8183FF02C08460D2
:105140008B83EC81FD810995482F803C21F088817B
:105150004B3D61F528C088818823F1F46A897B89F9
:1051600062307105C8F04E855F85FA01E60FF71FC2
:10517000229189819A81821B91099A838983229144
:10518000821B91099A838983EC85FD85309721F0F4
:1051900062507040CA0109951B8A1A8A1A821982C4
:1051A00088818E7F01C08160888329C080FF09C00B
:1051B0008E7F88834C3D21F04D3D19F44BED01C0AD
:1051C00040ECEE85FF853097A1F02A893B898889DC
:1051D00099892817390768F4E20FF31F40832F5F7E
:1051E0003F4F3B8B2A8B89819A81840F911D9A8333
:1051F0008983EE81FF810995882309F0A2CFDF9191
:10520000CF910895813041F4759A6D982CB1229513
:105210002695277020951AC0823011F020E017C023
:105220008EB19DB1749A6C9A5E9A569A5F98579A0D
:10523000759A6D9A75982098289A23B1759A209A34
:10524000569A5E98579A5F988EB99DB92170822FB1
:105250000895813079F54230A9F04330E9F04130CA
:1052600009F062C03EB181E090E002C0880F991F52
:105270006A95E2F7282F209523232EB92DB1822B92
:105280008DB908958EB121E030E002C0220F331FA6
:105290006A95E2F7822B09C08EB121E030E002C0AE
:1052A000220F331F6A95E2F782278EB98DB1282B22
:1052B0002DB908958230C1F5413019F04230C9F45A
:1052C0000CC081E090E002C0880F991F6A95E2F758
:1052D00080952091BB1628230AC081E090E002C08F
:1052E000880F991F6A95E2F72091BB16282B20930F
:1052F000BB169EB12DB135B144B1759A6D9A8091AE
:10530000BB1685B9209A219A5E9A569A5F98579A49
:10531000749A6C9A7498749A5E98569A5F98579A91
:105320009EB92DB935B944B90895813021F48091E1
:10533000BB168B7F05C0823029F48091BB16846038
:105340008093BB169EB12DB135B144B1759A6D9A5B
:105350008091BB1685B9229A5E9A569A5F98579AA1
:10536000749A6C9A7498749A5E98569A5F98579A41
:1053700022989EB92DB935B944B90895089580E0B1
:1053800008950895089508959091461B8091471BB4
:1053900020E0981321E0822F0895DF93CF930F929E
:1053A000CDB7DEB7482F8FB78983F8948091461B1D
:1053B0002091471B90E0019668EE73E00E946C2EEE
:1053C00030E08217930761F08091461BE82FF0E0F0
:1053D000EA5BF44E42838F5F8093461B89818FBFC7
:1053E0000F90CF91DF9108951F93182F0E94CD2920
:1053F000812F90E01F910895DF93CF9300D0CDB718
:10540000DEB78FB78983F8948091471B8A838A819E
:10541000E6E4FBE1E80FF11D82819A819F5F9A83A8
:105420009A819A819093471B99819FBF0F900F900B
:10543000CF91DF9108950E94FC2990E008951F9379
:10544000CF93DF93EC01162F04C089910E94CD29E0
:1054500011501123D1F7DF91CF911F91089506C00C
:105460000E94FC2960E070E00E94052B9091461B91
:105470008091471B9817A1F708950F931F93DF930F
:10548000CF93CDB7DEB72B970FB6F894DEBF0FBE24
:10549000CDBFFE01319640E29E01245F3F4F419314
:1054A000E217F307E1F7CB018E010F5F1F4FB80141
:1054B0004AE050E00E94E32EC8016BE00E941F2AE0
:1054C0002B960FB6F894DEBF0FBECDBFCF91DF9104
:1054D0001F910F9108950F931F93DF93CF9300D0E7
:1054E00000D000D0CDB7DEB720E229832A832B83FA
:1054F0002C832D832E838E010F5F1F4FB8014AE04E
:1055000050E00E94E32EC80166E00E941F2A269602
:105510000FB6F894DEBF0FBECDBFCF91DF911F91C4
:105520000F9108950F931F93DF93CF9300D000D076
:10553000CDB7DEB790E299839A839B839C8390E0FA
:105540008E010F5F1F4FB8014AE050E00E94E32E2A
:10555000C80164E00E941F2A0F900F900F900F90D7
:10556000CF91DF911F910F910895089508950895A7
:10557000089508950895089580E008959B01AC0171
:1055800082E08093C000CA01B90160587B47814E18
:105590009F4FF2E0660F771F881F991FFA95D1F78A
:1055A000E3E0220F331F441F551FEA95D1F70E94F5
:1055B0007F2E21502093C4001092C50088E980936B
:1055C000C10086E08093C2008FE19BE09093331F7F
:1055D0008093321F9093311F8093301F08958091E4
:1055E000C000881F8827881F08958091C00087FF0A
:1055F000FCCF8091C60090E008958091C00087FFA5
:10560000FCCF8091C60090E00895982F8091C00053
:1056100085FFFCCF9093C600892F90E00895982FC6
:105620008091C00085FFFCCF9093C600892F08951C
:10563000089580E0089580E090E0089580E0089566
:1056400080E090E00895813029F420E030E040E0EF
:1056500050E024C0823069F489E080937C0080911E
:105660007B00886080937B0080917C00806C8093BD
:105670007C0080917A00806880937A0080917A0023
:10568000806480937A0080917A0086FDFCCF8091BF
:105690007800909179009C0140E050E0B901CA0186
:1056A0000895E4E6F0E080818E7F8083EAE7F0E011
:1056B000808186608083089582E00E94232B0E946F
:1056C000482D27ED33EA40E95FE30E94D62D26E618
:1056D00036E648E853E40E944A2C20E030E04AE7EE
:1056E00054E40E94D62D0E94172D9B01AC016093BB
:1056F000C0167093C1168093C2169093C316CA0148
:10570000089590915101809151018F7B80935101B7
:105710002FE132E080915101807E822B80935101F4
:10572000832F8A95F1F78091510185FD02C02150A8
:1057300089F790935101622F70E080E090E024FFA0
:105740000FC06F707070807090702BE430E040E09C
:1057500050E00E94392E60517741894D9F4F0AC019
:1057600022E330E040E050E00E94392E60567F4056
:10577000864E9F4F6093BC167093BD168093BE16E5
:105780009093BF166091BC167091BD168091BE16A5
:105790009091BF160895EF92FF920F93DF93CF93EE
:1057A000CDB7DEB760970FB6F894DEBF0FBECDBFA2
:1057B000A82F002309F461C07E010894E11CF11CAC
:1057C00088E0F70111928A95E9F729833A834B83A0
:1057D0005C836D837E83AF83988780E2801BE82F94
:1057E000FF27E7FDF0954D815E816F817885181662
:1057F00084F01D861E861F86188A882799278E1B8F
:105800009F0B04C076956795579547958A95D2F773
:1058100028C0202F332727FD3095DB01CA01022E37
:1058200004C0B695A795979587950A94D2F78D876A
:105830009E87AF87B88B04C0440F551F661F771F24
:10584000EA95D2F789819A81AB81BC8104C0B69573
:10585000A795979587952A95D2F7482B592B6A2BB0
:105860007B2B49875A876B877C8729853A854B85AF
:105870005C856D857E85AF8598898A2F60960FB689
:10588000F894DEBF0FBECDBFCF91DF910F91FF9097
:10589000EF9008955058BB27AA270ED04DC13ED196
:1058A00030F043D120F031F49F3F11F41EF433C1A6
:1058B0000EF4E095E7FB29C1E92F4FD180F3BA1729
:1058C000620773078407950718F071F49EF567C1A6
:1058D0000EF4E0950B2EBA2FA02D0B01B90190010B
:1058E0000C01CA01A0011124FF27591B99F0593F4F
:1058F00050F4503E68F11A16F040A22F232F342F97
:105900004427585FF3CF469537952795A795F040E4
:105910005395C9F77EF41F16BA0B620B730B840BF9
:10592000BAF09150A1F0FF0FBB1F661F771F881FB1
:10593000C2F70EC0BA0F621F731F841F48F4879509
:1059400077956795B795F7959E3F08F0B3CF9395F8
:10595000880F08F09927EE0F9795879508950CD03A
:10596000EBC0E3D040F0DAD030F021F45F3F19F023
:10597000CCC0511115C1CFC0F0D098F39923C9F311
:105980005523B1F3951B550BBB27AA276217730745
:10599000840738F09F5F5F4F220F331F441FAA1FF9
:1059A000A9F333D00E2E3AF0E0E830D091505040B9
:1059B000E695001CCAF729D0FE2F27D0660F771F67
:1059C000881FBB1F261737074807AB07B0E809F049
:1059D000BB0B802DBF01FF2793585F4F2AF09E3FDE
:1059E000510568F092C0DCC05F3FECF3983EDCF3F9
:1059F000869577956795B795F7959F5FC9F7880F57
:105A0000911D9695879597F90895E1E0660F771FA8
:105A1000881FBB1F621773078407BA0720F0621B39
:105A2000730B840BBA0BEE1F88F7E095089504D032
:105A30006894B111B5C0089598D088F09F5790F040
:105A4000B92F9927B751A0F0D1F0660F771F881FA3
:105A5000991F1AF0BA95C9F712C0B13081F09FD0E2
:105A6000B1E008959CC0672F782F8827B85F39F080
:105A7000B93FCCF3869577956795B395D9F73EF402
:105A800090958095709561957F4F8F4F9F4F0895AA
:105A9000E89409C097FB3EF49095809570956195C8
:105AA0007F4F8F4F9F4F9923A9F0F92F96E9BB277E
:105AB0009395F695879577956795B795F111F8CFFA
:105AC000FAF4BB0F11F460FF1BC06F5F7F4F8F4F65
:105AD0009F4F16C0882311F096E911C0772321F05B
