:100000000C9496000C94BE000C94BE000C94BE00A0
:100010000C94BE000C94BE000C94BE000C94BE0068
:100020000C94BE000C94BE000C94BE000C94BE0058
:100030000C94BE000C94BE000C94BE000C94BE0048
:100040000C94BE000C94BE000C94BE000C94BE0038
:100050000C94BE000C94BE000C94BE000C94BE0028
:100060000C94BE000C9496240C94BE000C94BE001C
:100070000C94BE000C94BE000C94BE000C94BE0008
:100080000C94440A0C94BE000C94BE000C94BE0068
:100090000C9419240C945C240C94BE000C94BE00A7
:1000A0000C94BE000C94BE000C94BE000C94BE00D8
:1000B0000C94BE000C94BE000C94BE000C94BE00C8
:1000C0000C94BE000C94BE000C94BE000C94BE00B8
:1000D0000C94BE000C94BE000C94BE000C94BE00A8
:1000E0000C94BE000C94950B0C948B0B0C94C50CCB
:1000F0000C949D0C0C944D0C0C94BE000C94750C3F
:100100000C949F0B0C94BE000C94BE000C94BE008B
:100110000C94BE000C94BE000C94BE000C94810B99
:100120006364696E6F70737578585B0011241FBE2D
:10013000CFEFD1E4DEBFCDBF14BE88E10FB6F89497
:1001400080936000109260000FBE1CE0A0E0B2E05F
:10015000ECE7F8E700E00BBF02C007900D92A23277
:10016000B107D9F716E2A2E2BCE001C01D92A23AA3
:10017000B107E1F70E94AE180C943C3C0C940000CF
:1001800080E89EEF9093311E8093301E81E0809333
:10019000321E089524E43EE13093B61E2093B51E2E
:1001A00093E09093441E9AE39093471E90ED9093B2
:1001B000451E9093461E94E19093B71EF9017496E4
:1001C00090E89093581E13821282118210925C1E46
:1001D00010925D1E10925E1E80935F1E245E3F4F44
:1001E0003093250C2093240C8CE18093B81EC90118
:1001F0004897089584E49EE19093B61E8093B51EBF
:100200001092290C1092280C23E02093441E20EF1A
:100210002093451E20ED2093461E43969093250C77
:100220008093240C23E12093B71E2093B81E40979F
:10023000089524E43EE13093B61E2093B51E9093BA
:10024000290C8093280C2D5F3F4F3093250C209371
:10025000240C93E09093441E80EF8093451E8DED17
:100260008093461E9093B71E9093B81E08959C01EC
:10027000805B904F0F97F0F480EF603B7807D0F0F1
:1002800080EF6F3B7807B0F4E091240CF091250CDF
:100290008BEF8083862F805B922F9295907F890FC2
:1002A00081833296F093250CE093240C8091B71E45
:1002B0008E5F12C0E091240CF091250C88EF8083B2
:1002C00031832283738364833596F093250CE09306
:1002D000240C8091B71E8B5F8093B71EE091240C95
:1002E000F091250CF093270CE093260CCB01820FA4
:1002F000931F918380838217930718F086179707BF
:1003000018F40196918380833296F093250CE09344
:10031000240C8091B71E8E5F8093B71E8093B81E09
:1003200008958091240C9091250C08952091240C1F
:100330003091250C280F311D3093250C2093240C6F
:100340009091B81E980F9093B81E08957F928F9247
:100350009F92AF92BF92CF92DF92EF92FF920F9354
:100360001F93CF93DF937090B71E8090240C9090D2
:10037000250CA091B51EB091B61E1396B093250C16
:10038000A093240C13971092B71E11968C9111977D
:10039000682F70E086FD10C087FD07C01796B093E8
:1003A000250CA093240C17970FC01696B093250C1C
:1003B000A093240C169708C087FD06C01496B0932E
:1003C000250CA093240C149765FF05C029E130E0AB
:1003D00040E050E00DC0E091240CF091250C81919B
:1003E000282F30E040E050E0F093250CE093240CFF
:1003F00012968C91C82FD0E08091C81F9091C91F90
:1004000092605C01CC24DD24CE0180739070B4E056
:1004100095958795BA95E1F7FC01EE0FFF1FE80F60
:10042000F91FE05DF14E808191817C0100E010E0D8
:100430008091CA1F9091CB1FA0E0B0E0E80EF91E9A
:100440000A1F1B1F8FEF9EEFA0E0B0E0E80EF91E21
:100450000A1F1B1FEA0CFB1C0C1D1D1DE20EF31EC8
:10046000041F151F68717070672B49F48091240C6C
:100470009091250C01969093250C8093240CCE012D
:100480008C7090708430910509F45FC085309105BF
:1004900024F4892B09F482C097C088309105D1F0EB
:1004A0000C9709F091C0CE0183709070FC01EE0FA3
:1004B000FF1FE80FF91FE05DF14E80819181A0E000
:1004C000B0E081509140AF4FBF4F8A0D9B1DAC1DD6
:1004D000BD1D36C0E091240CF091250C4081218196
:1004E00047FD20C030E0942F80E0282B392B442793
:1004F00037FD4095542FCE0183709070FC01EE0FB4
:10050000FF1FE80FF91FE05DF14E80819181A0E0AF
:10051000B0E0280F391F4A1F5B1FE20EF31E041FB5
:10052000151F52C0822F90E0A0E0B0E080509140B3
:10053000AF4FBF4F46954F70840F911DA11DB11D48
:10054000E80EF91E0A1F1B1F3FC0CE01837090707A
:10055000FC01EE0FFF1FE80FF91FE05DF14E8081F7
:100560009181A0E0B0E0E80EF91E0A1F1B1FE09188
:10057000240CF091250C40E0308120E08181D901EC
:10058000A80FB11DCD01A0E0B0E0E80EF91E0A1FD2
:100590001B1F4E5F3296483079F716C0E091240C4D
:1005A000F091250C40E0308120E08181B901680F95
:1005B000711DCB01A0E0B0E0E80EF91E0A1F1B1F61
:1005C0004E5F3296403179F79092250C8092240C40
:1005D0007092B71E8091B81E90E0871991099C0116
:1005E000442737FD4095542F2E0D3F1D401F511FAE
:1005F00008C0CA01AA27BB27820F931F9C0140E0B5
:1006000050E0DA01C901807090700097A105B10532
:1006100081F7C901DF91CF911F910F91FF90EF906A
:10062000DF90CF90BF90AF909F908F907F90089574
:100630009C0141505040460F571FFB010EC0708176
:1006400060E08181DB01A80FB11D2A0F3B1F2A1733
:100650003B0710F42F5F3F4F3296E417F50778F30E
:10066000E417F50749F4908180E0280F391F281717
:10067000390710F42F5F3F4FC9010895DF92EF92C1
:10068000FF920F931F93CF93DF930E94A601C09117
:10069000260CD091270C2881398140E050E0D09081
:1006A000B71E6091B81EE62FF0E0ED19F1093896FB
:1006B0007F010027F7FC0095102F3897E20EF31EFC
:1006C000041F151FA0E0B0E0E80EF91E0A1F1B1F53
:1006D00008C0C801AA27BB278E0D9F1D7C0100E022
:1006E00010E0D801C701807090700097A105B10596
:1006F00081F76091B51E7091B61E6D0D711DC70119
:10070000AF010E941803382F292F20953095398387
:100710002883232B21F48FEF9FEF998388834091C7
:10072000B51E5091B61E8091280C9091290C6091B5
:10073000B81E0E945D15DF91CF911F910F91FF9020
:10074000EF90DF9008950E94A6012091B71E30E03F
:100750006091B51E7091B61E620F731F4091B81E56
:1007600050E0421B530B0E9418034091B51E50915C
:10077000B61E2091B71EFA01E20FF11D382F292F66
:100780002095309533832283232B21F48FEF9FEF25
:100790009383828380E090E06091B81E0E945D1593
:1007A0000895E4E4FEE1F093B61EE093B51E83E005
:1007B0008093441E8AE38093471E88ED8093451EF4
:1007C00088EC8093461E84EA8093481E82E08093E2
:1007D000491EDF011696B093250CA093240C86E0E9
:1007E0008093B71E85E880934A1E11961C9211973C
:1007F00010924E1E10924F1E1092501E1092511EBB
:1008000086E18093B81E3E96F093230CE093220C71
:1008100081E08093521E81838091CB1F82838091DF
:10082000CA1F8383148215821682178213961C9224
:100830001E9212970E94A6012091B71E30E060918F
:10084000B51E7091B61E620F731F4091B81E50E026
:10085000421B530B0E9418034091B51E5091B61EC7
:100860002091B71EFA01E20FF11D382F292F209594
:1008700030953383228380E090E06091B81E0E941F
:100880005D150895CF93DF93FC0184E49EE190937E
:10089000B61E8093B51E23E02093441E1092461E80
:1008A0002AE32093471E04969093250C8093240CF2
:1008B00088ED8093451E86818295807F806C809331
:1008C000461E9481982B9093461E8581982B909379
:1008D000461E92859093B71EE92FF0E0EF01CC5BA6
:1008E000D14E88E888831982DF01A85BB14E11964A
:1008F0001C92119712961C92129713961C921397A2
:10090000662319F080E48C9301C01C92905E909352
:10091000B81EE45AF14EF093230CE093220C82E0CF
:10092000808381E081838091CB1F82838091CA1F65
:10093000838314821582168217821B821A820E9478
:10094000A6012091B71E30E06091B51E7091B61ED1
:10095000620F731F4091B81E50E0421B530B0E9460
:1009600018034091B51E5091B61E2091B71EFA0192
:10097000E20FF11D382F292F2095309533832283E4
:1009800080E090E06091B81E0E945D15DF91CF91EC
:1009900008950F931F93CF93DF938C0180E092E033
:1009A0000E947635F80180818F3FD1F58091B71E86
:1009B000282F30E02C5F3F4F8091B81EC82FD0E029
:1009C000A091B51EB091B61E4CE024C0FD01E60F0B
:1009D000F71F9181992321F180818330B9F47096BA
:1009E00080E090E0BF0140E150E00E9418039C01CC
:1009F0008091351E8823A1F43093341E2093331E3A
:100A000081E08093351E80932C020AC0990F990FC4
:100A1000990F490FB901640F711D6C177D07B4F26E
:100A2000DF91CF911F910F910895CF92DF92EF92B6
:100A3000FF920F93DF93CF93CDB7DEB72B970FB60F
:100A4000F894DEBF0FBECDBF6C01062F7EE0E72E0F
:100A5000F12CE80EF91EF092B61EE092B51E6093DE
:100A6000B81E1092B71E21E130E0C20ED31ED09204
:100A7000250CC092240C4FEE5FEFC40ED51EF6017C
:100A80008685833009F0E9C1F70182818C708C3052
:100A900009F0E3C1818186FD1AC087FD0BC025E105
:100AA00030E0C20ED31ED092250CC092240C4BEE27
:100AB0005FEF19C084E190E0C80ED91ED092250CDA
:100AC000C092240CECEEFFEFCE0EDF1E0EC087FDB1
:100AD0000CC022E130E0C20ED31ED092250CC09291
:100AE000240C4EEE5FEFC40ED51EF701818185FF09
:100AF00003C081E18C830AC0E091240CF091250CA5
:100B000081918C83F093250CE093240C2091240C8C
:100B10003091250C2A833B83F701818190E0887115
:100B200090708830910561F0893091051CF4892B13
:100B300071F014C08031910529F0489779F405C00F
:100B400081E001C080E4898309C08FEFFCCFF90107
:100B500081918983F093250CE093240CF701828125
:100B6000282F23702D8390E09C01207C307064E05E
:100B7000359527956A95E1F728878073907054E042
:100B8000959587955A95E1F78F83E091240CF09124
:100B9000250CFA87E987243051F0283019F02223F8
:100BA00041F00CC0808187FD58C1329603C0389651
:100BB00001C07096F093250CE093240C2EE030E0F9
:100BC000C20ED31E8091240C8C1942EF5FEFC40E2D
:100BD000D51E8093B71E8B878C818A3309F07FC026
:100BE0008BE192E00E9476358091B71EE091B51EB0
:100BF000F091B61EE80FF11D80818038D9F571980B
:100C0000699A8AE090E065E67CE10E94AF09109263
:100C1000B71EE091B51EF091B61E8181887111F466
:100C200080E48483E091B51EF091B61E8091B71EDA
:100C3000DF01A80FB11D9D819295907F906C129657
:100C40009C9312978F812885822B892B12968C93E7
:100C50008B858093B71EE80FF11D81E88083828128
:100C6000938101979383828380E090E0602FA701B6
:100C70000E945D158091B71EE091B51EF091B61EE1
:100C8000E80FF11D8081813839F4E091240CF09156
:100C9000250C87810E94DA088091B71EE091B51E6D
:100CA000F091B61EE80FF11D8081863821F4CE0147
:100CB00001960E94C9048091B71EE091B51EF09183
:100CC000B61EE80FF11D8081873849F48F818D832E
:100CD00088858E83CE01019661E00E9442048C815A
:100CE000813109F0BAC0A091240CB091250C8C91EF
:100CF0008B3F69F51196B093250CA093240C1197A6
:100D000011968C911197282F22952F70E22EFF2497
:100D1000E0EBF0EFEE0EFF1E90E0BC016F70707024
:100D200060557F4034E0880F991F3A95E1F7282BF2
:100D300011962C938091240C9091250C0196909300
:100D4000250C8093240C8091B71E8E5F21C0883FB4
:100D500009F083C0FD0131961196FC901197E18056
:100D600013967C91139714966C91149711967C931B
:100D7000119761831396FC9213971496EC92149733
:100D80001596B093250CA093240C8091B71E8B5F11
:100D90008093B71EE091240CF091250CF093270C62
:100DA000E093260CCB018E0D9F1D918380838E15C1
:100DB0009F0518F08617970718F401969183808392
:100DC0004091240C5091250C4E5F5F4F5093250CA1
:100DD0004093240C8091B71E8E5F8093B71E2091A4
:100DE000B81E281B01E7081BC7017E010894E11CFF
:100DF000F11C0E94AC07382F882379F18091B71E2F
:100E00008B871092B71EE091B51EF091B61E9181AE
:100E1000892F887129F4EA81FB8180E4808303C0F3
:100E2000977E906191838091B71EE091B51EF091FD
:100E3000B61EE80FF11D9D819295907F906C928374
:100E40008F812885822B892B82838B858093B71E87
:100E5000830F8093B81E0E943E032B960FB6F89422
:100E6000DEBF0FBECDBFCF91DF910F91FF90EF900E
:100E7000DF90CF9008950E9415050895EF92FF929C
:100E80000F931F93FC01009729F480E090E0A1E00C
:100E9000B0E035C0E090320DF090330D0091340D8C
:100EA0001091350D4091300D5091310DDA01A05D5A
:100EB000B34F262F03C081918D9321502223D9F760
:100EC0009A01260F311D3093310D2093300D2F3FA5
:100ED000310509F010F46034F1F0D801C7018050F9
:100EE0009F4FAF4FBF4F80509F4FA140B04098F4ED
:100EF000C901A0E0B0E08E0D9F1DA01FB11F80931F
:100F0000320D9093330DA093340DB093350D1092A4
:100F1000310D1092300D1F910F91FF90EF900895B9
:100F20000895089510922B0C0E94FA00DC01EEE661
:100F3000F2E080E101900D928150E1F781EB90EFBA
:100F400060EB70EF0E9437010E94910180E00E94E7
:100F500096010E943E030895CF92DF921F93CF9394
:100F6000DF93DA01E22FE60140EF603B740739F4CA
:100F7000CD016DE272E00E94F834E3E114C150EF5C
:100F8000633B750739F4CD0161E472E00E94F834E7
:100F9000EBE009C180EF643B780709F404C16534D4
:100FA000710509F0CFC08C91882309F0FBC0119620
:100FB0008C911197823009F089C09D012E5F3F4FBF
:100FC000E90101C0EF01FE0181918823D9F78081F9
:100FD0008F3609F0E7C08181833609F0E3C0828152
:100FE000843709F0DFC08381853609F0DBC0848156
:100FF000843709F0D7C08581882309F0D3C0FE016A
:1010000037968F81823609F0CDC081818C3609F008
:10101000C9C082818B3609F0C5C01381133709F02E
:10102000C1C07481793609F0BDC065816A3709F0A5
:10103000B9C05681553609F0B5C08781882309F0BB
:10104000B1C04085463309F0ADC09185943309F0B5
:10105000A9C08285882309F0A5C01C9286E011965C
:101060008C93119782E612968C93F90131968CE657
:10107000D90111968C93DF0111968BE68183FD01D6
:10108000319611961C93DF0111967183FD01319603
:1010900011966C93DF0111965183FD0131961196E3
:1010A0001C92DF011196418311969C931197129621
:1010B0001C9280E090E060E00E943E0781E090E0BA
:1010C0009093370D8093360DEDE06DC0833009F0BD
:1010D00069C013962C91139712969C91129780E0F9
:1010E000AC01420F511D9A018091360D9091370D40
:1010F0004817590789F484E011968C9311972F5F54
:101100003F4F3093370D2093360DE450CD010496B8
:101110006E2F0E943E0706C04817590728F484E046
:1011200011968C93E4E03FC085E011968C93119763
:1011300012961C92129713961C92139714961C9257
:10114000E5E031C050EF6B3B750731F46B857C8572
:10115000CD010E94282926C080EF6C3B780731F42E
:101160006B857C85CD010E94712B1CC040EF6D3BCF
:10117000740739F44B855C85CD01622F0E94E92507
:1011800011C06E5B704F39F44B855C85CD01622FC9
:101190000E94932507C0CD016DE472E00E94F834EF
:1011A000EEE001C0E0E08E2FDF91CF911F91DF9044
:1011B000CF900895CF93DF930E942009A0E0B0E084
:1011C0008093380D9093390DA0933A0DB0933B0D59
:1011D0002DB73EB7285030400FB6F8943EBF0FBE33
:1011E0002DBFEDB7FEB731962CE33DE0CDB7DEB7AE
:1011F0003A8329832CE532E03383228320912C0C1F
:1012000030912D0C40912E0C50912F0C821B930B82
:10121000A40BB50B84839583A683B7830E94AB355B
:1012200080932B0C2DB73EB7285F3F4F0FB6F89435
:101230003EBF0FBE2DBF0E946E1CDF91CF9108955F
:10124000DF93CF930F92CDB7DEB78FB78983F89432
:101250002091980D3091990D89818FBFC9010F9010
:10126000CF91DF9108959091550D9F5F09F491E022
:10127000E9E5FDE021E08081891709F420E0359659
:101280008DE0EB38F807B9F780918B0D891709F4D9
:1012900020E08091900D891709F420E08091950D50
:1012A000891719F3222309F39093550D892F089577
:1012B0000F931F93DF93CF930F92CDB7DEB79C01AF
:1012C000FB01009711F4099516C08091890D90914A
:1012D0008A0D892B11F480E011C080918E0D9091C0
:1012E0008F0D892B11F481E009C08091930D9091AD
:1012F000940D892B11F090E02BC082E090E08C01DE
:10130000000F111F000F111F080F191F0757124F51
:10131000D80111963C932E931496FC93EE93139759
:101320000E943309982FF80182838FB78983F8943C
:101330008091560D882351F41092950010929400DC
:1013400082E08093710081E08093560D89818FBF88
:10135000892F0F90CF91DF911F910F9108950F93D7
:101360001F93DF93CF930F92CDB7DEB7AC010097F9
:1013700019F4FB01099537C08FB78983F894E7E525
:10138000FDE000E080819181892B49F5202F30E03C
:10139000F901EE0FFF1FEE0FFF1FE20FF31FE95AD7
:1013A000F24FCA014115510511F481E090E091839B
:1013B00080838901000F111F000F111F020F131FDF
:1013C000095A124FF801748363830E943309982FDE
:1013D000F80182838091560D882339F010C00F5F89
:1013E00035960A3079F690E00CC010929500109274
:1013F000940082E08093710081E08093560D898192
:101400008FBF892F0F90CF91DF911F910F9108957A
:10141000982FE9E5FDE020E030E08081891769F44C
:10142000F901EE0FFF1FEE0FFF1FE20FF31FE95A46
:10143000F24F11821082128208952F5F3F4F35962E
:101440002A30310551F780918B0D891719F480E00E
:1014500090E00DC08091900D891719F481E090E023
:1014600006C08091950D891771F482E090E0FC012F
:10147000EE0FFF1FEE0FFF1FE80FF91FE757F24FA8
:1014800011821082128208951F920F920FB60F924E
:101490000BB60F921124DF92EF92FF920F931F93DE
:1014A0002F933F934F935F936F937F938F939F936C
:1014B000AF93BF93EF93FF93DF93CF9300D000D010
:1014C0000F92CDB7DEB78091980D9091990D01964E
:1014D0009093990D8093980D80919E0290919F0218
:1014E000019790939F0280939E02892B49F007E514
:1014F0001DE026E1D22E7E010894E11CF11C27C0DC
:1015000088EE93E090939F0280939E0209E81DE08D
:1015100096E1D92E7E010894E11CF11CF80180812E
:101520009181009769F0019791838083892B41F421
:10153000D982838194819B838A83C7010E94A515E8
:101540000B5F1F4FFDE008391F0741F7D0CFF801AF
:1015500080819181009769F0019791838083892B25
:1015600041F4D982838194819B838A83C7010E943D
:10157000A5150B5F1F4FFDE009381F0741F70F90BE
:101580000F900F900F900F90CF91DF91FF91EF91FF
:10159000BF91AF919F918F917F916F915F914F918B
:1015A0003F912F911F910F91FF90EF90DF900F903F
:1015B0000BBE0F900FBE0F901F901895E1E9F0E061
:1015C00080818A60808388EE93E090939900809375
:1015D000980080919400909195000E94B2340895F3
:1015E000089580E180933501809334018093330125
:1015F00080933201EEE4F1E0808184608083808119
:101600008860808380818064808380818061808322
:10161000A1E5B1E08C9180648C93808182608083AD
:101620008081816080838081806880830895FC014F
:1016300080810895FC0160830895FC0180818623E8
:1016400090E002C0959587954A95E2F70895FC01D0
:101650009081862F8095892330E002C0220F331FAE
:101660004A95E2F76223862B80830895DF93CF9318
:101670000F92CDB7DEB7982FFA018FB78983F89410
:1016800028981EBC0DB407FEFDCF8EB59EBD0DB4CF
:1016900007FEFDCF8EB51EBC0DB407FEFDCF8EB587
:1016A0008083615011F03196F6CF289A89818FBFDF
:1016B0000F90CF91DF910895DF93CF930F92CDB725
:1016C000DEB7982FFA018FB78983F894289880E4C1
:1016D0008EBD0DB407FEFDCF8EB59EBD0DB407FEC9
:1016E000FDCF8EB581918EBD0DB407FEFDCF8EB5B9
:1016F0006150C1F7289A89818FBF0F90CF91DF91F8
:1017000008951F920F920FB60F9211240F900FBEE3
:101710000F901F9018951F920F920FB60F921124E1
:101720000F900FBE0F901F9018951F920F920FB63B
:101730000F9211240F900FBE0F901F9018951F92BB
:101740000F920FB60F9211240F900FBE0F901F90A3
:1017500018950895DF93CF930F92CDB7DEB7FC01B4
:10176000362FCA012FB72983F894BF01432F50E0C9
:101770000E94E73A89818FBF0F90CF91DF91089542
:10178000DF93CF930F92CDB7DEB7FC01362FCA019E
:101790002FB72983F894BF01432F50E00E94D73A16
:1017A00089818FBF0F90CF91DF910895DF92EF92E3
:1017B000FF920F931F93DF93CF9300D0CDB7DEB787
:1017C00080919A0D882311F011E05CC081E0809334
:1017D0009A0DD0906600F89461E00E94F518E090B0
:1017E000B100F0908100009180001092B100109241
:1017F00081001092800020E030E063E056E04FEF7F
:101800006093B100509381001092B2001092850055
:101810001092840046BB47BBB89BFECF80918400EA
:10182000909185009A838983109281001092B10073
:1018300089819A818A5F934020F48091660081506B
:101840000AC089819A818650944010F411E00CC03E
:10185000809166008F5F809366002F5F3F4F83E02B
:10186000283E380769F610E081E060E00E94F51834
:10187000E092B100F092810000938000112311F4F6
:10188000D0926600812F0F900F90CF91DF911F9122
:101890000F91FF90EF90DF9008951F920F920FB677
:1018A0000F920BB60F9211242F933F934F935F9398
:1018B0006F937F938F939F93AF93BF93EF93FF9318
:1018C0000E949817FF91EF91BF91AF919F918F91D7
:1018D0007F916F915F914F913F912F910F900BBE30
:1018E0000F900FBE0F901F9018951F920F920FB67A
:1018F0000F920BB60F9211242F933F934F935F9348
:101900006F937F938F939F93AF93BF93EF93FF93C7
:101910000E94031CFF91EF91BF91AF919F918F9116
:101920007F916F915F914F913F912F910F900BBEDF
:101930000F900FBE0F901F9018951F920F920FB629
:101940000F920BB60F9211242F933F934F935F93F7
:101950006F937F938F939F93AF93BF93EF93FF9377
:101960000E94651BFF91EF91BF91AF919F918F9165
:101970007F916F915F914F913F912F910F900BBE8F
:101980000F900FBE0F901F9018951F920F920FB6D9
:101990000F920BB60F9211242F933F934F935F93A7
:1019A0006F937F938F939F93AF93BF93EF93FF9327
:1019B00080917B010E949219FF91EF91BF91AF91AD
:1019C0009F918F917F916F915F914F913F912F9157
:1019D0000F900BBE0F900FBE0F901F901895DF93C6
:1019E000CF930F92CDB7DEB7282F792F462F8FB721
:1019F0008983F894E9E3F1E08081826080838081CB
:101A00008D7F80836093800181E891E0622F50E0B8
:101A10000E94DB3489818FBF0F90CF91DF910895B1
:101A2000CF92DF92EF92FF920F931F93DF93CF93AA
:101A30000F92CDB7DEB70E94CA287C010097B1F1A2
:101A40008FB78983F89400917B01802F835090E8B1
:101A5000C92ED12CCE0CDF1C8D3798F4F7010193E1
:101A600010E0980121503040CF0160E871E0A901F9
:101A70000E94DB3400581E4FF8018081F6018083FC
:101A800013C0F7011082F601108281E890E0E80EA1
:101A9000F91EF70110828FE79FEFE80EF91EC701CC
:101AA0000E94F428EE24FF2489818FBFC7010F9084
:101AB000CF91DF911F910F91FF90EF90DF90CF902A
:101AC00008958093D11F0E944B1A08951F93182FD9
:101AD0008FEF9FEF9093C91F8093C81F9093CB1FE8
:101AE0008093CA1F1092C51F9093CD1F8093CC1F67
:101AF0009093CF1F8093CE1F1092D01F1092D41FAF
:101B000081E08093D51F0E94391C1093D11F1F3F85
:101B100019F0812F0E944B1A81E00E94D81988E0A9
:101B20000E94CA1A0E94091987E591E064E042E028
:101B300021E00E94270B86E10E94CA1A80E090E013
:101B400068E04DEB5FE10E94C00B81E00E94D0197C
:101B50008FEF9FEF0E94B4198FEF9FEF0E94C21981
:101B60008CE691E060EF44E022E00E94270B8DEBD1
:101B70009FE10E949D190E94800F80EA92E00E94DE
:101B800076351F91089508957198699A0895EF9296
:101B9000FF920F931F93CF93DF93E82EEB018A01FF
:101BA00081E08093A00DF880B981AA817B816C814E
:101BB0003D812E819F81E1EBFDE041E050E080819D
:101BC0008F15A9F481818B1791F482818A1779F49A
:101BD0008381871761F48481861749F4858183178F
:101BE00031F48681821719F487818917A1F04F5F3C
:101BF0005F4F70964436510511F7E0EBFDE041E090
:101C000050E08081882351F04F5F5F4F70964436DB
:101C10005105B9F72FC04436510560F59A0184E0AB
:101C2000220F331F8A95E1F7D901A056B24FFD016B
:101C3000E192888111968C931197898181838A81A1
:101C400082838B8183838C8184838D8185838E8144
:101C500086838F8187831A961C930E9319971C96FF
:101C60001C921E921B972155324FF90180818E7F65
:101C7000808302C04FEF5FEFCA01DF91CF911F91C8
:101C80000F91FF90EF900895DC01E0EBFDE021E083
:101C900030E08081882371F191818C91981751F502
:101CA000928111968C911197981721F59381129634
:101CB0008C9112979817F1F4948113968C91139745
:101CC0009817C1F4958114968C911497981791F4F4
:101CD000968115968C911597981761F497811696B1
:101CE0008C911697981731F4908517968C911797C9
:101CF000981741F02F5F3F4F70962436310549F613
:101D00002FEF3FEFC90108958436910590F4FC014F
:101D100094E0EE0FFF1F9A95E1F7E056F24F8081B5
:101D2000882339F020E081859285892B19F421E000
:101D300001C020E0822F089580E008950895843640
:101D4000910568F4FC0124E0EE0FFF1F2A95E1F7EE
:101D5000E056F24F1082128611861486138608957B
:101D6000FC018436910518F020E030E009C034E031
:101D7000EE0FFF1F3A95E1F7E056F24F21853285CD
:101D8000C9010895FC0184369105F8F4DF0154E09F
:101D9000AA0FBB1F5A95E1F7A056B24F8C9188232A
:101DA000A1F0E436F10530F419968D919C911A97C3
:101DB000892B69F044E0EE0FFF1F4A95E1F7E056EA
:101DC000F24F0184F285E02DE1CFE0E0F0E0CF01B9
:101DD0000895AC01E0EBFDE021E030E08081882354
:101DE00029F0818592858417950741F02F5F3F4F39
:101DF00070962436310591F720E030E0C90108954E
:101E00008436910520F5FC0174E0EE0FFF1F7A95F2
:101E1000E1F7E056F24F21853285FC013196DF0172
:101E200064E0AA0FBB1F6A95E1F7A056B24F0CC041
:101E30008C91882339F019968D919C911A9782176D
:101E4000930739F031965096E436F10589F7E0E0D2
:101E5000F0E0CF01089580EA9DE00895FC0184360A
:101E6000910518F020E030E009C0A4E0EE0FFF1F5C
:101E7000AA95E1F7E056F24F23853485C90108950C
:101E8000FC018436910548F4B4E0EE0FFF1FBA95CB
:101E9000E1F7E056F24F7487638708958436910521
:101EA00018F020E030E008C09C0184E0220F331FCE
:101EB0008A95E1F72056324FC90108950895089593
:101EC000FC0185858F778587089580E090E00895EF
:101ED00080E090E0089521E0FC0194E0EE0FFF1F08
:101EE0009A95E1F7E056F24F8081882331F08185A1
:101EF0009285009719F02F5FEFCF20E0822F089591
:101F000080E496E0E0EAFDE0DF019C011D922150B3
:101F10003040E1F70895CF92DF92EF92FF920F9356
:101F20001F93DF93CF9300D000D00F92CDB7DEB7D1
:101F300090939D0D80939C0D70939F0D60939E0DCB
:101F400021E02093D41F0E9470160E94CA286C01C1
:101F50000097E9F18C010F5F1F4F81E698E8F601C9
:101F6000928381838091C71FF80182838F5F809362
:101F7000C71F8091C81F9091C91F94838383E090ED
:101F80009C0DF0909D0DC7010E94C20EF801968332
:101F9000858310861782F286E1861486138624E0F4
:101FA000258720919E0D30919F0D37872687892B9D
:101FB00059F08AE18983DB82CA821D821C82CE01AC
:101FC00001960E94A51503C0C6010E94F4280F9037
:101FD0000F900F900F900F90CF91DF911F910F9165
:101FE000FF90EF90DF90CF900895DF93CF930F9203
:101FF000CDB7DEB79C01AB018436910508F058C01F
:10200000FC01A4E0EE0FFF1FAA95E1F7E056F24FA6
:102010008081882351F46091A0267091A12683EBE2
:1020200092E00E94393580E044C0232B09F440C07F
:102030000184F285E02D3097D9F181E08983611523
:10204000710519F420E030E003C09B01265F3F4F8B
:10205000DF0174E0AA0FBB1F7A95E1F7A056B24FDB
:102060008C91882331F189818F5F898319968D91B5
:102070009C911A97892B51F44115510529F0DA01E9
:102080001696FC93EE931597898113C0211531059F
:1020900021F0D901ED93FD939D0164E0EE0FFF1F48
:1020A0006A95E1F7E056F24F0184F285E02DD0CF3A
:1020B00081E00F90CF91DF9108952F923F924F9240
:1020C0005F926F927F928F929F92BF92CF92DF9298
:1020D000EF92FF920F931F93DF93CF93CDB7DEB7AD
:1020E000E6970FB6F894DEBF0FBECDBF80911B03FD
:1020F00090911C03A0911D03B0911E0389839A83C4
:10210000AB83BC836091A0267091A12688EC92E0FD
:102110000E94393560EB862E6DE0962E51E0652EDB
:10212000712C45E0242E312C2C0E3D1E2E010894DE
:10213000411C511CD4012C91222309F494C0119606
:102140001C9111971296DC9012971396CC901397CE
:102150001496BC90149715966C91159716967C91D1
:10216000169717968C91179718969C91EDB7FEB716
:1021700076970FB6F894FEBF0FBEEDBFEDB6FEB674
:102180000894E11CF11C32822182E8EDF2E0D701D3
:102190001396FC93EE931297F201E20FF11D20814A
:1021A00014962C93149715961C92159717967C925B
:1021B0006E921697D4011996ED91FC911A9734E01E
:1021C000EE0FFF1F3A95E1F7E056F24F2081F20142
:1021D000E20FF11D2081F7012087118619962D91BC
:1021E0003C911A97338722871B962D913C911C971F
:1021F00035872487212F3D2D4C2D5B2D00E20E9439
:102200007C31C901BA01D7011E962C931E971F96E7
:102210009C931F9750964C93509751967C9351974F
:1022200052961C9352975396DC9253975496CC92A5
:1022300054975596BC920E94AB35EDB7FEB7729697
:102240000FB6F894FEBF0FBEEDBF8091A02690910F
:10225000A12692838183348223820E9428350F90A5
:102260000F900F900F9040E150E0840E951E08945F
:10227000611C711C50EE851653E1950609F05ACF8A
:102280006091A0267091A1268AEF92E00E943935D4
:1022900000E010E0EE2425E0822E912C8C0E9D1E95
:1022A0009BE0492E93E0592E3E010894611C711C5D
:1022B00001C086018DB79EB708970FB6F8949EBFF0
:1022C0000FBE8DBFADB7BEB71196EDB7FEB7928208
:1022D000818213965C924E921297F80184E0EE0F81
:1022E000FF1F8A95E1F7E056F24F8081F301E80F76
:1022F000F11D808114968C93149715961C92159756
:1023000017961C930E9316970E94AB350F900F9063
:102310000F900F908091A0269091A126ADB7BEB7E7
:1023200012969C938E93119714969C928E9213976B
:102330000E9428350F900F900F900F90C8010E94B7
:10234000E90E009719F0E3948C01B4CFC8010E9404
:10235000000F6C010097B1F06091A0267091A1264A
:1023600083E193E00E94393510E009C06091A02616
:102370007091A12686E193E00E9439351F5F1E15FA
:10238000A8F397CFF801B4E0EE0FFF1FBA95E1F77D
:10239000E056F24F018512850115110511F0EA94FE
:1023A000D5CFE6960FB6F894DEBF0FBECDBFCF9166
:1023B000DF911F910F91FF90EF90DF90CF90BF9032
:1023C0009F908F907F906F905F904F903F902F9055
:1023D0000895AF92BF92CF92DF92EF92FF920F9348
:1023E0001F93DF93CF9300D000D00F92CDB7DEB70D
:1023F0008C01DC0112969C91129780E011962C9131
:10240000820F911DB8E883369B0709F0AFC00E9488
:10241000CA285C01009709F43BC168010894C11CFB
:10242000D11C7C010894E11CF11C035F1F4FC80103
:102430000E94440EBC01EFEF8F3F9E0721F1FC018B
:10244000B4E0EE0FFF1FBA95E1F7E056F24F80813E
:102450008823C9F0218532852115310549F4643678
:10246000710588F4108212861186148613860BC0BB
:10247000D6011A968D919C911B978217930719F09C
:10248000C9010E948B0FF601828593850E94701608
:10249000D6011A964D915C911B9754968C91B80178
:1024A0000E94C70D8C01F701958B848B83E698E819
:1024B000D50112969C938E9311978091C71F8283AA
:1024C0008F5F8093C71F8091C81F9091C91F94830D
:1024D0008383F60187819085D70116969C938E930E
:1024E00015978091CA1F9091CB1F18969C938E933D
:1024F000179782E019968C931997828593851B967E
:102500009C938E931A9784851C968C931C97858533
:102510001D968C931D9786851E968C931E97878596
:102520001F968C931F97808950968C935097818922
:1025300051968C935197828952968C9352978389A6
:1025400053968C9381E08093D41F86E1F5018083BC
:102550008AE18983BB82AA821D821C82CE010196F8
:102560000E94A515C8010E94881C94C08356984CEF
:1025700009F08EC00E94CA285C01009709F488C047
:1025800068010894C11CD11C7C010894E11CF11C59
:10259000C80108960E94440EBC012FEF8F3F92079E
:1025A000B9F0FC01A4E0EE0FFF1FAA95E1F7E05699
:1025B000F24F81859285009749F46436710540F4A5
:1025C0001082128611861486138602C00E948B0F19
:1025D000D60152968C91B601695F7F4F40E050E082
:1025E0000E94C70D8C0183E69CE8F50192838183EC
:1025F0008091C71FD70112968C9312978F5F80939B
:10260000C71F8091C81F9091C91F14969C938E93E9
:102610001397F601878190852185328543855485FE
:102620006585768515968C93159716969C931697C7
:1026300017962C93179718963C93189719964C93C6
:1026400019971A965C931A971B966C931B971C9676
:102650007C931C978091CA1F9091CB1F1E969C93D0
:102660008E931D9782E01F968C931F9751961C9313
:102670000E93509782E1D5018C938AE18983BB82C6
:10268000AA821D821C82CE0101960E94A51502C05D
:1026900000E010E000D080E293E0EDB7FEB7928357
:1026A00081830E94643500D083E393E0ADB7BEB769
:1026B00012969C938E93119714961C930E931397D6
:1026C0000E9464350F900F9086E393E0EDB7FEB75C
:1026D000928381830E946435C80121E00F900F909E
:1026E000FC0174E0EE0FFF1F7A95E1F7E056F24F20
:1026F0008081882331F081859285009719F02F5FC2
:10270000EFCF20E000D000D0EDB7FEB7319683E3E5
:1027100093E0ADB7BEB712969C938E931197228328
:1027200013820E9464350F900F900F900F908FE3EB
:1027300093E00E947635C8010E94741C0F900F90A0
:102740000F900F900F90CF91DF911F910F91FF90FD
:10275000EF90DF90CF90BF90AF90089588EE93E018
:1027600064EC7DE00E94AF0980939B0D0895DF9398
:10277000CF9300D000D00F92CDB7DEB70E94CA2809
:10278000DC01009779F1FC01319680E090E8129627
:102790009C938E9311978091C61F82838F5F809345
:1027A000C61F8091C81F9091C91F94838383809115
:1027B000CA1F9091CB1F968385838FEF90E49087FB
:1027C000878386E081878091D01F82878BE08C93FE
:1027D0008AE18983BB83AA831D821C82CE01019674
:1027E0000E94A5150F900F900F900F900F90CF9112
:1027F000DF91089508950895CB010E94F42808956B
:10280000EF92FF920F931F93DF93CF9300D000D0EE
:102810000F92CDB7DEB70E94CA287C01009709F459
:1028200044C08C010F5F1F4F81E698E8F701928347
:1028300081838091C71FF80182838F5F8093C71FB8
:102840008091C81F9091C91F948383838091CA1F70
:102850009091CB1F90878783948783878091E01323
:102860009091E113928781878091E21385870E947E
:10287000E918F80186870E94EC18F801878780E143
:10288000F70180838091E0139091E1130E94C20EC2
:10289000F801858316828AE18983FB82EA821D82A0
:1028A0001C82CE0101960E94A5150F900F900F90EB
:1028B0000F900F90CF91DF911F910F91FF90EF90AC
:1028C0000895282F8091CA1F9091CB1F6817790710
:1028D000A1F08091C51F882381F07093E11360936C
:1028E000E0132093E2131092E313CB010E947016C1
:1028F0000E94001481E08093D41F0895FC01DC0144
:1029000011961D968C911D9790E08F779070823074
:10291000910579F0833091051CF40197E9F406C024
:102920008330910569F00597B9F411C00E94731CBA
:1029300008951B968D919C911C970E94981C089558
:102940001B968D919C911C970E945A22089560813C
:102950006051CD010E943B0708956F927F928F9244
:102960009F92AF92BF92CF92DF92EF92FF920F931E
:102970001F93DF93CF9300D000D00F92CDB7DEB777
:102980006C01962E3A01822E8091CA1F9091CB1F26
:10299000C816D90609F47DC08FEFC8168FEFD80688
:1029A00009F477C08091C51F882309F472C00E9482
:1029B000CA285C01009709F46CC07C010894E11CF2
:1029C000F11C81E698E8D50112969C938E9311979D
:1029D0008091C71FF70182838F5F8093C71F80910B
:1029E000C81F9091C91F948383838091CA1F9091BF
:1029F000CB1F90878783D286C18694878387C60141
:102A00000E947016C6010E94B00E8C015C2D4D2DE7
:102A100006C0C8010E94B00E502F412F8C01011535
:102A20001105B9F7D70115965C93159716964C9337
:102A300016971D968C9290E008C0F701E90FF11DE2
:102A4000D3018D913D0186879F5F9915B0F3F70102
:102A5000258136818091CA1F9091CB1F2817390795
:102A600019F02F5F3F4F21F4C5010E94F42811C0D7
:102A70008EE0980ED5019C928AE18983BB82AA825E
:102A80001D821C82CE0101960E94A51581E08093D3
:102A9000D41F0F900F900F900F900F90CF91DF9158
:102AA0001F910F91FF90EF90DF90CF90BF90AF906C
:102AB0009F908F907F906F90089525E00E94AD14B5
:102AC0000895DF93CF9300D0CDB7DEB77A836983C3
:102AD00062E0AE014F5F5F4F26E00E94AD140F90A1
:102AE0000F90CF91DF91089521E00E94AD140895D9
:102AF0009091FE1F8091FF1F20E0981321E0822F0C
:102B00000895DF93CF9300D0CDB7DEB78FB7898319
:102B1000F8948091FF1F8A839A818A818F5F8A83CC
:102B20008A81843108F01A828A818093FF1F89810B
:102B30008FBF25E0929F900111242050304EC90193
:102B40000F900F90CF91DF9108950F931F93DF9314
:102B5000CF930F92CDB7DEB78C018FB78983F894EE
:102B60008091FE1F2091FF1F90E0019664E170E0CC
:102B70000E941D3430E08217930741F4F8018181EF
:102B800092810097F9F00E94F4281CC02091FE1F4A
:102B9000822F90E0FC01EE0FFF1FEE0FFF1FE80FEA
:102BA000F91FE050F04ED80185E00D900192815060
:102BB000E1F7822F8F5F843108F080E08093FE1F61
:102BC00089818FBF0F90CF91DF911F910F91089551
:102BD000CF93DF9372C00E948115EC01888185310B
:102BE00009F44EC0863180F4813109F454C0823139
:102BF00020F4803109F061C027C0833109F448C056
:102C0000843109F05AC012C0883109F452C08931A8
:102C100030F48631A9F0873109F04FC034C08931D2
:102C200009F447C08A3109F048C038C08091C51FF7
:102C3000882309F042C089819A810E94821739C095
:102C4000E981FA81099539C08091C51F8823A9F1CE
:102C500089819A8101960E94600FE981FA8122851B
:102C600033858091CA1F9091CB1F2817390721F413
:102C7000CF010E947E141DC0CF010E94DF161DC02F
:102C80000E94B71316C089819A810E94E91111C070
:102C90000E94701C12C00E946F1C0FC0E981FA8153
:102CA0008191BF010E943D1BEB81FC81309709F0AF
:102CB000099589819A810E94F4289091FE1F809144
:102CC000FF1F981709F087CFDF91CF9108950E94D9
:102CD000F42808950E94F42808950E94F428089585
:102CE000CF92DF92EF92FF920F931F93DF93CF93D8
:102CF000CDB7DEB727970FB6F894DEBF0FBECDBFB6
:102D00006C010E94CA287C01009771F08C010F5F52
:102D10001F4FC601B8010E94F50FD82E82E08D1515
:102D200028F0C7010E94F42880E03AC083E698E8C2
:102D3000F701928381838091C71FF80182838F5F9F
:102D40008093C71F8091C81F9091C91F948383836C
:102D5000108617828BEB8187858196819A83898380
:102D600089819A810E942E0FF801628573858617EA
:102D70009707B9F289819A810E94400F8D2D90E0CA
:102D80000396880F991FF70180838AE18B83FD8268
:102D9000EC821F821E82CE0103960E94A51581E05F
:102DA00027960FB6F894DEBF0FBECDBFCF91DF914F
:102DB0001F910F91FF90EF90DF90CF900895CF92E9
:102DC000DF92EF92FF920F931F93DF93CF9300D088
:102DD00000D00F92CDB7DEB7D82EC92EE82EF92E2F
:102DE00087010F5F1F4F7198699A8AE090E065E64E
:102DF0007CE10E94AF09F801818592850E94840ED2
:102E0000882359F18091C71FF80182838F5F8093D7
:102E1000C71F81859285968385838091CA1F909173
:102E2000CB1F908787836091A0267091A12681E4B3
:102E300093E00E943935F801858196818F5F9F4F1D
:102E400009F445C08AE18983DA82CB821D821C8223
:102E5000F70180818250808335C08091C71FF801BF
:102E600082838F5F8093C71F818592850E94C20EE7
:102E7000F80196838583108617826091A026709151
:102E8000A12687E593E00E943935F8018185928576
:102E90000E947016882331F081E08093D41F8FE761
:102EA000F70109C0F801858196818F5F9F4F79F006
:102EB000F7018081825080838AE18983DA82CB8224
:102EC0001D821C82CE0101960E94A51504C08D2D85
:102ED0009C2D0E94F4280F900F900F900F900F9050
:102EE000CF91DF911F910F91FF90EF90DF90CF90E6
:102EF00008958091E4130895809393030895809139
:102F0000930308958091E413882369F0E091E51319
:102F1000F0E0EE0FFF1FEB51FC4E838194818C504B
:102F20009E4F94838383089584E10E9484210895B1
:102F300087E491E00E94170BE091E513F0E0EE0FBB
:102F4000FF1FEB51FC4E23813481280F311D348348
:102F5000238387E491E060E00E941A0B08951F9399
:102F600010E0809169208F3FE1F011E080916520B1
:102F7000909166209093C91F8093C81F209167206D
:102F8000309168203093CD1F2093CC1F0E94C2192E
:102F9000809169200E94610D80916D208F5F8093E8
:102FA000D01F812F0E94761C1F91089584E190E02C
:102FB0006DED77E10E94AF0908950F931F93DF93A2
:102FC000CF9300D000D00F92CDB7DEB724E120938D
:102FD00093039091D11F9F3F09F048C081E08093F7
:102FE000E41386E1E4E6F0E2DF011D928A95E9F759
:102FF000909369202093D11F6091A0267091A12603
:103000008FE693E00E94393500D000D000D0EDB7B4
:10301000FEB7319606ED1FE1ADB7BEB712961C9311
:103020000E93119785E793E09383828384E190E088
:10303000958384830E94AB350F900F908091A026DA
:103040009091A126EDB7FEB7928381831483038309
:103050000E9428350F900F900F900F906091A0263E
:103060007091A12688E793E00E9439354091D11FE5
:103070004B3148F4242F30E08091930390E0019687
:103080002817390761F41092E4138FEF8093D11F52
:103090000E94AF178BE793E00E94763531C0842FF2
:1030A0000E94610D0E94CA28DC01009721F1FC01F9
:1030B000319683E098E012969C938E9311978091BD
:1030C000C61F82838F5F8093C61F8FEF9FEF94830D
:1030D00083839683858387E0878388E08C938AE166
:1030E0008983BB83AA8386ED97E19D838C83CE0180
:1030F00001960E94A5158091D11F8F5F8093D11FEB
:103100000F900F900F900F900F90CF91DF911F9124
:103110000F910895EF92FF920F931F9388E00E9402
:103120008F1AF82EEE2488E00E948F1A082F10E0E4
:103130000E291F29C8010E94C2191093C91F0093AC
:10314000C81F80E090E00E94B4191092CB1F10922B
:10315000CA1F1F910F91FF90EF9008950E94C930F0
:103160000E94BA2882E060E042E00E94052E82E0E0
:1031700061E042E00E94052E81E062E042E00E94B0
:10318000052E81E063E042E00E94052E81E064E0CC
:1031900042E00E94052E0E94A90B60E072EC81E0E3
:1031A00090E00E946F300E946E2B80E090E00E94C1
:1031B00006230E94DE0A0E9442260E949D2E84E978
:1031C00093E00E94763578940E941F260E94E815AD
:1031D000FACF80911F140895809121140895809151
:1031E00020148B55089580E0089580E40895E9E364
:1031F000F1E080818E7F808380818D7F80838DE070
:1032000090E00197F1F780818160808308950895AF
:103210000895089581E491E06FE140E00E941D0B64
:10322000089581E491E06FE140E00E941D0B282F9A
:103230008151823058F0223049F0213039F080E05D
:1032400090E0213129F481E090E0089581E090E060
:1032500008958091390181FD02C080E40895809134
:1032600039018D7F8093390181EE96E00197F1F766
:1032700081E491E06FE140E00E941D0B883069F32A
:1032800083E40895CF93DF93EC0181E491E06FE153
:1032900040E00E941D0B863021F0813011F084E463
:1032A00008C086E491E06FE140E00E941D0B888336
:1032B00080E4DF91CF91089581E591E060E245E0FF
:1032C0000E941D0B882311F08BE408958AE4089571
:1032D00081E591E060E144E00E941D0B089581E5E5
:1032E00091E06FE040E00E941D0B089589E491E0B9
:1032F0006FE040E00E941D0B089588E491E060E6D5
:1033000045E00E941D0B089585E491E06FE040E0E8
:103310000E941D0B089588E491E06FE140E00E9457
:103320001D0B089586E491E06FE140E00E941D0BC3
:1033300080931F141092D41F08950F931F93CF935F
:10334000DF938C01C4E6D1E0F80161918F01CE01D9
:103350000E941A0B2196F1E0CC36DF07A9F7DF9126
:10336000CF911F910F9108951F93682F192F80E619
:1033700091E00E941A0B81E691E0612F0E941A0BE6
:103380001F9108951F93682F192F82E691E00E94E4
:103390001A0B83E691E0612F0E941A0B1F9108958A
:1033A000282F8EE691E068E043E00E94270B089505
:1033B000282F84E491E060E245E00E94270B089505
:1033C000E9E3F1E080818D7F80838DE090E00197DB
:1033D000F1F782E491E06FE140E023E00E94270BE7
:1033E00083E090E00197F1F708958091390181FF22
:1033F00002C080E408950E94E0198BE490E00197F8
:10340000F1F781E491E06FE140E00E941D0B88300C
:1034100011F083E40895809139018260809339012D
:1034200080E408951F93982F162F603110F082E4E6
:103430001DC08091390181FF02C084E417C0992327
:1034400031F081E591E060E144E021E005C081E5F3
:1034500091E060E144E020E00E94270B81E591E0EB
:103460006FE040E0212F0E94270B80E41F91089518
:10347000282F803110F082E408958091390181FF76
:1034800002C084E4089585E491E06FE040E00E948A
:10349000270B80E408951F93182F8B50803110F074
:1034A00082E42EC08091390181FF02C084E428C0EB
:1034B00088E491E06FE140E00E941D0B8117F9F074
:1034C00088E491E06FE140E0212F0E94270B81E426
:1034D00091E06FE140E00E941D0B863011F08930D1
:1034E00021F48DE291E00197F1F788E491E06FE13A
:1034F00040E00E941D0B811711F083E401C080E4BD
:103500001F91089580911E14882331F48CE591E079
:103510000E94170B80931E1480911E1408950F9320
:103520001F93DF93CF9300D0CDB7DEB7082F19825A
:1035300081E491E06FE140E00E941D0B182F0E9492
:10354000821A833021F00E94821A8730D1F416301B
:1035500019F4069510E011C0163199F4FACF86E4FB
:1035600091E060E645E00E941D0B8A8389819A8183
:10357000880F880F892B89831F5F101780F389813B
:1035800002C00E94AD340F900F90CF91DF911F9138
:103590000F9108950F931F93182F883051F08630A4
:1035A00041F0893031F0863121F0893111F082E427
:1035B00061C08091390181FF02C084E45BC00E9438
:1035C00011198823E1F70E94821A823039F40E948F
:1035D0007917882319F0163109F416E081E491E097
:1035E0006FE140E00E941D0B082F181709F441C03D
:1035F000183019F40E94E01932C0193161F4893091
:10360000F1F082E491E06FE140E029E00E94270BB5
:10361000063189F40DC0163191F4893081F082E4CD
:1036200091E06FE140E029E00E94270B093119F495
:1036300083E090E002C089E691E00197F1F782E42F
:1036400091E06FE140E0212F0E94270B083019F430
:1036500089E691E002C083E090E00197F1F781E410
:1036600091E06FE140E00E941D0B811711F083E4AF
:1036700001C080E41F910F9108951F93CF93DF93B2
:10368000182FEB0187FF02C082E41BC00E941119B2
:103690008823E1F789E10E94CA1A81E491E06FE191
:1036A00040E00E941D0B8931A9F78D819E81909386
:1036B000D31F8093D21F1E5FCE01612F0E94EF0C9B
:1036C00080E4DF91CF911F9108950F931F93DF93B3
:1036D000CF9300D000D00F92CDB7DEB787E491E052
:1036E0000E94170B809320140E94100D8C010097EC
:1036F00009F47FC000581F4FF80190810058104016
:1037000020912014253510F024E503C0222309F46C
:1037100021E092959695969593708FEF989FC001B2
:10372000112430E0AC01429FC001439F900D529F95
:10373000900D11246CEF70E00E9409346F3F710509
:1037400011F008F06FEF6093211400581F4FF8013B
:10375000608300581040C8010E94542F19821B82B8
:103760001A821D821C82F801928180E02181AC01C5
:10377000420F511D9A0186818F3F31F487818F3F1F
:1037800019F4842F807F69F558E821363507E1F078
:1037900088E82236380740F4E8E023303E0761F03D
:1037A00020503048D9F40AC048E82336340771F075
:1037B0002356384C99F40EC085E10DC00E9479174C
:1037C000882361F084E107C080E105C0F8018285AB
:1037D000813021F487E189831B830A8389818823CF
:1037E00021F4C8010E94F42804C0CE0101960E9471
:1037F000A5150F900F900F900F900F90CF91DF9124
:103800001F910F910895DF93CF9300D000D000D087
:10381000CDB7DEB71092D41F1A821C821B8282E4BD
:1038200091E060EE45E00E941D0B89838981813023
:1038300039F0813028F0833029F0853039F404C024
:1038400081E103C083E101C082E18A838A81882308
:1038500021F0CE0102960E94A51586E10E94CA1AA7
:1038600026960FB6F894DEBF0FBECDBFCF91DF9185
:103870000895FF920F931F93F82E0DEF13E0C801E8
:103880000197F1F70E94F10A0E94F71882E491E093
:103890006FE140E023E00E94270BC8010197F1F798
:1038A0008EE491E06CE50E941A0B89E491E06FE0F0
:1038B00040E027E00E94270BFF2011F00E94D60B6A
:1038C00080E41F910F91FF900895719A699A08956D
:1038D000729A6A9A0895739A6B9A08950895089552
:1038E000089508950895089508950895089560919C
:1038F000A0267091A12684EA93E00E943935609158
:10390000A0267091A12683ED93E00E943935089599
:103910007198699A8AE090E065E67CE10E94AF09BF
:10392000089588EE93E061E97CE10E94AF09089573
:10393000EF92FF920F931F937C017198699A81E037
:1039400090E065E67CE10E94AF096091A02670914D
:10395000A12687EF93E00E94393500D000D000D037
:10396000EDB7FEB7319606ED1FE1ADB7BEB71296C3
:103970001C930E93119781E194E093838283F582E7
:10398000E4820E94AB350F900F908091A026909119
:10399000A126EDB7FEB792838183148303830E942F
:1039A00028350F900F900F900F9083E0B7010E9481
:1039B00061141F910F91FF90EF9008957198699A8B
:1039C00089E190E065E67CE10E94AF0908950F93DC
:1039D0001F93882349F080932814709327146093D1
:1039E000261481E08093291480912814882309F4F7
:1039F00061C08091291490E00E944E0FFC018081EB
:103A0000882311F490E03DC0809128148130C1F5E5
:103A10006091A0267091A12684E194E00E9439353E
:103A200000D000D000D0EDB7FEB7319606ED1FE113
:103A3000ADB7BEB712961C930E93119781E194E037
:103A40009383828380912914848315820E94AB35ED
:103A50000F900F908091A0269091A126EDB7FEB710
:103A600092838183148303830E9428350F900F90E3
:103A70000F900F906091291482E070E00E94611411
:103A800091E0809129148F5F80932914843660F42B
:103A9000992319F481E090E002C08AEF90E068EF8A
:103AA00070E20E94AF0906C01092271410922614EB
:103AB000109228141F910F9108959F92AF92BF9278
:103AC000CF92DF92EF92FF920F931F93DF93CF93EA
:103AD000CDB7DEB7C656D0400FB6F894DEBF0FBEE6
:103AE000CDBF6D98759A659919C08091251488236A
:103AF000B9F480912A14882329F00E94080A1092B0
:103B00002A1408C084E294E00E94763510922A0CB0
:103B10000E94920781E08093251402C01092251420
:103B20000E947323882309F450C38091D41F8823F3
:103B300009F04BC30E94B223182F843111F4109264
:103B4000221480912214882301F17E010894E11C43
:103B5000F11C00E0D7011C930F5F043659F00E945E
:103B600073230894E11CF11C882321F00E94B223E6
:103B7000182FF0CF8091231490912414602FAE0160
:103B80004F5F5F4F0E94741520C383E394E00E944F
:103B900066231936F1F01A3650F4103509F4EEC2E6
:103BA000133609F485C2113409F009C3F2C2133780
:103BB00009F463C2143720F4103709F000C340C27F
:103BC000143721F0173709F0FAC2B8C20E945D100D
:103BD000F6C2EDB7FEB73A970FB6F894FEBF0FBE28
:103BE000EDBF31966E010894C11CD11CADB7BEB7B4
:103BF0001296DC92CE92119786E394E093838283AF
:103C00008091CA1F9091CB1F958384838091CC1F94
:103C10009091CD1F978386838091CE1F9091CF1F67
:103C2000918780870E94AB35EDB7FEB736960FB609
:103C3000F894FEBF0FBEEDBF8091A0269091A12603
:103C400092838183D482C3820E94283500D0EDB74D
:103C5000FEB73196ADB7BEB71296DC92CE921197F1
:103C600082E694E0938382838091D11F84831582BE
:103C70000E94AB350F900F908091A0269091A126C5
:103C8000EDB7FEB792838183D482C3820E94283528
:103C90000F900F900F900F906091A0267091A12629
:103CA0008EE694E00E94393500D000D000D0EDB708
:103CB000FEB7319606ED1FE1ADB7BEB712961C9365
:103CC0000E9311978AE794E0938382838091C81FB3
:103CD0009091C91F958384830E94AB350F900F90FC
:103CE0008091A0269091A126EDB7FEB792838183A3
:103CF000148303830E9428350F900F900F900F902C
:103D000083E394E00E9466231091BD1FB090BE1F14
:103D1000A090BF1F9090C01F6091C11F7091C21FE3
:103D20008091C31F9091C41F2DB73EB72C503040D7
:103D30000FB6F8943EBF0FBE2DBFEDB6FEB6089489
:103D4000E11CF11CADB7BEB71296DC92CE92119772
:103D50002DE734E0F70133832283212F3B2D4A2DB9
:103D6000592D00E20E947C31C901BA01D701149695
:103D70002C93149715969C93159716964C9316971B
:103D800017967C93179718961C9318971996BC92C0
:103D900019971A96AC921A971B969C920E94AB3573
:103DA000EDB7FEB738960FB6F894FEBF0FBEEDBF65
:103DB0008091A0269091A12692838183D482C38290
:103DC0000E9428350F900F900F900F908091C51F83
:103DD000882319F423E934E002C029E934E08DB7DF
:103DE0009EB708970FB6F8949EBF0FBE8DBFEDB774
:103DF000FEB731968E010F5F1F4FADB7BEB712965B
:103E00001C930E9311978EE994E0938382833583FC
:103E100024838091D01F868317820E94AB350F9038
:103E20000F900F900F908091A0269091A126EDB752
:103E3000FEB792838183148303830E9428350F90F9
:103E40000F900F900F9088E00E948F1A00D000D042
:103E500000D0EDB7FEB73196ADB7BEB712961C9342
:103E60000E93119728EB34E03383228384831582E9
:103E70000E94AB350F900F908091A0269091A126C3
:103E8000EDB7FEB792838183148303830E942835A4
:103E90000F900F900F900F900E94821A833059F06C
:103EA000873069F0823021F436EEE32EF12C0AC01F
:103EB000E82EFF2407C027EEE22EF12C03C094ED7C
:103EC000E92EF12C6091A0267091A12686EC94E059
:103ED0000E9439358DE591E00E94170B2DB73EB752
:103EE000285030400FB6F8943EBF0FBE2DBFEDB73F
:103EF000FEB731968E010F5F1F4FADB7BEB712965A
:103F00001C930E9311972EEC34E033832283F582B9
:103F1000E482868317820E94AB350F900F900F903A
:103F20000F908091A0269091A126EDB7FEB79283C5
:103F30008183148303830E94283500D0EDB7FEB738
:103F40003196ADB7BEB712961C930E9311978BEDB9
:103F500094E09383828388EEE82E84E0F82EF58245
:103F6000E4820E94AB350F900F908091A026909133
:103F7000A126EDB7FEB792838183148303830E9449
:103F8000283500D0EDB7FEB73196ADB7BEB7129663
:103F90001C930E9311978BEE94E09383828388E0B9
:103FA00090E0958384830E94AB350F900F908091B1
:103FB000A0269091A126EDB7FEB79283818314834A
:103FC00003830E94283500D0EDB7FEB73196ADB718
:103FD000BEB712961C930E9311978AEF94E09383C9
:103FE000828389E095E0958384830E94AB350F90AE
:103FF0000F908091A0269091A126EDB7FEB79283F5
:104000008183148303830E94283500D0EDB7FEB767
:104010003196ADB7BEB712961C930E9311978DE0F3
:1040200095E093838283F582E4820E94AB35EDB7FD
:10403000FEB736960FB6F894FEBF0FBEEDBFBFC0F9
:104040006091A0267091A1268EE195E00E943935FD
:104050008E010F5F1F4FC80162E341E00E94D5232C
:10406000C8010E94BD34682F8093231490932414B8
:1040700082E0792F0E946114A2C06091A026709105
:10408000A12682E395E00E9439358E010F5F1F4F14
:10409000C80162E341E00E94D523C8010E94BD34FB
:1040A000909324148093231481E08093221487C07A
:1040B0006091A0267091A12689E495E00E9439358F
:1040C0008E010F5F1F4FC80162E341E00E94D523BC
:1040D000C8010E94BD34F82E6091A0267091A126DF
:1040E0008AE595E00E943935C80162E341E00E940B
:1040F000D5238F2D0E94660D0E948A186091A026FC
:104100007091A1268CE695E00E94393581E080937C
:10411000C51FC8010E94BD349093241480932314BA
:10412000009709F44CC00E94C21980912314909109
:1041300024149093C91F8093C81F41C06091A0268A
:104140007091A1268BE895E00E9439358E010F5FB2
:104150001F4FC80162E341E00E94D523C8010E94BD
:10416000BD3490932414809323140E94E815809109
:104170002314909124140E945E0F21C06091A02608
:104180007091A1268EE995E00E9439350E940C2499
:1041900016C06091A0267091A1268DEB95E00E943B
:1041A0003935CE01019662E341E00E94D523898131
:1041B000803729F481E060E070E00E94E71C8AEF1C
:1041C00090E067E77CE10E94AF09CA59DF4F0FB664
:1041D000F894DEBF0FBECDBFCF91DF911F910F913D
:1041E000FF90EF90DF90CF90BF90AF909F90089599
:1041F00080E060E070E00E94E71C08958FE691E0A7
:1042000060E00E941A0B82E060E070E00E9461149E
:1042100084EF91E06EEF70E20E94AF0980932A1460
:104220000895EF92FF920F931F93DF93CF93CDB733
:10423000DEB728970FB6F894DEBF0FBECDBF80E083
:1042400090E068E08E010F5F1F4FA8010E94C00B35
:1042500078019E01275F3F4FF80180818F3FB9F4BD
:104260000F5F1F4F02171307B9F72AC088E00E949B
:104270008F1AF70181937F01E017F107B9F780E00A
:1042800090E068E0AE014F5F5F4F0E94AA0B80E1B3
:1042900090E062E08E010F5F1F4FA8010E94C00BEB
:1042A00089819A818F5F9F4F91F484E190E09A8396
:1042B000898380E190E062E0A8010E94AA0B07C018
:1042C00080E00E94391C86E00E94CA1ACFCF28964F
:1042D0000FB6F894DEBF0FBECDBFCF91DF911F9117
:1042E0000F91FF90EF9008950E94DE1C0E94112113
:1042F0000E9494176D98759A6D98759A8CB18FED90
:1043000095E00E94763508951F93182F0E94660D40
:104310000E948A1800D08CEE95E0ADB7BEB7129619
:104320009C938E9311970E94643500D0EDB7FEB731
:1043300031968AE794E0ADB7BEB712969C938E9300
:104340001197128313820E9464350F900F900F9083
:104350000F908FE096E00E94763581E08093C51F34
:104360001F910895EF92FF920F931F936091A026E3
:104370007091A12681E196E00E94393500D000D0ED
:1043800000D0EDB7FEB7319606ED1FE1ADB7BEB771
:1043900012961C930E9311978AE794E0938382837D
:1043A0008091672090916820958384830E94AB352B
:1043B0000F900F908091A0269091A126EDB7FEB7A7
:1043C00092838183148303830E9428350F900F907A
:1043D0000F900F906091A0267091A12683E296E045
:1043E0000E94393500D000D000D0EDB7FEB731962D
:1043F000ADB7BEB712961C930E93119741E1E42E10
:1044000044E0F42EF382E282809169208483158255
:104410000E94AB350F900F908091A0269091A1261D
:10442000EDB7FEB792838183148303830E942835FE
:104430000F900F900F900F906091A0267091A12681
:104440008BE296E00E94393500D000D000D0EDB765
:10445000FEB73196ADB7BEB712961C930E93119767
:10446000F382E28280916D20848315820E94AB35B5
:104470000F900F908091A0269091A126EDB7FEB7E6
:1044800092838183148303830E9428350F900F90B9
:104490000F900F9080916720909168206091692023
:1044A0000E94C30D1F910F91FF90EF9008950E94FD
:1044B00091070895EF92FF920F931F937C016091F3
:1044C000A0267091A12685E396E00E94393500D0A0
:1044D00000D000D0EDB7FEB7319606ED1FE1ADB7C5
:1044E000BEB712961C930E9311978AE794E09383BC
:1044F0008283F582E4820E94AB350F900F90809109
:10450000A0269091A126EDB7FEB7928381831483F4
:1045100003830E9428350F900F900F900F906091A9
:10452000A0267091A1268BE496E00E9439350E9466
:10453000EC1800D000D000D0EDB7FEB73196ADB783
:10454000BEB712961C930E93119751E1E52E54E0DD
:10455000F52EF382E282848315820E94AB350F90A0
:104560000F908091A0269091A126EDB7FEB792837F
:104570008183148303830E9428350F900F900F903E
:104580000F906091A0267091A12681E596E00E948F
:1045900039350E94E91800D000D000D0EDB7FEB741
:1045A0003196ADB7BEB712961C930E931197F38256
:1045B000E282848315820E94AB350F900F90809128
:1045C000A0269091A126EDB7FEB792838183148334
:1045D00003830E9428350F900F900F900F9083E374
:1045E00094E00E9466237198699A8AE090E065E6FB
:1045F0007CE10E94AF091F910F91FF90EF90089509
:104600000895089580E090E0089508951092AE1402
:104610002091AE142093AD1410922C1420912C14E0
:1046200020932B1428E92093C90026E02093CA0088
:104630001092CD002CE02093CC0090933015809305
:104640002F1508951092C9000895382F80913215C2
:104650008823D9F5789490912B149F5F97FF05C01C
:1046600090E003C0222319F00EC0209131158091F3
:104670002C149817B9F3E0912B14F0E0E55DFB4E94
:10468000328390932B148091C90085FD1EC08091C8
:10469000C80085FFFCCF90912C14E92FF0E0E55D78
:1046A000FB4E228180912B14981711F42FEF06C036
:1046B000E92FEF5FE7FDE0E0E0932C142093CE00BC
:1046C0008091C90080628093C9000895CF93DF93E1
:1046D000EC0103C00E942523219688818823D1F70D
:1046E000DF91CF9108958091AD149091AE14282F51
:1046F00030E0291B310937FF02C020583F4F822F7D
:1047000008958091AD149091AE14282F30E0291BAC
:10471000310937FF02C020583F4F822F0895809102
:104720002B1490912C14282F30E0291B310937FFCE
:1047300002C020583F4F822F089590912C14E92FEA
:10474000F0E0E55DFB4E228180912B14981711F467
:104750002FEF06C0E92FEF5FE7FDE0E0E0932C14B8
:10476000822F08958091AD149091AE14282F30E0DF
:10477000291B310937FF02C020583F4F222391F3F4
:104780009091AE14E92FF0E0E355FB4E2281809129
:10479000AD14981711F42FEF06C0E92FEF5FE7FD76
:1047A000E0E0E093AE14822F0895DF92EF92FF9243
:1047B0000F931F93CF93DF93EC01D42E00E0E62EEE
:1047C000FF240894E108F1080E94B223182F802FDB
:1047D00090E08E159F0524F01D3011F01830A1F7E0
:1047E000DD2019F0812F0E942523183061F01D3043
:1047F00081F41882802FDF91CF911F910F91FF904C
:10480000EF90DF9008950023F9F20150188221976C
:10481000DBCF19930F5FD8CF90E0809132158823BA
:1048200009F491E0909332150895089580E0089579
:1048300008951F920F920FB60F920BB60F9211248C
:104840002F933F934F935F936F937F938F939F9398
:10485000AF93BF93EF93FF932091CE009091AD144F
:104860009F5F97FD90E08091AE14981741F0E09122
:10487000AD14F0E0E355FB4E22839093AD141092FB
:104880003115E0912F15F0913015309711F0822FEE
:104890000995FF91EF91BF91AF919F918F917F917A
:1048A0006F915F914F913F912F910F900BBE0F90A1
:1048B0000FBE0F901F9018951F920F920FB60F9278
:1048C0000BB60F9211242F938F939F93EF93FF9327
:1048D00090912B1480912C149817B1F090912C1476
:1048E000E92FF0E0E55DFB4E228180912B149817B3
:1048F00011F42FEF06C0E92FEF5FE7FDE0E0E09352
:104900002C142093CE0005C08091C9008F7D809328
:10491000C900FF91EF919F918F912F910F900BBE46
:104920000F900FBE0F901F90189508951F920F9231
:104930000FB60F920BB60F9211242F933F934F9304
:104940005F936F937F938F939F93AF93BF93EF93F7
:10495000FF939091C60080913315882309F03FC0E2
:104960009A3091F09D3081F0809134158F3F61F045
:10497000E0913415F0E0EB5CFA4E908380913415B1
:104980008F5F809334152BC0E0913415F0E0EB5C21
:10499000FA4E10821092341581E0809333152091E5
:1049A000331500D000D000D0EDB7FEB7319688EFB8
:1049B00098E0ADB7BEB712969C938E93119785E39E
:1049C00095E193838283248315820E9464358DB799
:1049D0009EB706960FB6F8949EBF0FBE8DBFFF918F
:1049E000EF91BF91AF919F918F917F916F915F9167
:1049F0004F913F912F910F900BBE0F900FBE0F90D4
:104A00001F901895EF92FF920F931F93809133158B
:104A1000813009F07FC01092802010929520109272
:104A2000331505E315E1C80163E270E00E94E43448
:104A3000FC0101900020E9F73197E81BF90BD80140
:104A40000D900020E9F78D010150104005531541EC
:104A5000E01BE0939420EF3F11F410929420109209
:104A600093201092A820EDB7FEB738970FB6F894B0
:104A7000FEBF0FBEEDBF31968091942090E08B5C1D
:104A80009A4EADB7BEB712969C938E93119784E061
:104A900099E09383828300E810E21583048385E91B
:104AA000E82E80E2F82EF782E6820E94DC350F9035
:104AB0000F900F900F908BE099E0EDB7FEB79283C7
:104AC0008183148303830E94643588E199E0ADB744
:104AD000BEB712969C938E9311971496FC92EE9209
:104AE00013970E9464350F900F900F900F90C8019C
:104AF00067E279E00E94EF34009761F480E399E087
:104B00000E94763588E399E00E94763586E499E044
:104B10000E9476351F910F91FF90EF9008951092AB
:104B2000351608950895FF920F931F93CF93DF9347
:104B3000EC01F62E8A0188818150823028F4CE0162
:104B4000BA010E9451263FC08EE499E00E9476355A
:104B500000D000D0EDB7FEB7319680E899E0ADB750
:104B6000BEB712969C938E931197F28213820E9485
:104B7000643586E999E0EDB7FEB7928381831483AB
:104B800003830E94643504E411E20F900F900F90AC
:104B90000F90C801BE014F2D50E00E94DB3400D0C1
:104BA00000D08EEA99E0ADB7BEB712969C938E9373
:104BB000119714961C930E9313970E9464350F90CF
:104BC0000F900F900F90DF91CF911F910F91FF9059
:104BD00008951F93CF93DF93FC01162FEA01808184
:104BE0008150823028F4CF01BA010E94C62623C02A
:104BF00088EB99E00E94763500D000D0EDB7FEB783
:104C0000319680E899E0ADB7BEB712969C938E932B
:104C10001197128313820E94643586E999E0EDB7FB
:104C2000FEB792838183D483C3830E9464350F903F
:104C30000F900F900F90DF91CF911F9108950E94D8
:104C4000022581E00E94DE2D882379F080913516BF
:104C5000882359F40E94902781E08093351688ECD0
:104C600090E06FE875E20E94AF0908958EB190E17F
:104C700089278EB96C9A88EE93E066E376E20E940B
:104C8000AF0908950E9411210E9436266D98759AE9
:104C90000E9494170E94C0008AEF99E00E94763526
:104CA0000895EF92FF920F931F93DF93CF93CDB7A9
:104CB000DEB7EB970FB6F894DEBF0FBECDBF7C0119
:104CC0008B01FC018081813079F583E19AE00E94BB
:104CD00076358EB194E089278EB96A9A82E089830D
:104CE0001A828091BD1F8B838091BE1F8C8380911F
:104CF000BF1F8D838091C01F8E838091C11F8F83C2
:104D00008091C21F88878091C31F89878091C41FAB
:104D10008A87C801BE016F5F7F4F4BE32EEB30EFF8
:104D20000DEB10EF0E94202AF7018081823009F5F7
:104D30000E9420092091391630913A16821B930B5C
:104D400090933A16809339162EB134E023272EB96A
:104D50006A9A00D000D021E33AE0EDB7FEB7328383
:104D60002183948383830E9464350F900F900F906A
:104D70000F90EB960FB6F894DEBF0FBECDBFCF916C
:104D8000DF911F910F91FF90EF900895EF92FF92A6
:104D90000F931F93DF93CF93CDB7DEB7EB970FB68B
:104DA000F894DEBF0FBECDBF7C018B01FC0180817A
:104DB000813079F584E69AE00E9476358EB194E0F0
:104DC00089278EB96A9A82E089831A828091BD1FF1
:104DD0008B838091BE1F8C838091BF1F8D838091B8
:104DE000C01F8E838091C11F8F838091C21F8887CF
:104DF0008091C31F89878091C41F8A87C801BE0123
:104E00006F5F7F4F4BE32DEB30EF0EEB10EF0E9407
:104E1000202AF7018081823009F50E942009209123
:104E2000391630913A16821B930B90933A16809361
:104E300039162EB134E023272EB96A9A00D000D05B
:104E40002CE73AE0EDB7FEB7328321839483838366
:104E50000E9464350F900F900F900F90EB960FB655
:104E6000F894DEBF0FBECDBFCF91DF911F910F91A0
:104E7000FF90EF9008950F931F93DF93CF93CDB7DB
:104E8000DEB7EB970FB6F894DEBF0FBECDBF81E063
:104E900089831A828091BD1F8B838091BE1F8C8372
:104EA0008091BF1F8D838091C01F8E838091C11F11
:104EB0008F838091C21F88878091C31F89878091CB
:104EC000C41F8A870E94200990933A16809339164E
:104ED0008091E5209091E620BE016F5F7F4F4BE30C
:104EE0002DEB30EF0EEB10EF0E94202A80913B1645
:104EF000843048F484EF91E06BE377E20E94AF09DD
:104F00008093E72002C010923B16EB960FB6F89400
:104F1000DEBF0FBECDBFCF91DF911F910F910895DE
:104F200080913C16882339F010923C168091E7203E
:104F30000E94080A089581E080933C1681E090E089
:104F40009093E6208093E5200E943B2708951092DD
:104F50004116089500D089EA9AE0EDB7FEB7928332
:104F600081830E9464350F900F900895EF92FF9215
:104F70000F931F93282F792F462F04E411E2C801C5
:104F8000622F50E00E94DB34C80167EC7AE00E9497
:104F9000EF34009709F0B3C080913D1690913E1612
:104FA000019731F40E94200990934321809342217C
:104FB00080913D1690913E16019690933E168093F7
:104FC0003D16C29708F4A8C00E94200920914221F2
:104FD00030914321821B930B90933F2180933E217C
:104FE0002EB134E023272EB96A9A00D000D000D029
:104FF000EDB7FEB731962DE13BE0ADB7BEB71296E7
:105000003C932E93119720913D1630913E16338399
:105010002283958384830E94643560913D1670914C
:105020003E1680E090E00E94F93220E030E04CEA49
:1050300052E40E9487337B018C0160913E21709184
:105040003F2180E090E00E94F9329B01AC01C80151
:10505000B7010E94603220E030E04AE754E40E9449
:1050600087330E94CD3270934121609340210F908D
:105070000F90EDB7FEB731962CE33BE0ADB7BEB76E
:1050800012963C932E931197738362830E9464352A
:1050900000D0EDB7FEB731968DE59BE0ADB7BEB75A
:1050A00012969C938E93119780913D1690913E1687
:1050B0009383828380913F169091401695838483D9
:1050C0000E9464350F900F908DE99BE0EDB7FEB71D
:1050D00092838183809140219091412194838383A5
:1050E0000E94643510923E1610923D1610924016A2
:1050F00010923F160F900F900F900F900DC080915F
:105100003F169091401601969093401680933F165B
:1051100082EA9BE00E9476351F910F91FF90EF90FD
:1051200008950F931F938EB194E089278EB96A9AE0
:1051300008EE10E2C80167EC7AE00E94F834F8014A
:1051400001900020E9F73197E01BF10B80E090E03F
:10515000B8014E2F2EEB30EF0DEB10EF0E94202AFE
:105160001F910F91089580914116882311F00E949C
:1051700091280895E0EEFDE182E496E18193919318
:105180008E579F4F2DE1EE3FF207C1F78FE08093DE
:105190009A210895DF93CF930F92CDB7DEB78FB7E3
:1051A0008983F894A0EEBDE1E0E0F0E02D913C9120
:1051B00011972115310561F0EE0FFF1FE052F24EFD
:1051C0001182108280919A21815080939A2105C08A
:1051D00031961296EF30F10549F789818FBFC901E9
:1051E0000F90CF91DF910895DF93CF930F92CDB7BA
:1051F000DEB79C018FB78983F894A0EEBDE1E0E0B3
:10520000F0E08D919C911197892B39F4EE0FFF1FDF
:10521000E052F24E3183208305C031961296EF3072
:10522000F10579F780919A218F5F80939A21898186
:105230008FBF0F90CF91DF91089580919A210895AB
:105240000895089580E0089580E0089508950895F0
:1052500008950F931F938C010E942B0FF80124E0F7
:10526000EE0FFF1F2A95E1F7E80FF91F80818823D1
:1052700019F420E030E003C09F012F5F3F4FC901C8
:105280001F910F9108959C01462F80E0B90150E0D5
:105290000E94BA2C08959F92AF92BF92CF92DF9254
:1052A000EF92FF920F931F93DF93CF93CDB7DEB7AB
:1052B000EB970FB6F894DEBF0FBECDBF982E0E94BD
:1052C0002B0F8C0141E0C42ED12C33E0E32EF12CC6
:1052D000EC0EFD1E5E010894A11CB11CF801808932
:1052E000882309F441C099821A828189F701808359
:1052F000F8018289F7018183F8018389F7018283AC
:10530000F8018489F7018383F8018589F701848393
:10531000F8018689F7018583F8018789F70186837B
:10532000F801808DF7018783F8018089F701848770
:10533000D186C086F801838D948DF7019687858785
:10534000F801868DF701808BF801858DF70187873D
:10535000F801818D928DF7019387828780E0B501F6
:105360004BE350E00E94BA2C005F1F4F0894C11C11
:10537000D11CF4E6CF16D10409F0B0CFEB960FB6EE
:10538000F894DEBF0FBECDBFCF91DF911F910F917B
:10539000FF90EF90DF90CF90BF90AF909F900895D7
:1053A0000F931F93DF93CF93CDB7DEB728970FB638
:1053B000F894DEBF0FBECDBFDE011196FC0188E080
:1053C00001900D928150E1F70E942B0F09811A8103
:1053D000BB81AC817D816E815F814885FC0191E05C
:1053E00080898823D9F081898017C1F48289811747
:1053F000A9F483898B1791F484898A1779F48589B4
:10540000871761F48689861749F48789851731F4EF
:10541000808D841719F4292F30E006C09F5F7096A5
:105420009436F1F62FEF3FEFC90128960FB6F894A6
:10543000DEBF0FBECDBFCF91DF911F910F910895B9
:10544000BF92CF92DF92EF92FF920F931F93C62EDF
:10545000B72ED42E79010E941901C701B8010E940C
:1054600037010E9491016C2D7B2D4D2D50E00E9443
:10547000DB348D2D0E9496010E943E031F910F91F7
:10548000FF90EF90DF90CF90BF900895AF92BF92C2
:10549000CF92DF92EF92FF920F931F93DF93CF9300
:1054A000CDB7DEB728970FB6F894DEBF0FBECDBFDD
:1054B000B82EA92E8B01E82EF92EC70102960E9464
:1054C000D0296C0119821A821B821C821D821E82C5
:1054D0001F821886C8010E942929009741F0DE0129
:1054E0001196FC0188E001900D928150E1F78FEF59
:1054F000C8168FEFD80609F04AC0F7019281809153
:10550000BD1F981709F05FC093818091BE1F981747
:1055100009F059C094818091BF1F981709F053C0BA
:1055200095818091C01F981709F04DC09681809198
:10553000C11F981709F047C097818091C21F981723
:1055400009F041C090858091C31F9817E1F59185BE
:105550008091C41F9817B9F581E780838981828380
:105560008A8183838B8184838C8185838D818683EB
:105570008E8187838F818087888581874181465F7F
:1055800080E06B2D7A2D50E00E94BA2C1CC08981DE
:10559000F70182838A8183838B8184838C818583D5
:1055A0008D8186838E8187838F818087888581879F
:1055B0004181465FC6016B2D7A2D2CEB30EF0BEB52
:1055C00010EF0E94202A28960FB6F894DEBF0FBE77
:1055D000CDBFCF91DF911F910F91FF90EF90DF90A2
:1055E000CF90BF90AF9008950F931F93CF93DF9309
:1055F000EC018881803759F58981863410F085E483
:105600008983CE0102960E94D0299C0118161906A2
:105610000CF05AC08091BD1F8A838091BE1F8B837E
:105620008091BF1F8C838091C01F8D838091C11F8B
:105630008E838091C21F8F838091C31F8887809142
:10564000C41F89874981465FC901BE0137C08730C1
:10565000B1F488E088838AE18983DE011296EDEB5C
:10566000FFE189E101900D928150E1F781E08B8F9C
:1056700080E0BE014CE150E00E94BA2C25C0813090
:1056800011F482E003C0803121F481E10E944B29B2
:105690001BC0853041F4CE0102960E94D029882398
:1056A00099F090E009C0833079F4CE0102960E940F
:1056B000D0291816190644F4BE014BE32CEB30EF49
:1056C0000BEB10EF0E94202A80E0DF91CF911F9119
:1056D0000F91089581E00E945E2D08950E94A32BF2
:1056E00008950F931F93CF93DF93EC018B01888173
:1056F000843019F480EB9BE004C0863059F48CEBC5
:105700009BE00E94763580E0BE014BE350E00E94B2
:10571000BA2C14C0813241F488EC9BE00E947635AB
:10572000CE010E94EB2E0AC0803741F482ED9BE04F
:105730000E947635CE01B8010E94462ADF91CF91B2
:105740001F910F9108951092021E1092FF1D10924A
:10575000041E1092031E1092061E1092051E109237
:10576000081E1092071E10920C1E10920B1E109213
:105770000E1E10920D1E1092101E10920F1E1092EF
:10578000121E1092111E1092161E1092131E1092CD
:10579000181E1092171E10921A1E1092191E1092A7
:1057A0001C1E10921B1E1092201E10921F1E109283
:1057B000221E1092211E1092241E1092231E10925F
:1057C000261E1092251E81E08093FE1D08951092E2
:1057D000021E1092161E1092FE1D0895CF92DF92A7
:1057E000EF92FF920F931F93CF93DF93E82FEA017D
:1057F00069018091021E882321F420E030E040E01E
:1058000008C08091161E882309F04EC021E030E0C8
:1058100041E06115710509F447C0209709F444C0BF
:10582000C114D10409F440C0E114F104E9F1EE23FC
:10583000D9F184E190E0289FD001299FB00D389FD5
:10584000B00D1124A150B24E1396EC9313971C92F5
:105850001F961C921E921E9751961C921E92509754
:1058600053961C921E925297F901EE0FFF1FEE0FF6
:10587000FF1FE20FF31FEE0FFF1FEE0FFF1FED5F85
:10588000F14E718360831796DC93CE931697199629
:10589000DC92CE9218971B961C930E931A971D9626
:1058A000FC92EE921C9701C04FEF842FDF91CF91B5
:1058B0001F910F91FF90EF90DF90CF900895282FC8
:1058C0008091FE1D882389F0223078F430E084E155
:1058D00090E0289FF001299FF00D389FF00D1124D2
:1058E000E150F24E138281E0089580E00895A82FE0
:1058F0008091FE1D8823E1F1A230D0F5611571057C
:10590000A9F04115510591F02A2F30E084E190E093
:10591000289FF001299FF00D389FF00D1124E150D0
:10592000F24E77876687518B408B11C02A2F30E06B
:1059300084E190E0289FF001299FF00D389FF00D41
:105940001124E150F24E17861686118A108A2A2FEA
:1059500030E084E190E0289FF001299FF00D389F0E
:10596000F00D1124E150F24E138A128A81E008955D
:1059700080E008958F929F92AF92BF92CF92DF9274
:10598000FF920F931F93CF93DF93A82F4B015A01E0
:105990008091FE1D882309F485C0A23008F082C0E2
:1059A0006115710509F47EC04115510509F47AC0ED
:1059B0002A2F30E084E190E0289FF001299FF00D2C
:1059C000389FF00D1124E150F24E838182FF6AC0AE
:1059D00084E1A89FE0011124C150D24EE885F985E9
:1059E00080EC099500E010E0CC24DD2420C0F40117
:1059F000E00FF11FF08080ECF81659F0E885F9858A
:105A00008BEDF81671F48BED0995E885F9858DED30
:105A100009C0E885F9858BED0995E885F9858CED58
:105A200001C08F2D09950F5F1F4FCF0CD11C0A1598
:105A30001B05E8F28C2D81958B3D39F4E885F985BD
:105A40000995E885F9858DED09C0E885F985803CE3
:105A500029F48BED0995E885F9858CED0995882762
:105A600099278C199D099B3D41F4E885F9858BEDBB
:105A70000995E885F9858DED0BC0E885F985903CA1
:105A800031F48BED0995E885F9858CED01C0892FFE
:105A90000995E885F98580EC0995EA85FB853097BD
:105AA00009F00995DF91CF911F910F91FF90DF9041
:105AB000CF90BF90AF909F908F900895CF93DF933A
:105AC000982F8091FE1D882309F475C0923008F04C
:105AD00072C084E1989FE0011124C150D24E8B81A5
